{
  "_format": "hh-sol-artifact-1",
  "contractName": "EventTicketsFactory",
  "sourceName": "contracts/NFTTicket.sol",
  "abi": [
    {
      "anonymous": false,
      "inputs": [
        {
          "indexed": false,
          "internalType": "address",
          "name": "ntfAddress",
          "type": "address"
        },
        {
          "indexed": false,
          "internalType": "address",
          "name": "marketplaceAddress",
          "type": "address"
        }
      ],
      "name": "Created",
      "type": "event"
    },
    {
      "inputs": [
        {
          "internalType": "string",
          "name": "eventName",
          "type": "string"
        },
        {
          "internalType": "string",
          "name": "eventSymbol",
          "type": "string"
        },
        {
          "internalType": "string",
          "name": "imageHash",
          "type": "string"
        },
        {
          "internalType": "string",
          "name": "imageName",
          "type": "string"
        },
        {
          "internalType": "string",
          "name": "description",
          "type": "string"
        },
        {
          "internalType": "uint256",
          "name": "ticketPrice",
          "type": "uint256"
        },
        {
          "internalType": "uint256",
          "name": "totalSupply",
          "type": "uint256"
        }
      ],
      "name": "createNewEvent",
      "outputs": [],
      "stateMutability": "nonpayable",
      "type": "function"
    },
    {
      "inputs": [],
      "name": "fetchNewEventAddress",
      "outputs": [
        {
          "internalType": "address",
          "name": "",
          "type": "address"
        }
      ],
      "stateMutability": "view",
      "type": "function"
    },
    {
      "inputs": [],
      "name": "fetchNewEventMarketPlaceAddress",
      "outputs": [
        {
          "internalType": "address",
          "name": "",
          "type": "address"
        }
      ],
      "stateMutability": "view",
      "type": "function"
    },
    {
      "inputs": [],
      "name": "getActiveEvents",
      "outputs": [
        {
          "internalType": "address[]",
          "name": "",
          "type": "address[]"
        }
      ],
      "stateMutability": "view",
      "type": "function"
    },
    {
      "inputs": [
        {
          "internalType": "address",
          "name": "eventAddress",
          "type": "address"
        }
      ],
      "name": "getEventDetails",
      "outputs": [
        {
          "components": [
            {
              "internalType": "string",
              "name": "eventName",
              "type": "string"
            },
            {
              "internalType": "string",
              "name": "eventSymbol",
              "type": "string"
            },
            {
              "internalType": "string",
              "name": "imageHash",
              "type": "string"
            },
            {
              "internalType": "string",
              "name": "imageName",
              "type": "string"
            },
            {
              "internalType": "string",
              "name": "description",
              "type": "string"
            },
            {
              "internalType": "uint256",
              "name": "ticketPrice",
              "type": "uint256"
            },
            {
              "internalType": "uint256",
              "name": "totalSupply",
              "type": "uint256"
            },
            {
              "internalType": "address",
              "name": "marketplace",
              "type": "address"
            }
          ],
          "internalType": "struct EventTicketsFactory.Event",
          "name": "",
          "type": "tuple"
        }
      ],
      "stateMutability": "view",
      "type": "function"
    }
  ],
  "bytecode": "0x608060405234801561001057600080fd5b50616000806100206000396000f3fe60806040523480156200001157600080fd5b50600436106200005e5760003560e01c806311ebb3da14620000635780633612280f1462000085578063b4bf721114620000a7578063d43f036b14620000c9578063f414c0b614620000ff575b600080fd5b6200006d6200011f565b6040516200007c9190620009e2565b60405180910390f35b6200008f6200017a565b6040516200009e919062000acd565b60405180910390f35b620000b16200020a565b604051620000c09190620009e2565b60405180910390f35b620000e76004803603810190620000e1919062000b36565b62000265565b604051620000f6919062000cf9565b60405180910390f35b6200011d600480360381019062000117919062000e9f565b6200062d565b005b60006001806000805490506200013691906200101c565b815481106200014a576200014962001057565b5b9060005260206000200160009054906101000a900473ffffffffffffffffffffffffffffffffffffffff16905090565b606060008054806020026020016040519081016040528092919081815260200182805480156200020057602002820191906000526020600020905b8160009054906101000a900473ffffffffffffffffffffffffffffffffffffffff1673ffffffffffffffffffffffffffffffffffffffff1681526020019060010190808311620001b5575b5050505050905090565b60008060016000805490506200022191906200101c565b8154811062000235576200023462001057565b5b9060005260206000200160009054906101000a900473ffffffffffffffffffffffffffffffffffffffff16905090565b6200026f62000926565b600260008373ffffffffffffffffffffffffffffffffffffffff1673ffffffffffffffffffffffffffffffffffffffff16815260200190815260200160002060405180610100016040529081600082018054620002cc90620010b5565b80601f0160208091040260200160405190810160405280929190818152602001828054620002fa90620010b5565b80156200034b5780601f106200031f576101008083540402835291602001916200034b565b820191906000526020600020905b8154815290600101906020018083116200032d57829003601f168201915b505050505081526020016001820180546200036690620010b5565b80601f01602080910402602001604051908101604052809291908181526020018280546200039490620010b5565b8015620003e55780601f10620003b957610100808354040283529160200191620003e5565b820191906000526020600020905b815481529060010190602001808311620003c757829003601f168201915b505050505081526020016002820180546200040090620010b5565b80601f01602080910402602001604051908101604052809291908181526020018280546200042e90620010b5565b80156200047f5780601f1062000453576101008083540402835291602001916200047f565b820191906000526020600020905b8154815290600101906020018083116200046157829003601f168201915b505050505081526020016003820180546200049a90620010b5565b80601f0160208091040260200160405190810160405280929190818152602001828054620004c890620010b5565b8015620005195780601f10620004ed5761010080835404028352916020019162000519565b820191906000526020600020905b815481529060010190602001808311620004fb57829003601f168201915b505050505081526020016004820180546200053490620010b5565b80601f01602080910402602001604051908101604052809291908181526020018280546200056290620010b5565b8015620005b35780601f106200058757610100808354040283529160200191620005b3565b820191906000526020600020905b8154815290600101906020018083116200059557829003601f168201915b5050505050815260200160058201548152602001600682015481526020016007820160009054906101000a900473ffffffffffffffffffffffffffffffffffffffff1673ffffffffffffffffffffffffffffffffffffffff1673ffffffffffffffffffffffffffffffffffffffff16815250509050919050565b60008787848433604051620006429062000981565b620006529594939291906200114d565b604051809103906000f0801580156200066f573d6000803e3d6000fd5b50905060008160405162000683906200098f565b6200068f919062001223565b604051809103906000f080158015620006ac573d6000803e3d6000fd5b50905060008290506000819080600181540180825580915050600190039060005260206000200160009091909190916101000a81548173ffffffffffffffffffffffffffffffffffffffff021916908373ffffffffffffffffffffffffffffffffffffffff1602179055506040518061010001604052808b81526020018a81526020018981526020018881526020018781526020018681526020018581526020018373ffffffffffffffffffffffffffffffffffffffff16815250600260008373ffffffffffffffffffffffffffffffffffffffff1673ffffffffffffffffffffffffffffffffffffffff1681526020019081526020016000206000820151816000019081620007bd919062001408565b506020820151816001019081620007d5919062001408565b506040820151816002019081620007ed919062001408565b50606082015181600301908162000805919062001408565b5060808201518160040190816200081d919062001408565b5060a0820151816005015560c0820151816006015560e08201518160070160006101000a81548173ffffffffffffffffffffffffffffffffffffffff021916908373ffffffffffffffffffffffffffffffffffffffff1602179055509050506001829080600181540180825580915050600190039060005260206000200160009091909190916101000a81548173ffffffffffffffffffffffffffffffffffffffff021916908373ffffffffffffffffffffffffffffffffffffffff1602179055507f587ece4cd19692c5be1a4184503d607d45542d2aca0698c0068f52e09ccb541c818360405162000912929190620014ef565b60405180910390a150505050505050505050565b60405180610100016040528060608152602001606081526020016060815260200160608152602001606081526020016000815260200160008152602001600073ffffffffffffffffffffffffffffffffffffffff1681525090565b614022806200151d83390190565b610a8c806200553f83390190565b600073ffffffffffffffffffffffffffffffffffffffff82169050919050565b6000620009ca826200099d565b9050919050565b620009dc81620009bd565b82525050565b6000602082019050620009f96000830184620009d1565b92915050565b600081519050919050565b600082825260208201905092915050565b6000819050602082019050919050565b62000a3681620009bd565b82525050565b600062000a4a838362000a2b565b60208301905092915050565b6000602082019050919050565b600062000a7082620009ff565b62000a7c818562000a0a565b935062000a898362000a1b565b8060005b8381101562000ac057815162000aa4888262000a3c565b975062000ab18362000a56565b92505060018101905062000a8d565b5085935050505092915050565b6000602082019050818103600083015262000ae9818462000a63565b905092915050565b6000604051905090565b600080fd5b600080fd5b62000b1081620009bd565b811462000b1c57600080fd5b50565b60008135905062000b308162000b05565b92915050565b60006020828403121562000b4f5762000b4e62000afb565b5b600062000b5f8482850162000b1f565b91505092915050565b600081519050919050565b600082825260208201905092915050565b60005b8381101562000ba457808201518184015260208101905062000b87565b60008484015250505050565b6000601f19601f8301169050919050565b600062000bce8262000b68565b62000bda818562000b73565b935062000bec81856020860162000b84565b62000bf78162000bb0565b840191505092915050565b6000819050919050565b62000c178162000c02565b82525050565b600061010083016000830151848203600086015262000c3d828262000bc1565b9150506020830151848203602086015262000c59828262000bc1565b9150506040830151848203604086015262000c75828262000bc1565b9150506060830151848203606086015262000c91828262000bc1565b9150506080830151848203608086015262000cad828262000bc1565b91505060a083015162000cc460a086018262000c0c565b5060c083015162000cd960c086018262000c0c565b5060e083015162000cee60e086018262000a2b565b508091505092915050565b6000602082019050818103600083015262000d15818462000c1d565b905092915050565b600080fd5b600080fd5b7f4e487b7100000000000000000000000000000000000000000000000000000000600052604160045260246000fd5b62000d618262000bb0565b810181811067ffffffffffffffff8211171562000d835762000d8262000d27565b5b80604052505050565b600062000d9862000af1565b905062000da6828262000d56565b919050565b600067ffffffffffffffff82111562000dc95762000dc862000d27565b5b62000dd48262000bb0565b9050602081019050919050565b82818337600083830152505050565b600062000e0762000e018462000dab565b62000d8c565b90508281526020810184848401111562000e265762000e2562000d22565b5b62000e3384828562000de1565b509392505050565b600082601f83011262000e535762000e5262000d1d565b5b813562000e6584826020860162000df0565b91505092915050565b62000e798162000c02565b811462000e8557600080fd5b50565b60008135905062000e998162000e6e565b92915050565b600080600080600080600060e0888a03121562000ec15762000ec062000afb565b5b600088013567ffffffffffffffff81111562000ee25762000ee162000b00565b5b62000ef08a828b0162000e3b565b975050602088013567ffffffffffffffff81111562000f145762000f1362000b00565b5b62000f228a828b0162000e3b565b965050604088013567ffffffffffffffff81111562000f465762000f4562000b00565b5b62000f548a828b0162000e3b565b955050606088013567ffffffffffffffff81111562000f785762000f7762000b00565b5b62000f868a828b0162000e3b565b945050608088013567ffffffffffffffff81111562000faa5762000fa962000b00565b5b62000fb88a828b0162000e3b565b93505060a062000fcb8a828b0162000e88565b92505060c062000fde8a828b0162000e88565b91505092959891949750929550565b7f4e487b7100000000000000000000000000000000000000000000000000000000600052601160045260246000fd5b6000620010298262000c02565b9150620010368362000c02565b925082820390508181111562001051576200105062000fed565b5b92915050565b7f4e487b7100000000000000000000000000000000000000000000000000000000600052603260045260246000fd5b7f4e487b7100000000000000000000000000000000000000000000000000000000600052602260045260246000fd5b60006002820490506001821680620010ce57607f821691505b602082108103620010e457620010e362001086565b5b50919050565b600082825260208201905092915050565b6000620011088262000b68565b620011148185620010ea565b93506200112681856020860162000b84565b620011318162000bb0565b840191505092915050565b620011478162000c02565b82525050565b600060a0820190508181036000830152620011698188620010fb565b905081810360208301526200117f8187620010fb565b90506200119060408301866200113c565b6200119f60608301856200113c565b620011ae6080830184620009d1565b9695505050505050565b6000819050919050565b6000620011e3620011dd620011d7846200099d565b620011b8565b6200099d565b9050919050565b6000620011f782620011c2565b9050919050565b60006200120b82620011ea565b9050919050565b6200121d81620011fe565b82525050565b60006020820190506200123a600083018462001212565b92915050565b60008190508160005260206000209050919050565b60006020601f8301049050919050565b600082821b905092915050565b600060088302620012a47fffffffffffffffffffffffffffffffffffffffffffffffffffffffffffffffff8262001265565b620012b0868362001265565b95508019841693508086168417925050509392505050565b6000620012e9620012e3620012dd8462000c02565b620011b8565b62000c02565b9050919050565b6000819050919050565b6200130583620012c8565b6200131d6200131482620012f0565b84845462001272565b825550505050565b600090565b6200133462001325565b62001341818484620012fa565b505050565b5b8181101562001369576200135d6000826200132a565b60018101905062001347565b5050565b601f821115620013b857620013828162001240565b6200138d8462001255565b810160208510156200139d578190505b620013b5620013ac8562001255565b83018262001346565b50505b505050565b600082821c905092915050565b6000620013dd60001984600802620013bd565b1980831691505092915050565b6000620013f88383620013ca565b9150826002028217905092915050565b620014138262000b68565b67ffffffffffffffff8111156200142f576200142e62000d27565b5b6200143b8254620010b5565b620014488282856200136d565b600060209050601f8311600181146200148057600084156200146b578287015190505b620014778582620013ea565b865550620014e7565b601f198416620014908662001240565b60005b82811015620014ba5784890151825560018201915060208501945060208101905062001493565b86831015620014da5784890151620014d6601f891682620013ca565b8355505b6001600288020188555050505b505050505050565b6000604082019050620015066000830185620009d1565b620015156020830184620009d1565b939250505056fe60806040523480156200001157600080fd5b5060405162004022380380620040228339818101604052810190620000379190620002ec565b848481600090816200004a9190620005f3565b5080600190816200005c9190620005f3565b50505082600c8190555081600d8190555080600960006101000a81548173ffffffffffffffffffffffffffffffffffffffff021916908373ffffffffffffffffffffffffffffffffffffffff1602179055505050505050620006da565b6000604051905090565b600080fd5b600080fd5b600080fd5b600080fd5b6000601f19601f8301169050919050565b7f4e487b7100000000000000000000000000000000000000000000000000000000600052604160045260246000fd5b6200012282620000d7565b810181811067ffffffffffffffff82111715620001445762000143620000e8565b5b80604052505050565b600062000159620000b9565b905062000167828262000117565b919050565b600067ffffffffffffffff8211156200018a5762000189620000e8565b5b6200019582620000d7565b9050602081019050919050565b60005b83811015620001c2578082015181840152602081019050620001a5565b60008484015250505050565b6000620001e5620001df846200016c565b6200014d565b905082815260208101848484011115620002045762000203620000d2565b5b62000211848285620001a2565b509392505050565b600082601f830112620002315762000230620000cd565b5b815162000243848260208601620001ce565b91505092915050565b6000819050919050565b62000261816200024c565b81146200026d57600080fd5b50565b600081519050620002818162000256565b92915050565b600073ffffffffffffffffffffffffffffffffffffffff82169050919050565b6000620002b48262000287565b9050919050565b620002c681620002a7565b8114620002d257600080fd5b50565b600081519050620002e681620002bb565b92915050565b600080600080600060a086880312156200030b576200030a620000c3565b5b600086015167ffffffffffffffff8111156200032c576200032b620000c8565b5b6200033a8882890162000219565b955050602086015167ffffffffffffffff8111156200035e576200035d620000c8565b5b6200036c8882890162000219565b94505060406200037f8882890162000270565b9350506060620003928882890162000270565b9250506080620003a588828901620002d5565b9150509295509295909350565b600081519050919050565b7f4e487b7100000000000000000000000000000000000000000000000000000000600052602260045260246000fd5b600060028204905060018216806200040557607f821691505b6020821081036200041b576200041a620003bd565b5b50919050565b60008190508160005260206000209050919050565b60006020601f8301049050919050565b600082821b905092915050565b600060088302620004857fffffffffffffffffffffffffffffffffffffffffffffffffffffffffffffffff8262000446565b62000491868362000446565b95508019841693508086168417925050509392505050565b6000819050919050565b6000620004d4620004ce620004c8846200024c565b620004a9565b6200024c565b9050919050565b6000819050919050565b620004f083620004b3565b62000508620004ff82620004db565b84845462000453565b825550505050565b600090565b6200051f62000510565b6200052c818484620004e5565b505050565b5b8181101562000554576200054860008262000515565b60018101905062000532565b5050565b601f821115620005a3576200056d8162000421565b620005788462000436565b8101602085101562000588578190505b620005a0620005978562000436565b83018262000531565b50505b505050565b600082821c905092915050565b6000620005c860001984600802620005a8565b1980831691505092915050565b6000620005e38383620005b5565b9150826002028217905092915050565b620005fe82620003b2565b67ffffffffffffffff8111156200061a5762000619620000e8565b5b620006268254620003ec565b6200063382828562000558565b600060209050601f8311600181146200066b576000841562000656578287015190505b620006628582620005d5565b865550620006d2565b601f1984166200067b8662000421565b60005b82811015620006a5578489015182556001820191506020850194506020810190506200067e565b86831015620006c55784890151620006c1601f891682620005b5565b8355505b6001600288020188555050505b505050505050565b61393880620006ea6000396000f3fe608060405234801561001057600080fd5b506004361061014d5760003560e01c8063750e024c116100c3578063b632c9e41161007c578063b632c9e41461039f578063b88d4fde146103cf578063c87b56dd146103eb578063e985e9c51461041b578063f37149a21461044b578063f7dfbdbe146104675761014d565b8063750e024c146102f15780637da67ba81461030d57806387bb7ae01461032b57806395d89b4114610349578063a22cb46514610367578063b10d2e2a146103835761014d565b806323b872dd1161011557806323b872dd1461020a57806324c141601461022657806335fe12d81461025757806342842e0e146102755780636352211e1461029157806370a08231146102c15761014d565b806301ffc9a71461015257806306fdde0314610182578063081812fc146101a0578063095ea7b3146101d05780630b705578146101ec575b600080fd5b61016c60048036038101906101679190612452565b610483565b604051610179919061249a565b60405180910390f35b61018a610565565b6040516101979190612545565b60405180910390f35b6101ba60048036038101906101b5919061259d565b6105f7565b6040516101c7919061260b565b60405180910390f35b6101ea60048036038101906101e59190612652565b61063d565b005b6101f4610754565b604051610201919061260b565b60405180910390f35b610224600480360381019061021f9190612692565b61077e565b005b610240600480360381019061023b919061259d565b6107de565b60405161024e9291906126f4565b60405180910390f35b61025f610825565b60405161026c91906127db565b60405180910390f35b61028f600480360381019061028a9190612692565b61087d565b005b6102ab60048036038101906102a6919061259d565b61089d565b6040516102b8919061260b565b60405180910390f35b6102db60048036038101906102d691906127fd565b610923565b6040516102e8919061282a565b60405180910390f35b61030b60048036038101906103069190612845565b6109da565b005b610315610a41565b6040516103229190612943565b60405180910390f35b610333610acf565b604051610340919061282a565b60405180910390f35b610351610ad9565b60405161035e9190612545565b60405180910390f35b610381600480360381019061037c9190612991565b610b6b565b005b61039d60048036038101906103989190612b06565b610b81565b005b6103b960048036038101906103b491906127fd565b610c84565b6040516103c691906127db565b60405180910390f35b6103e960048036038101906103e49190612c03565b610d1b565b005b6104056004803603810190610400919061259d565b610d7d565b6040516104129190612545565b60405180910390f35b61043560048036038101906104309190612c86565b610e8f565b604051610442919061249a565b60405180910390f35b61046560048036038101906104609190612845565b610f23565b005b610481600480360381019061047c9190612cc6565b610f89565b005b60007f80ac58cd000000000000000000000000000000000000000000000000000000007bffffffffffffffffffffffffffffffffffffffffffffffffffffffff1916827bffffffffffffffffffffffffffffffffffffffffffffffffffffffff1916148061054e57507f5b5e139f000000000000000000000000000000000000000000000000000000007bffffffffffffffffffffffffffffffffffffffffffffffffffffffff1916827bffffffffffffffffffffffffffffffffffffffffffffffffffffffff1916145b8061055e575061055d8261109e565b5b9050919050565b60606000805461057490612d64565b80601f01602080910402602001604051908101604052809291908181526020018280546105a090612d64565b80156105ed5780601f106105c2576101008083540402835291602001916105ed565b820191906000526020600020905b8154815290600101906020018083116105d057829003601f168201915b5050505050905090565b600061060282611108565b6004600083815260200190815260200160002060009054906101000a900473ffffffffffffffffffffffffffffffffffffffff169050919050565b60006106488261089d565b90508073ffffffffffffffffffffffffffffffffffffffff168373ffffffffffffffffffffffffffffffffffffffff16036106b8576040517f08c379a00000000000000000000000000000000000000000000000000000000081526004016106af90612e07565b60405180910390fd5b8073ffffffffffffffffffffffffffffffffffffffff166106d7611153565b73ffffffffffffffffffffffffffffffffffffffff161480610706575061070581610700611153565b610e8f565b5b610745576040517f08c379a000000000000000000000000000000000000000000000000000000000815260040161073c90612e99565b60405180910390fd5b61074f838361115b565b505050565b6000600960009054906101000a900473ffffffffffffffffffffffffffffffffffffffff16905090565b61078f610789611153565b82611214565b6107ce576040517f08c379a00000000000000000000000000000000000000000000000000000000081526004016107c590612f2b565b60405180910390fd5b6107d98383836112a9565b505050565b600080600e600084815260200190815260200160002060000154600e600085815260200190815260200160002060010160009054906101000a900460ff1691509150915091565b6060600b80548060200260200160405190810160405280929190818152602001828054801561087357602002820191906000526020600020905b81548152602001906001019080831161085f575b5050505050905090565b61089883838360405180602001604052806000815250610d1b565b505050565b6000806108a9836115a2565b9050600073ffffffffffffffffffffffffffffffffffffffff168173ffffffffffffffffffffffffffffffffffffffff160361091a576040517f08c379a000000000000000000000000000000000000000000000000000000000815260040161091190612f97565b60405180910390fd5b80915050919050565b60008073ffffffffffffffffffffffffffffffffffffffff168273ffffffffffffffffffffffffffffffffffffffff1603610993576040517f08c379a000000000000000000000000000000000000000000000000000000000815260040161098a90613029565b60405180910390fd5b600360008373ffffffffffffffffffffffffffffffffffffffff1673ffffffffffffffffffffffffffffffffffffffff168152602001908152602001600020549050919050565b600d546109e760076115df565b106109f157600080fd5b6103e8826109ff60076115df565b610a099190613078565b1115610a1457600080fd5b60005b82811015610a3c57610a28826115ed565b508080610a34906130ac565b915050610a17565b505050565b6060600a805480602002602001604051908101604052809291908181526020018280548015610ac557602002820191906000526020600020905b8160009054906101000a900473ffffffffffffffffffffffffffffffffffffffff1673ffffffffffffffffffffffffffffffffffffffff1681526020019060010190808311610a7b575b5050505050905090565b6000600c54905090565b606060018054610ae890612d64565b80601f0160208091040260200160405190810160405280929190818152602001828054610b1490612d64565b8015610b615780601f10610b3657610100808354040283529160200191610b61565b820191906000526020600020905b815481529060010190602001808311610b4457829003601f168201915b5050505050905090565b610b7d610b76611153565b83836116ce565b5050565b610b8b600861183a565b6000610b9760086115df565b9050610bac610ba58261089d565b848361077e565b610bb68183611850565b600a839080600181540180825580915050600190039060005260206000200160009091909190916101000a81548173ffffffffffffffffffffffffffffffffffffffff021916908373ffffffffffffffffffffffffffffffffffffffff160217905550600f60008473ffffffffffffffffffffffffffffffffffffffff1673ffffffffffffffffffffffffffffffffffffffff168152602001908152602001600020819080600181540180825580915050600190039060005260206000200160009091909190915055505050565b6060600f60008373ffffffffffffffffffffffffffffffffffffffff1673ffffffffffffffffffffffffffffffffffffffff168152602001908152602001600020805480602002602001604051908101604052809291908181526020018280548015610d0f57602002820191906000526020600020905b815481526020019060010190808311610cfb575b50505050509050919050565b610d2c610d26611153565b83611214565b610d6b576040517f08c379a0000000000000000000000000000000000000000000000000000000008152600401610d6290612f2b565b60405180910390fd5b610d77848484846118bd565b50505050565b6060610d8882611108565b6000600660008481526020019081526020016000208054610da890612d64565b80601f0160208091040260200160405190810160405280929190818152602001828054610dd490612d64565b8015610e215780601f10610df657610100808354040283529160200191610e21565b820191906000526020600020905b815481529060010190602001808311610e0457829003601f168201915b505050505090506000610e32611919565b90506000815103610e47578192505050610e8a565b600082511115610e7c578082604051602001610e64929190613130565b60405160208183030381529060405292505050610e8a565b610e8584611930565b925050505b919050565b6000600560008473ffffffffffffffffffffffffffffffffffffffff1673ffffffffffffffffffffffffffffffffffffffff16815260200190815260200160002060008373ffffffffffffffffffffffffffffffffffffffff1673ffffffffffffffffffffffffffffffffffffffff16815260200190815260200160002060009054906101000a900460ff16905092915050565b6001600e600084815260200190815260200160002060010160006101000a81548160ff021916908315150217905550600b829080600181540180825580915050600190039060005260206000200160009091909190915055610f85818361063d565b5050565b6000610f948361089d565b90506000600e6000858152602001908152602001600020600001549050610fbc82868661077e565b610fc68484611850565b600f60008673ffffffffffffffffffffffffffffffffffffffff1673ffffffffffffffffffffffffffffffffffffffff1681526020019081526020016000208490806001815401808255809150506001900390600052602060002001600090919091909150556110368285611998565b61103f84611bc0565b604051806040016040528082815260200160001515815250600e60008681526020019081526020016000206000820151816000015560208201518160010160006101000a81548160ff0219169083151502179055509050505050505050565b60007f01ffc9a7000000000000000000000000000000000000000000000000000000007bffffffffffffffffffffffffffffffffffffffffffffffffffffffff1916827bffffffffffffffffffffffffffffffffffffffffffffffffffffffff1916149050919050565b61111181611c91565b611150576040517f08c379a000000000000000000000000000000000000000000000000000000000815260040161114790612f97565b60405180910390fd5b50565b600033905090565b816004600083815260200190815260200160002060006101000a81548173ffffffffffffffffffffffffffffffffffffffff021916908373ffffffffffffffffffffffffffffffffffffffff160217905550808273ffffffffffffffffffffffffffffffffffffffff166111ce8361089d565b73ffffffffffffffffffffffffffffffffffffffff167f8c5be1e5ebec7d5bd14f71427d1e84f3dd0314c0f7b2291e5b200ac8c7c3b92560405160405180910390a45050565b6000806112208361089d565b90508073ffffffffffffffffffffffffffffffffffffffff168473ffffffffffffffffffffffffffffffffffffffff16148061126257506112618185610e8f565b5b806112a057508373ffffffffffffffffffffffffffffffffffffffff16611288846105f7565b73ffffffffffffffffffffffffffffffffffffffff16145b91505092915050565b8273ffffffffffffffffffffffffffffffffffffffff166112c98261089d565b73ffffffffffffffffffffffffffffffffffffffff161461131f576040517f08c379a0000000000000000000000000000000000000000000000000000000008152600401611316906131c6565b60405180910390fd5b600073ffffffffffffffffffffffffffffffffffffffff168273ffffffffffffffffffffffffffffffffffffffff160361138e576040517f08c379a000000000000000000000000000000000000000000000000000000000815260040161138590613258565b60405180910390fd5b61139b8383836001611cd2565b8273ffffffffffffffffffffffffffffffffffffffff166113bb8261089d565b73ffffffffffffffffffffffffffffffffffffffff1614611411576040517f08c379a0000000000000000000000000000000000000000000000000000000008152600401611408906131c6565b60405180910390fd5b6004600082815260200190815260200160002060006101000a81549073ffffffffffffffffffffffffffffffffffffffff02191690556001600360008573ffffffffffffffffffffffffffffffffffffffff1673ffffffffffffffffffffffffffffffffffffffff168152602001908152602001600020600082825403925050819055506001600360008473ffffffffffffffffffffffffffffffffffffffff1673ffffffffffffffffffffffffffffffffffffffff16815260200190815260200160002060008282540192505081905550816002600083815260200190815260200160002060006101000a81548173ffffffffffffffffffffffffffffffffffffffff021916908373ffffffffffffffffffffffffffffffffffffffff160217905550808273ffffffffffffffffffffffffffffffffffffffff168473ffffffffffffffffffffffffffffffffffffffff167fddf252ad1be2c89b69c2b068fc378daa952ba7f163c4a11628f55a4df523b3ef60405160405180910390a461159d8383836001611df8565b505050565b60006002600083815260200190815260200160002060009054906101000a900473ffffffffffffffffffffffffffffffffffffffff169050919050565b600081600001549050919050565b60003373ffffffffffffffffffffffffffffffffffffffff16600960009054906101000a900473ffffffffffffffffffffffffffffffffffffffff1673ffffffffffffffffffffffffffffffffffffffff161461164957600080fd5b611653600761183a565b600061165f60076115df565b905061166b8382611dfe565b6040518060400160405280600c54815260200160001515815250600e60008381526020019081526020016000206000820151816000015560208201518160010160006101000a81548160ff02191690831515021790555090505080915050919050565b8173ffffffffffffffffffffffffffffffffffffffff168373ffffffffffffffffffffffffffffffffffffffff160361173c576040517f08c379a0000000000000000000000000000000000000000000000000000000008152600401611733906132c4565b60405180910390fd5b80600560008573ffffffffffffffffffffffffffffffffffffffff1673ffffffffffffffffffffffffffffffffffffffff16815260200190815260200160002060008473ffffffffffffffffffffffffffffffffffffffff1673ffffffffffffffffffffffffffffffffffffffff16815260200190815260200160002060006101000a81548160ff0219169083151502179055508173ffffffffffffffffffffffffffffffffffffffff168373ffffffffffffffffffffffffffffffffffffffff167f17307eab39ab6107e8899845ad3d59bd9653f200f220920489ca2b5937696c318360405161182d919061249a565b60405180910390a3505050565b6001816000016000828254019250508190555050565b61185982611c91565b611898576040517f08c379a000000000000000000000000000000000000000000000000000000000815260040161188f90613356565b60405180910390fd5b806006600084815260200190815260200160002090816118b89190613522565b505050565b6118c88484846112a9565b6118d48484848461201b565b611913576040517f08c379a000000000000000000000000000000000000000000000000000000000815260040161190a90613666565b60405180910390fd5b50505050565b606060405180602001604052806000815250905090565b606061193b82611108565b6000611945611919565b905060008151116119655760405180602001604052806000815250611990565b8061196f846121a2565b604051602001611980929190613130565b6040516020818303038152906040525b915050919050565b6000600f60008473ffffffffffffffffffffffffffffffffffffffff1673ffffffffffffffffffffffffffffffffffffffff16815260200190815260200160002080549050905060005b81811015611bba5782600f60008673ffffffffffffffffffffffffffffffffffffffff1673ffffffffffffffffffffffffffffffffffffffff1681526020019081526020016000208281548110611a3c57611a3b613686565b5b906000526020600020015403611ba7576000600182611a5b9190613078565b90505b82811015611b4057600f60008673ffffffffffffffffffffffffffffffffffffffff1673ffffffffffffffffffffffffffffffffffffffff1681526020019081526020016000208181548110611ab757611ab6613686565b5b9060005260206000200154600f60008773ffffffffffffffffffffffffffffffffffffffff1673ffffffffffffffffffffffffffffffffffffffff168152602001908152602001600020600183611b0e91906136b5565b81548110611b1f57611b1e613686565b5b90600052602060002001819055508080611b38906130ac565b915050611a5e565b50600f60008573ffffffffffffffffffffffffffffffffffffffff1673ffffffffffffffffffffffffffffffffffffffff168152602001908152602001600020805480611b9057611b8f6136e9565b5b600190038181906000526020600020016000905590555b8080611bb2906130ac565b9150506119e2565b50505050565b6000600b80549050905060005b81811015611c8c5782600b8281548110611bea57611be9613686565b5b906000526020600020015403611c7957600b6001600b80549050611c0e91906136b5565b81548110611c1f57611c1e613686565b5b9060005260206000200154600b8281548110611c3e57611c3d613686565b5b9060005260206000200181905550600b805480611c5e57611c5d6136e9565b5b60019003818190600052602060002001600090559055611c8c565b8080611c84906130ac565b915050611bcd565b505050565b60008073ffffffffffffffffffffffffffffffffffffffff16611cb3836115a2565b73ffffffffffffffffffffffffffffffffffffffff1614159050919050565b6001811115611df257600073ffffffffffffffffffffffffffffffffffffffff168473ffffffffffffffffffffffffffffffffffffffff1614611d665780600360008673ffffffffffffffffffffffffffffffffffffffff1673ffffffffffffffffffffffffffffffffffffffff1681526020019081526020016000206000828254611d5e91906136b5565b925050819055505b600073ffffffffffffffffffffffffffffffffffffffff168373ffffffffffffffffffffffffffffffffffffffff1614611df15780600360008573ffffffffffffffffffffffffffffffffffffffff1673ffffffffffffffffffffffffffffffffffffffff1681526020019081526020016000206000828254611de99190613078565b925050819055505b5b50505050565b50505050565b600073ffffffffffffffffffffffffffffffffffffffff168273ffffffffffffffffffffffffffffffffffffffff1603611e6d576040517f08c379a0000000000000000000000000000000000000000000000000000000008152600401611e6490613764565b60405180910390fd5b611e7681611c91565b15611eb6576040517f08c379a0000000000000000000000000000000000000000000000000000000008152600401611ead906137d0565b60405180910390fd5b611ec4600083836001611cd2565b611ecd81611c91565b15611f0d576040517f08c379a0000000000000000000000000000000000000000000000000000000008152600401611f04906137d0565b60405180910390fd5b6001600360008473ffffffffffffffffffffffffffffffffffffffff1673ffffffffffffffffffffffffffffffffffffffff16815260200190815260200160002060008282540192505081905550816002600083815260200190815260200160002060006101000a81548173ffffffffffffffffffffffffffffffffffffffff021916908373ffffffffffffffffffffffffffffffffffffffff160217905550808273ffffffffffffffffffffffffffffffffffffffff16600073ffffffffffffffffffffffffffffffffffffffff167fddf252ad1be2c89b69c2b068fc378daa952ba7f163c4a11628f55a4df523b3ef60405160405180910390a4612017600083836001611df8565b5050565b600061203c8473ffffffffffffffffffffffffffffffffffffffff16612270565b15612195578373ffffffffffffffffffffffffffffffffffffffff1663150b7a02612065611153565b8786866040518563ffffffff1660e01b81526004016120879493929190613845565b6020604051808303816000875af19250505080156120c357506040513d601f19601f820116820180604052508101906120c091906138a6565b60015b612145573d80600081146120f3576040519150601f19603f3d011682016040523d82523d6000602084013e6120f8565b606091505b50600081510361213d576040517f08c379a000000000000000000000000000000000000000000000000000000000815260040161213490613666565b60405180910390fd5b805181602001fd5b63150b7a0260e01b7bffffffffffffffffffffffffffffffffffffffffffffffffffffffff1916817bffffffffffffffffffffffffffffffffffffffffffffffffffffffff19161491505061219a565b600190505b949350505050565b6060600060016121b184612293565b01905060008167ffffffffffffffff8111156121d0576121cf6129db565b5b6040519080825280601f01601f1916602001820160405280156122025781602001600182028036833780820191505090505b509050600082602001820190505b600115612265578080600190039150507f3031323334353637383961626364656600000000000000000000000000000000600a86061a8153600a8581612259576122586138d3565b5b04945060008503612210575b819350505050919050565b6000808273ffffffffffffffffffffffffffffffffffffffff163b119050919050565b600080600090507a184f03e93ff9f4daa797ed6e38ed64bf6a1f01000000000000000083106122f1577a184f03e93ff9f4daa797ed6e38ed64bf6a1f01000000000000000083816122e7576122e66138d3565b5b0492506040810190505b6d04ee2d6d415b85acef8100000000831061232e576d04ee2d6d415b85acef81000000008381612324576123236138d3565b5b0492506020810190505b662386f26fc10000831061235d57662386f26fc100008381612353576123526138d3565b5b0492506010810190505b6305f5e1008310612386576305f5e100838161237c5761237b6138d3565b5b0492506008810190505b61271083106123ab5761271083816123a1576123a06138d3565b5b0492506004810190505b606483106123ce57606483816123c4576123c36138d3565b5b0492506002810190505b600a83106123dd576001810190505b80915050919050565b6000604051905090565b600080fd5b600080fd5b60007fffffffff0000000000000000000000000000000000000000000000000000000082169050919050565b61242f816123fa565b811461243a57600080fd5b50565b60008135905061244c81612426565b92915050565b600060208284031215612468576124676123f0565b5b60006124768482850161243d565b91505092915050565b60008115159050919050565b6124948161247f565b82525050565b60006020820190506124af600083018461248b565b92915050565b600081519050919050565b600082825260208201905092915050565b60005b838110156124ef5780820151818401526020810190506124d4565b60008484015250505050565b6000601f19601f8301169050919050565b6000612517826124b5565b61252181856124c0565b93506125318185602086016124d1565b61253a816124fb565b840191505092915050565b6000602082019050818103600083015261255f818461250c565b905092915050565b6000819050919050565b61257a81612567565b811461258557600080fd5b50565b60008135905061259781612571565b92915050565b6000602082840312156125b3576125b26123f0565b5b60006125c184828501612588565b91505092915050565b600073ffffffffffffffffffffffffffffffffffffffff82169050919050565b60006125f5826125ca565b9050919050565b612605816125ea565b82525050565b600060208201905061262060008301846125fc565b92915050565b61262f816125ea565b811461263a57600080fd5b50565b60008135905061264c81612626565b92915050565b60008060408385031215612669576126686123f0565b5b60006126778582860161263d565b925050602061268885828601612588565b9150509250929050565b6000806000606084860312156126ab576126aa6123f0565b5b60006126b98682870161263d565b93505060206126ca8682870161263d565b92505060406126db86828701612588565b9150509250925092565b6126ee81612567565b82525050565b600060408201905061270960008301856126e5565b612716602083018461248b565b9392505050565b600081519050919050565b600082825260208201905092915050565b6000819050602082019050919050565b61275281612567565b82525050565b60006127648383612749565b60208301905092915050565b6000602082019050919050565b60006127888261271d565b6127928185612728565b935061279d83612739565b8060005b838110156127ce5781516127b58882612758565b97506127c083612770565b9250506001810190506127a1565b5085935050505092915050565b600060208201905081810360008301526127f5818461277d565b905092915050565b600060208284031215612813576128126123f0565b5b60006128218482850161263d565b91505092915050565b600060208201905061283f60008301846126e5565b92915050565b6000806040838503121561285c5761285b6123f0565b5b600061286a85828601612588565b925050602061287b8582860161263d565b9150509250929050565b600081519050919050565b600082825260208201905092915050565b6000819050602082019050919050565b6128ba816125ea565b82525050565b60006128cc83836128b1565b60208301905092915050565b6000602082019050919050565b60006128f082612885565b6128fa8185612890565b9350612905836128a1565b8060005b8381101561293657815161291d88826128c0565b9750612928836128d8565b925050600181019050612909565b5085935050505092915050565b6000602082019050818103600083015261295d81846128e5565b905092915050565b61296e8161247f565b811461297957600080fd5b50565b60008135905061298b81612965565b92915050565b600080604083850312156129a8576129a76123f0565b5b60006129b68582860161263d565b92505060206129c78582860161297c565b9150509250929050565b600080fd5b600080fd5b7f4e487b7100000000000000000000000000000000000000000000000000000000600052604160045260246000fd5b612a13826124fb565b810181811067ffffffffffffffff82111715612a3257612a316129db565b5b80604052505050565b6000612a456123e6565b9050612a518282612a0a565b919050565b600067ffffffffffffffff821115612a7157612a706129db565b5b612a7a826124fb565b9050602081019050919050565b82818337600083830152505050565b6000612aa9612aa484612a56565b612a3b565b905082815260208101848484011115612ac557612ac46129d6565b5b612ad0848285612a87565b509392505050565b600082601f830112612aed57612aec6129d1565b5b8135612afd848260208601612a96565b91505092915050565b60008060408385031215612b1d57612b1c6123f0565b5b6000612b2b8582860161263d565b925050602083013567ffffffffffffffff811115612b4c57612b4b6123f5565b5b612b5885828601612ad8565b9150509250929050565b600067ffffffffffffffff821115612b7d57612b7c6129db565b5b612b86826124fb565b9050602081019050919050565b6000612ba6612ba184612b62565b612a3b565b905082815260208101848484011115612bc257612bc16129d6565b5b612bcd848285612a87565b509392505050565b600082601f830112612bea57612be96129d1565b5b8135612bfa848260208601612b93565b91505092915050565b60008060008060808587031215612c1d57612c1c6123f0565b5b6000612c2b8782880161263d565b9450506020612c3c8782880161263d565b9350506040612c4d87828801612588565b925050606085013567ffffffffffffffff811115612c6e57612c6d6123f5565b5b612c7a87828801612bd5565b91505092959194509250565b60008060408385031215612c9d57612c9c6123f0565b5b6000612cab8582860161263d565b9250506020612cbc8582860161263d565b9150509250929050565b600080600060608486031215612cdf57612cde6123f0565b5b6000612ced8682870161263d565b9350506020612cfe86828701612588565b925050604084013567ffffffffffffffff811115612d1f57612d1e6123f5565b5b612d2b86828701612ad8565b9150509250925092565b7f4e487b7100000000000000000000000000000000000000000000000000000000600052602260045260246000fd5b60006002820490506001821680612d7c57607f821691505b602082108103612d8f57612d8e612d35565b5b50919050565b7f4552433732313a20617070726f76616c20746f2063757272656e74206f776e6560008201527f7200000000000000000000000000000000000000000000000000000000000000602082015250565b6000612df16021836124c0565b9150612dfc82612d95565b604082019050919050565b60006020820190508181036000830152612e2081612de4565b9050919050565b7f4552433732313a20617070726f76652063616c6c6572206973206e6f7420746f60008201527f6b656e206f776e6572206f7220617070726f76656420666f7220616c6c000000602082015250565b6000612e83603d836124c0565b9150612e8e82612e27565b604082019050919050565b60006020820190508181036000830152612eb281612e76565b9050919050565b7f4552433732313a2063616c6c6572206973206e6f7420746f6b656e206f776e6560008201527f72206f7220617070726f76656400000000000000000000000000000000000000602082015250565b6000612f15602d836124c0565b9150612f2082612eb9565b604082019050919050565b60006020820190508181036000830152612f4481612f08565b9050919050565b7f4552433732313a20696e76616c696420746f6b656e2049440000000000000000600082015250565b6000612f816018836124c0565b9150612f8c82612f4b565b602082019050919050565b60006020820190508181036000830152612fb081612f74565b9050919050565b7f4552433732313a2061646472657373207a65726f206973206e6f74206120766160008201527f6c6964206f776e65720000000000000000000000000000000000000000000000602082015250565b60006130136029836124c0565b915061301e82612fb7565b604082019050919050565b6000602082019050818103600083015261304281613006565b9050919050565b7f4e487b7100000000000000000000000000000000000000000000000000000000600052601160045260246000fd5b600061308382612567565b915061308e83612567565b92508282019050808211156130a6576130a5613049565b5b92915050565b60006130b782612567565b91507fffffffffffffffffffffffffffffffffffffffffffffffffffffffffffffffff82036130e9576130e8613049565b5b600182019050919050565b600081905092915050565b600061310a826124b5565b61311481856130f4565b93506131248185602086016124d1565b80840191505092915050565b600061313c82856130ff565b915061314882846130ff565b91508190509392505050565b7f4552433732313a207472616e736665722066726f6d20696e636f72726563742060008201527f6f776e6572000000000000000000000000000000000000000000000000000000602082015250565b60006131b06025836124c0565b91506131bb82613154565b604082019050919050565b600060208201905081810360008301526131df816131a3565b9050919050565b7f4552433732313a207472616e7366657220746f20746865207a65726f2061646460008201527f7265737300000000000000000000000000000000000000000000000000000000602082015250565b60006132426024836124c0565b915061324d826131e6565b604082019050919050565b6000602082019050818103600083015261327181613235565b9050919050565b7f4552433732313a20617070726f766520746f2063616c6c657200000000000000600082015250565b60006132ae6019836124c0565b91506132b982613278565b602082019050919050565b600060208201905081810360008301526132dd816132a1565b9050919050565b7f45524337323155524953746f726167653a2055524920736574206f66206e6f6e60008201527f6578697374656e7420746f6b656e000000000000000000000000000000000000602082015250565b6000613340602e836124c0565b915061334b826132e4565b604082019050919050565b6000602082019050818103600083015261336f81613333565b9050919050565b60008190508160005260206000209050919050565b60006020601f8301049050919050565b600082821b905092915050565b6000600883026133d87fffffffffffffffffffffffffffffffffffffffffffffffffffffffffffffffff8261339b565b6133e2868361339b565b95508019841693508086168417925050509392505050565b6000819050919050565b600061341f61341a61341584612567565b6133fa565b612567565b9050919050565b6000819050919050565b61343983613404565b61344d61344582613426565b8484546133a8565b825550505050565b600090565b613462613455565b61346d818484613430565b505050565b5b818110156134915761348660008261345a565b600181019050613473565b5050565b601f8211156134d6576134a781613376565b6134b08461338b565b810160208510156134bf578190505b6134d36134cb8561338b565b830182613472565b50505b505050565b600082821c905092915050565b60006134f9600019846008026134db565b1980831691505092915050565b600061351283836134e8565b9150826002028217905092915050565b61352b826124b5565b67ffffffffffffffff811115613544576135436129db565b5b61354e8254612d64565b613559828285613495565b600060209050601f83116001811461358c576000841561357a578287015190505b6135848582613506565b8655506135ec565b601f19841661359a86613376565b60005b828110156135c25784890151825560018201915060208501945060208101905061359d565b868310156135df57848901516135db601f8916826134e8565b8355505b6001600288020188555050505b505050505050565b7f4552433732313a207472616e7366657220746f206e6f6e20455243373231526560008201527f63656976657220696d706c656d656e7465720000000000000000000000000000602082015250565b60006136506032836124c0565b915061365b826135f4565b604082019050919050565b6000602082019050818103600083015261367f81613643565b9050919050565b7f4e487b7100000000000000000000000000000000000000000000000000000000600052603260045260246000fd5b60006136c082612567565b91506136cb83612567565b92508282039050818111156136e3576136e2613049565b5b92915050565b7f4e487b7100000000000000000000000000000000000000000000000000000000600052603160045260246000fd5b7f4552433732313a206d696e7420746f20746865207a65726f2061646472657373600082015250565b600061374e6020836124c0565b915061375982613718565b602082019050919050565b6000602082019050818103600083015261377d81613741565b9050919050565b7f4552433732313a20746f6b656e20616c7265616479206d696e74656400000000600082015250565b60006137ba601c836124c0565b91506137c582613784565b602082019050919050565b600060208201905081810360008301526137e9816137ad565b9050919050565b600081519050919050565b600082825260208201905092915050565b6000613817826137f0565b61382181856137fb565b93506138318185602086016124d1565b61383a816124fb565b840191505092915050565b600060808201905061385a60008301876125fc565b61386760208301866125fc565b61387460408301856126e5565b8181036060830152613886818461380c565b905095945050505050565b6000815190506138a081612426565b92915050565b6000602082840312156138bc576138bb6123f0565b5b60006138ca84828501613891565b91505092915050565b7f4e487b7100000000000000000000000000000000000000000000000000000000600052601260045260246000fdfea2646970667358221220507272839da7851bc60d26be464e660a1622d2ad5afaf38202ad01cfe6974fbf64736f6c63430008110033608060405234801561001057600080fd5b50604051610a8c380380610a8c833981810160405281019061003291906100ed565b806000806101000a81548173ffffffffffffffffffffffffffffffffffffffff021916908373ffffffffffffffffffffffffffffffffffffffff1602179055505061011a565b600080fd5b600073ffffffffffffffffffffffffffffffffffffffff82169050919050565b60006100a88261007d565b9050919050565b60006100ba8261009d565b9050919050565b6100ca816100af565b81146100d557600080fd5b50565b6000815190506100e7816100c1565b92915050565b60006020828403121561010357610102610078565b5b6000610111848285016100d8565b91505092915050565b610963806101296000396000f3fe6080604052600436106100295760003560e01c8063a6b01b451461002e578063c143f5f71461004a575b600080fd5b61004860048036038101906100439190610636565b610066565b005b610064600480360381019061005f91906106b5565b61026b565b005b3460008054906101000a900473ffffffffffffffffffffffffffffffffffffffff1673ffffffffffffffffffffffffffffffffffffffff166387bb7ae06040518163ffffffff1660e01b8152600401602060405180830381865afa1580156100d2573d6000803e3d6000fd5b505050506040513d601f19601f820116820180604052508101906100f69190610726565b1461010057600080fd5b600033905060008054906101000a900473ffffffffffffffffffffffffffffffffffffffff1673ffffffffffffffffffffffffffffffffffffffff16630b7055786040518163ffffffff1660e01b8152600401602060405180830381865afa158015610170573d6000803e3d6000fd5b505050506040513d601f19601f8201168201806040525081019061019491906107b1565b73ffffffffffffffffffffffffffffffffffffffff166108fc349081150290604051600060405180830381858888f193505050501580156101d9573d6000803e3d6000fd5b5060008054906101000a900473ffffffffffffffffffffffffffffffffffffffff1673ffffffffffffffffffffffffffffffffffffffff1663b10d2e2a82846040518363ffffffff1660e01b815260040161023592919061086c565b600060405180830381600087803b15801561024f57600080fd5b505af1158015610263573d6000803e3d6000fd5b505050505050565b60008060009054906101000a900473ffffffffffffffffffffffffffffffffffffffff1673ffffffffffffffffffffffffffffffffffffffff16636352211e846040518263ffffffff1660e01b81526004016102c791906108ab565b602060405180830381865afa1580156102e4573d6000803e3d6000fd5b505050506040513d601f19601f8201168201806040525081019061030891906107b1565b9050600033905060008060009054906101000a900473ffffffffffffffffffffffffffffffffffffffff1673ffffffffffffffffffffffffffffffffffffffff166387bb7ae06040518163ffffffff1660e01b8152600401602060405180830381865afa15801561037d573d6000803e3d6000fd5b505050506040513d601f19601f820116820180604052508101906103a19190610726565b90503481146103af57600080fd5b8273ffffffffffffffffffffffffffffffffffffffff166108fc829081150290604051600060405180830381858888f193505050501580156103f5573d6000803e3d6000fd5b5060008054906101000a900473ffffffffffffffffffffffffffffffffffffffff1673ffffffffffffffffffffffffffffffffffffffff1663f7dfbdbe8387876040518463ffffffff1660e01b8152600401610453939291906108c6565b600060405180830381600087803b15801561046d57600080fd5b505af1158015610481573d6000803e3d6000fd5b505050508173ffffffffffffffffffffffffffffffffffffffff167f22e3ae3a20c49dce14046235895c7a3ffc0a6a5f3577c370177ad45fa619485d84876040516104cd929190610904565b60405180910390a25050505050565b6000604051905090565b600080fd5b600080fd5b600080fd5b600080fd5b6000601f19601f8301169050919050565b7f4e487b7100000000000000000000000000000000000000000000000000000000600052604160045260246000fd5b610543826104fa565b810181811067ffffffffffffffff821117156105625761056161050b565b5b80604052505050565b60006105756104dc565b9050610581828261053a565b919050565b600067ffffffffffffffff8211156105a1576105a061050b565b5b6105aa826104fa565b9050602081019050919050565b82818337600083830152505050565b60006105d96105d484610586565b61056b565b9050828152602081018484840111156105f5576105f46104f5565b5b6106008482856105b7565b509392505050565b600082601f83011261061d5761061c6104f0565b5b813561062d8482602086016105c6565b91505092915050565b60006020828403121561064c5761064b6104e6565b5b600082013567ffffffffffffffff81111561066a576106696104eb565b5b61067684828501610608565b91505092915050565b6000819050919050565b6106928161067f565b811461069d57600080fd5b50565b6000813590506106af81610689565b92915050565b600080604083850312156106cc576106cb6104e6565b5b60006106da858286016106a0565b925050602083013567ffffffffffffffff8111156106fb576106fa6104eb565b5b61070785828601610608565b9150509250929050565b60008151905061072081610689565b92915050565b60006020828403121561073c5761073b6104e6565b5b600061074a84828501610711565b91505092915050565b600073ffffffffffffffffffffffffffffffffffffffff82169050919050565b600061077e82610753565b9050919050565b61078e81610773565b811461079957600080fd5b50565b6000815190506107ab81610785565b92915050565b6000602082840312156107c7576107c66104e6565b5b60006107d58482850161079c565b91505092915050565b6107e781610773565b82525050565b600081519050919050565b600082825260208201905092915050565b60005b8381101561082757808201518184015260208101905061080c565b60008484015250505050565b600061083e826107ed565b61084881856107f8565b9350610858818560208601610809565b610861816104fa565b840191505092915050565b600060408201905061088160008301856107de565b81810360208301526108938184610833565b90509392505050565b6108a58161067f565b82525050565b60006020820190506108c0600083018461089c565b92915050565b60006060820190506108db60008301866107de565b6108e8602083018561089c565b81810360408301526108fa8184610833565b9050949350505050565b600060408201905061091960008301856107de565b610926602083018461089c565b939250505056fea264697066735822122047c51a8dcaf42b9ca84d193396f358669c0a621ea06b47b164509b7eb1904bd764736f6c63430008110033a26469706673582212204b905a7d939f580a90d7967a648ea377e21b4719c255811792a438c982bf1ac664736f6c63430008110033",
  "linkReferences": {},
  "deployedLinkReferences": {}
}