{
  "_format": "hh-sol-artifact-1",
  "contractName": "EventNFT",
  "sourceName": "contracts/NFTTicket.sol",
  "abi": [
    {
      "inputs": [
        {
          "internalType": "string",
          "name": "eventName",
          "type": "string"
        },
        {
          "internalType": "string",
          "name": "eventSymbol",
          "type": "string"
        },
        {
          "internalType": "string",
          "name": "imageHash",
          "type": "string"
        },
        {
          "internalType": "uint256",
          "name": "ticketPrice",
          "type": "uint256"
        },
        {
          "internalType": "uint256",
          "name": "totalSupply",
          "type": "uint256"
        },
        {
          "internalType": "address",
          "name": "organiser",
          "type": "address"
        }
      ],
      "stateMutability": "nonpayable",
      "type": "constructor"
    },
    {
      "anonymous": false,
      "inputs": [
        {
          "indexed": true,
          "internalType": "address",
          "name": "owner",
          "type": "address"
        },
        {
          "indexed": true,
          "internalType": "address",
          "name": "approved",
          "type": "address"
        },
        {
          "indexed": true,
          "internalType": "uint256",
          "name": "tokenId",
          "type": "uint256"
        }
      ],
      "name": "Approval",
      "type": "event"
    },
    {
      "anonymous": false,
      "inputs": [
        {
          "indexed": true,
          "internalType": "address",
          "name": "owner",
          "type": "address"
        },
        {
          "indexed": true,
          "internalType": "address",
          "name": "operator",
          "type": "address"
        },
        {
          "indexed": false,
          "internalType": "bool",
          "name": "approved",
          "type": "bool"
        }
      ],
      "name": "ApprovalForAll",
      "type": "event"
    },
    {
      "anonymous": false,
      "inputs": [
        {
          "indexed": true,
          "internalType": "address",
          "name": "from",
          "type": "address"
        },
        {
          "indexed": true,
          "internalType": "address",
          "name": "to",
          "type": "address"
        },
        {
          "indexed": true,
          "internalType": "uint256",
          "name": "tokenId",
          "type": "uint256"
        }
      ],
      "name": "Transfer",
      "type": "event"
    },
    {
      "inputs": [],
      "name": "MINTER_ROLE",
      "outputs": [
        {
          "internalType": "bytes32",
          "name": "",
          "type": "bytes32"
        }
      ],
      "stateMutability": "view",
      "type": "function"
    },
    {
      "inputs": [
        {
          "internalType": "address",
          "name": "to",
          "type": "address"
        },
        {
          "internalType": "uint256",
          "name": "tokenId",
          "type": "uint256"
        }
      ],
      "name": "approve",
      "outputs": [],
      "stateMutability": "nonpayable",
      "type": "function"
    },
    {
      "inputs": [
        {
          "internalType": "address",
          "name": "owner",
          "type": "address"
        }
      ],
      "name": "balanceOf",
      "outputs": [
        {
          "internalType": "uint256",
          "name": "",
          "type": "uint256"
        }
      ],
      "stateMutability": "view",
      "type": "function"
    },
    {
      "inputs": [
        {
          "internalType": "uint256",
          "name": "numOfTickets",
          "type": "uint256"
        },
        {
          "internalType": "address",
          "name": "operator",
          "type": "address"
        },
        {
          "internalType": "string[]",
          "name": "tokensURI",
          "type": "string[]"
        }
      ],
      "name": "bulkMintTickets",
      "outputs": [],
      "stateMutability": "nonpayable",
      "type": "function"
    },
    {
      "inputs": [
        {
          "internalType": "uint256",
          "name": "tokenId",
          "type": "uint256"
        }
      ],
      "name": "getApproved",
      "outputs": [
        {
          "internalType": "address",
          "name": "",
          "type": "address"
        }
      ],
      "stateMutability": "view",
      "type": "function"
    },
    {
      "inputs": [],
      "name": "getNextSaleTicketId",
      "outputs": [
        {
          "internalType": "uint256",
          "name": "",
          "type": "uint256"
        }
      ],
      "stateMutability": "view",
      "type": "function"
    },
    {
      "inputs": [],
      "name": "getOrganiser",
      "outputs": [
        {
          "internalType": "address",
          "name": "",
          "type": "address"
        }
      ],
      "stateMutability": "view",
      "type": "function"
    },
    {
      "inputs": [
        {
          "internalType": "uint256",
          "name": "ticketId",
          "type": "uint256"
        }
      ],
      "name": "getSellingPrice",
      "outputs": [
        {
          "internalType": "uint256",
          "name": "",
          "type": "uint256"
        }
      ],
      "stateMutability": "view",
      "type": "function"
    },
    {
      "inputs": [
        {
          "internalType": "uint256",
          "name": "ticketId",
          "type": "uint256"
        }
      ],
      "name": "getTicketDetails",
      "outputs": [
        {
          "internalType": "uint256",
          "name": "purchasePrice",
          "type": "uint256"
        },
        {
          "internalType": "uint256",
          "name": "sellingPrice",
          "type": "uint256"
        },
        {
          "internalType": "bool",
          "name": "forSale",
          "type": "bool"
        }
      ],
      "stateMutability": "view",
      "type": "function"
    },
    {
      "inputs": [],
      "name": "getTicketPrice",
      "outputs": [
        {
          "internalType": "uint256",
          "name": "",
          "type": "uint256"
        }
      ],
      "stateMutability": "view",
      "type": "function"
    },
    {
      "inputs": [],
      "name": "getTicketsForSale",
      "outputs": [
        {
          "internalType": "uint256[]",
          "name": "",
          "type": "uint256[]"
        }
      ],
      "stateMutability": "view",
      "type": "function"
    },
    {
      "inputs": [
        {
          "internalType": "address",
          "name": "customer",
          "type": "address"
        }
      ],
      "name": "getTicketsOfCustomer",
      "outputs": [
        {
          "internalType": "uint256[]",
          "name": "",
          "type": "uint256[]"
        }
      ],
      "stateMutability": "view",
      "type": "function"
    },
    {
      "inputs": [
        {
          "internalType": "address",
          "name": "owner",
          "type": "address"
        },
        {
          "internalType": "address",
          "name": "operator",
          "type": "address"
        }
      ],
      "name": "isApprovedForAll",
      "outputs": [
        {
          "internalType": "bool",
          "name": "",
          "type": "bool"
        }
      ],
      "stateMutability": "view",
      "type": "function"
    },
    {
      "inputs": [],
      "name": "name",
      "outputs": [
        {
          "internalType": "string",
          "name": "",
          "type": "string"
        }
      ],
      "stateMutability": "view",
      "type": "function"
    },
    {
      "inputs": [
        {
          "internalType": "uint256",
          "name": "tokenId",
          "type": "uint256"
        }
      ],
      "name": "ownerOf",
      "outputs": [
        {
          "internalType": "address",
          "name": "",
          "type": "address"
        }
      ],
      "stateMutability": "view",
      "type": "function"
    },
    {
      "inputs": [
        {
          "internalType": "address",
          "name": "from",
          "type": "address"
        },
        {
          "internalType": "address",
          "name": "to",
          "type": "address"
        },
        {
          "internalType": "uint256",
          "name": "tokenId",
          "type": "uint256"
        }
      ],
      "name": "safeTransferFrom",
      "outputs": [],
      "stateMutability": "nonpayable",
      "type": "function"
    },
    {
      "inputs": [
        {
          "internalType": "address",
          "name": "from",
          "type": "address"
        },
        {
          "internalType": "address",
          "name": "to",
          "type": "address"
        },
        {
          "internalType": "uint256",
          "name": "tokenId",
          "type": "uint256"
        },
        {
          "internalType": "bytes",
          "name": "data",
          "type": "bytes"
        }
      ],
      "name": "safeTransferFrom",
      "outputs": [],
      "stateMutability": "nonpayable",
      "type": "function"
    },
    {
      "inputs": [
        {
          "internalType": "address",
          "name": "buyer",
          "type": "address"
        },
        {
          "internalType": "uint256",
          "name": "saleTicketId",
          "type": "uint256"
        },
        {
          "internalType": "string",
          "name": "tokenURI",
          "type": "string"
        }
      ],
      "name": "secondaryTransferTicket",
      "outputs": [],
      "stateMutability": "nonpayable",
      "type": "function"
    },
    {
      "inputs": [
        {
          "internalType": "address",
          "name": "operator",
          "type": "address"
        },
        {
          "internalType": "bool",
          "name": "approved",
          "type": "bool"
        }
      ],
      "name": "setApprovalForAll",
      "outputs": [],
      "stateMutability": "nonpayable",
      "type": "function"
    },
    {
      "inputs": [
        {
          "internalType": "uint256",
          "name": "ticketId",
          "type": "uint256"
        },
        {
          "internalType": "uint256",
          "name": "sellingPrice",
          "type": "uint256"
        },
        {
          "internalType": "address",
          "name": "operator",
          "type": "address"
        }
      ],
      "name": "setSaleDetails",
      "outputs": [],
      "stateMutability": "nonpayable",
      "type": "function"
    },
    {
      "inputs": [
        {
          "internalType": "bytes4",
          "name": "interfaceId",
          "type": "bytes4"
        }
      ],
      "name": "supportsInterface",
      "outputs": [
        {
          "internalType": "bool",
          "name": "",
          "type": "bool"
        }
      ],
      "stateMutability": "view",
      "type": "function"
    },
    {
      "inputs": [],
      "name": "symbol",
      "outputs": [
        {
          "internalType": "string",
          "name": "",
          "type": "string"
        }
      ],
      "stateMutability": "view",
      "type": "function"
    },
    {
      "inputs": [],
      "name": "ticketCounts",
      "outputs": [
        {
          "internalType": "uint256",
          "name": "",
          "type": "uint256"
        }
      ],
      "stateMutability": "view",
      "type": "function"
    },
    {
      "inputs": [
        {
          "internalType": "uint256",
          "name": "tokenId",
          "type": "uint256"
        }
      ],
      "name": "tokenURI",
      "outputs": [
        {
          "internalType": "string",
          "name": "",
          "type": "string"
        }
      ],
      "stateMutability": "view",
      "type": "function"
    },
    {
      "inputs": [
        {
          "internalType": "address",
          "name": "from",
          "type": "address"
        },
        {
          "internalType": "address",
          "name": "to",
          "type": "address"
        },
        {
          "internalType": "uint256",
          "name": "tokenId",
          "type": "uint256"
        }
      ],
      "name": "transferFrom",
      "outputs": [],
      "stateMutability": "nonpayable",
      "type": "function"
    },
    {
      "inputs": [
        {
          "internalType": "address",
          "name": "buyer",
          "type": "address"
        },
        {
          "internalType": "string",
          "name": "tokenURI",
          "type": "string"
        }
      ],
      "name": "transferTicket",
      "outputs": [],
      "stateMutability": "nonpayable",
      "type": "function"
    }
  ],
  "bytecode": "0x60806040523480156200001157600080fd5b5060405162004a5538038062004a558339818101604052810190620000379190620002ff565b858581600090816200004a919062000639565b5080600190816200005c919062000639565b50505082600d8190555081600e8190555080600960006101000a81548173ffffffffffffffffffffffffffffffffffffffff021916908373ffffffffffffffffffffffffffffffffffffffff16021790555083600a9081620000bf919062000639565b5050505050505062000720565b6000604051905090565b600080fd5b600080fd5b600080fd5b600080fd5b6000601f19601f8301169050919050565b7f4e487b7100000000000000000000000000000000000000000000000000000000600052604160045260246000fd5b6200013582620000ea565b810181811067ffffffffffffffff82111715620001575762000156620000fb565b5b80604052505050565b60006200016c620000cc565b90506200017a82826200012a565b919050565b600067ffffffffffffffff8211156200019d576200019c620000fb565b5b620001a882620000ea565b9050602081019050919050565b60005b83811015620001d5578082015181840152602081019050620001b8565b60008484015250505050565b6000620001f8620001f2846200017f565b62000160565b905082815260208101848484011115620002175762000216620000e5565b5b62000224848285620001b5565b509392505050565b600082601f830112620002445762000243620000e0565b5b815162000256848260208601620001e1565b91505092915050565b6000819050919050565b62000274816200025f565b81146200028057600080fd5b50565b600081519050620002948162000269565b92915050565b600073ffffffffffffffffffffffffffffffffffffffff82169050919050565b6000620002c7826200029a565b9050919050565b620002d981620002ba565b8114620002e557600080fd5b50565b600081519050620002f981620002ce565b92915050565b60008060008060008060c087890312156200031f576200031e620000d6565b5b600087015167ffffffffffffffff81111562000340576200033f620000db565b5b6200034e89828a016200022c565b965050602087015167ffffffffffffffff811115620003725762000371620000db565b5b6200038089828a016200022c565b955050604087015167ffffffffffffffff811115620003a457620003a3620000db565b5b620003b289828a016200022c565b9450506060620003c589828a0162000283565b9350506080620003d889828a0162000283565b92505060a0620003eb89828a01620002e8565b9150509295509295509295565b600081519050919050565b7f4e487b7100000000000000000000000000000000000000000000000000000000600052602260045260246000fd5b600060028204905060018216806200044b57607f821691505b60208210810362000461576200046062000403565b5b50919050565b60008190508160005260206000209050919050565b60006020601f8301049050919050565b600082821b905092915050565b600060088302620004cb7fffffffffffffffffffffffffffffffffffffffffffffffffffffffffffffffff826200048c565b620004d786836200048c565b95508019841693508086168417925050509392505050565b6000819050919050565b60006200051a620005146200050e846200025f565b620004ef565b6200025f565b9050919050565b6000819050919050565b6200053683620004f9565b6200054e620005458262000521565b84845462000499565b825550505050565b600090565b6200056562000556565b620005728184846200052b565b505050565b5b818110156200059a576200058e6000826200055b565b60018101905062000578565b5050565b601f821115620005e957620005b38162000467565b620005be846200047c565b81016020851015620005ce578190505b620005e6620005dd856200047c565b83018262000577565b50505b505050565b600082821c905092915050565b60006200060e60001984600802620005ee565b1980831691505092915050565b6000620006298383620005fb565b9150826002028217905092915050565b6200064482620003f8565b67ffffffffffffffff81111562000660576200065f620000fb565b5b6200066c825462000432565b620006798282856200059e565b600060209050601f831160018114620006b157600084156200069c578287015190505b620006a885826200061b565b86555062000718565b601f198416620006c18662000467565b60005b82811015620006eb57848901518255600182019150602085019450602081019050620006c4565b868310156200070b578489015162000707601f891682620005fb565b8355505b6001600288020188555050505b505050505050565b61432580620007306000396000f3fe608060405234801561001057600080fd5b506004361061018e5760003560e01c806364d7f44f116100de578063b632c9e411610097578063d539139311610071578063d5391393146104a9578063e3278ad6146104c7578063e985e9c5146104e5578063f7dfbdbe146105155761018e565b8063b632c9e41461042d578063b88d4fde1461045d578063c87b56dd146104795761018e565b806364d7f44f1461036d57806370a082311461038957806387bb7ae0146103b957806395d89b41146103d7578063a22cb465146103f5578063b10d2e2a146104115761018e565b80631c0980221161014b57806335fe12d81161012557806335fe12d8146102d357806342842e0e146102f1578063569e35db1461030d5780636352211e1461033d5761018e565b80631c0980221461026957806323b872dd1461028557806324c14160146102a15761018e565b806301ffc9a714610193578063065366ee146101c357806306fdde03146101e1578063081812fc146101ff578063095ea7b31461022f5780630b7055781461024b575b600080fd5b6101ad60048036038101906101a891906129e2565b610531565b6040516101ba9190612a2a565b60405180910390f35b6101cb610613565b6040516101d89190612a5e565b60405180910390f35b6101e9610624565b6040516101f69190612b09565b60405180910390f35b61021960048036038101906102149190612b57565b6106b6565b6040516102269190612bc5565b60405180910390f35b61024960048036038101906102449190612c0c565b6106fc565b005b610253610813565b6040516102609190612bc5565b60405180910390f35b610283600480360381019061027e9190612e67565b61083d565b005b61029f600480360381019061029a9190612ed6565b61092a565b005b6102bb60048036038101906102b69190612b57565b61098a565b6040516102ca93929190612f29565b60405180910390f35b6102db6109ee565b6040516102e8919061301e565b60405180910390f35b61030b60048036038101906103069190612ed6565b610a46565b005b61032760048036038101906103229190612b57565b610a66565b6040516103349190612a5e565b60405180910390f35b61035760048036038101906103529190612b57565b610a86565b6040516103649190612bc5565b60405180910390f35b61038760048036038101906103829190613040565b610b0c565b005b6103a3600480360381019061039e9190613093565b610cad565b6040516103b09190612a5e565b60405180910390f35b6103c1610d64565b6040516103ce9190612a5e565b60405180910390f35b6103df610d6e565b6040516103ec9190612b09565b60405180910390f35b61040f600480360381019061040a91906130ec565b610e00565b005b61042b6004803603810190610426919061312c565b610e16565b005b61044760048036038101906104429190613093565b610f9d565b604051610454919061301e565b60405180910390f35b61047760048036038101906104729190613229565b611034565b005b610493600480360381019061048e9190612b57565b611096565b6040516104a09190612b09565b60405180910390f35b6104b16111a8565b6040516104be91906132c5565b60405180910390f35b6104cf6111cc565b6040516104dc9190612a5e565b60405180910390f35b6104ff60048036038101906104fa91906132e0565b6111dd565b60405161050c9190612a2a565b60405180910390f35b61052f600480360381019061052a9190613320565b611271565b005b60007f80ac58cd000000000000000000000000000000000000000000000000000000007bffffffffffffffffffffffffffffffffffffffffffffffffffffffff1916827bffffffffffffffffffffffffffffffffffffffffffffffffffffffff191614806105fc57507f5b5e139f000000000000000000000000000000000000000000000000000000007bffffffffffffffffffffffffffffffffffffffffffffffffffffffff1916827bffffffffffffffffffffffffffffffffffffffffffffffffffffffff1916145b8061060c575061060b826114a7565b5b9050919050565b600061061f6008611511565b905090565b606060008054610633906133be565b80601f016020809104026020016040519081016040528092919081815260200182805461065f906133be565b80156106ac5780601f10610681576101008083540402835291602001916106ac565b820191906000526020600020905b81548152906001019060200180831161068f57829003601f168201915b5050505050905090565b60006106c18261151f565b6004600083815260200190815260200160002060009054906101000a900473ffffffffffffffffffffffffffffffffffffffff169050919050565b600061070782610a86565b90508073ffffffffffffffffffffffffffffffffffffffff168373ffffffffffffffffffffffffffffffffffffffff1603610777576040517f08c379a000000000000000000000000000000000000000000000000000000000815260040161076e90613461565b60405180910390fd5b8073ffffffffffffffffffffffffffffffffffffffff1661079661156a565b73ffffffffffffffffffffffffffffffffffffffff1614806107c557506107c4816107bf61156a565b6111dd565b5b610804576040517f08c379a00000000000000000000000000000000000000000000000000000000081526004016107fb906134f3565b60405180910390fd5b61080e8383611572565b505050565b6000600960009054906101000a900473ffffffffffffffffffffffffffffffffffffffff16905090565b600e5461084a6007611511565b1061088a576040517f08c379a00000000000000000000000000000000000000000000000000000000081526004016108819061355f565b60405180910390fd5b6103e8836108966111cc565b6108a091906135ae565b11156108e1576040517f08c379a00000000000000000000000000000000000000000000000000000000081526004016108d890613654565b60405180910390fd5b60005b838110156109245761091082828151811061090257610901613674565b5b60200260200101518461162b565b50808061091c906136a3565b9150506108e4565b50505050565b61093b61093561156a565b8261175e565b61097a576040517f08c379a00000000000000000000000000000000000000000000000000000000081526004016109719061375d565b60405180910390fd5b6109858383836117f3565b505050565b6000806000600f600085815260200190815260200160002060000154600f600086815260200190815260200160002060010154600f600087815260200190815260200160002060020160009054906101000a900460ff169250925092509193909250565b6060600c805480602002602001604051908101604052809291908181526020018280548015610a3c57602002820191906000526020600020905b815481526020019060010190808311610a28575b5050505050905090565b610a6183838360405180602001604052806000815250611034565b505050565b6000600f6000838152602001908152602001600020600101549050919050565b600080610a9283611aec565b9050600073ffffffffffffffffffffffffffffffffffffffff168173ffffffffffffffffffffffffffffffffffffffff1603610b03576040517f08c379a0000000000000000000000000000000000000000000000000000000008152600401610afa906137c9565b60405180910390fd5b80915050919050565b6000600f6000858152602001908152602001600020600001549050826064606e83610b3791906137e9565b610b41919061385a565b82610b4c91906135ae565b11610b8c576040517f08c379a0000000000000000000000000000000000000000000000000000000008152600401610b83906138fd565b60405180910390fd5b3373ffffffffffffffffffffffffffffffffffffffff16600960009054906101000a900473ffffffffffffffffffffffffffffffffffffffff1673ffffffffffffffffffffffffffffffffffffffff1603610c1c576040517f08c379a0000000000000000000000000000000000000000000000000000000008152600401610c139061398f565b60405180910390fd5b82600f6000868152602001908152602001600020600101819055506001600f600086815260200190815260200160002060020160006101000a81548160ff021916908315150217905550610c6f84611b29565b610c9d57600c8490806001815401808255809150506001900390600052602060002001600090919091909150555b610ca782856106fc565b50505050565b60008073ffffffffffffffffffffffffffffffffffffffff168273ffffffffffffffffffffffffffffffffffffffff1603610d1d576040517f08c379a0000000000000000000000000000000000000000000000000000000008152600401610d1490613a21565b60405180910390fd5b600360008373ffffffffffffffffffffffffffffffffffffffff1673ffffffffffffffffffffffffffffffffffffffff168152602001908152602001600020549050919050565b6000600d54905090565b606060018054610d7d906133be565b80601f0160208091040260200160405190810160405280929190818152602001828054610da9906133be565b8015610df65780601f10610dcb57610100808354040283529160200191610df6565b820191906000526020600020905b815481529060010190602001808311610dd957829003601f168201915b5050505050905090565b610e12610e0b61156a565b8383611b8b565b5050565b610e206008611cf7565b6000610e2c6008611511565b9050610e3781610a86565b73ffffffffffffffffffffffffffffffffffffffff163373ffffffffffffffffffffffffffffffffffffffff1614610ea4576040517f08c379a0000000000000000000000000000000000000000000000000000000008152600401610e9b90613a8d565b60405180910390fd5b610eb7610eb082610a86565b848361092a565b610ec18183611d0d565b610eca83611d7a565b610f3257600b839080600181540180825580915050600190039060005260206000200160009091909190916101000a81548173ffffffffffffffffffffffffffffffffffffffff021916908373ffffffffffffffffffffffffffffffffffffffff1602179055505b601060008473ffffffffffffffffffffffffffffffffffffffff1673ffffffffffffffffffffffffffffffffffffffff168152602001908152602001600020819080600181540180825580915050600190039060005260206000200160009091909190915055505050565b6060601060008373ffffffffffffffffffffffffffffffffffffffff1673ffffffffffffffffffffffffffffffffffffffff16815260200190815260200160002080548060200260200160405190810160405280929190818152602001828054801561102857602002820191906000526020600020905b815481526020019060010190808311611014575b50505050509050919050565b61104561103f61156a565b8361175e565b611084576040517f08c379a000000000000000000000000000000000000000000000000000000000815260040161107b9061375d565b60405180910390fd5b61109084848484611e28565b50505050565b60606110a18261151f565b60006006600084815260200190815260200160002080546110c1906133be565b80601f01602080910402602001604051908101604052809291908181526020018280546110ed906133be565b801561113a5780601f1061110f5761010080835404028352916020019161113a565b820191906000526020600020905b81548152906001019060200180831161111d57829003601f168201915b50505050509050600061114b611e84565b905060008151036111605781925050506111a3565b60008251111561119557808260405160200161117d929190613ae9565b604051602081830303815290604052925050506111a3565b61119e84611e9b565b925050505b919050565b7f9f2df0fed2c77648de5860a4cc508cd0818c85b8b8a1ab4ceeef8d981c8956a681565b60006111d86007611511565b905090565b6000600560008473ffffffffffffffffffffffffffffffffffffffff1673ffffffffffffffffffffffffffffffffffffffff16815260200190815260200160002060008373ffffffffffffffffffffffffffffffffffffffff1673ffffffffffffffffffffffffffffffffffffffff16815260200190815260200160002060009054906101000a900460ff16905092915050565b816000600f60008381526020019081526020016000206000015490506000600f6000848152602001908152602001600020600101549050806064606e846112b891906137e9565b6112c2919061385a565b836112cd91906135ae565b1161130d576040517f08c379a0000000000000000000000000000000000000000000000000000000008152600401611304906138fd565b60405180910390fd5b600061131886610a86565b90506000600f600088815260200190815260200160002060010154905061134082898961092a565b61134a8787611d0d565b61135388611d7a565b6113bb57600b889080600181540180825580915050600190039060005260206000200160009091909190916101000a81548173ffffffffffffffffffffffffffffffffffffffff021916908373ffffffffffffffffffffffffffffffffffffffff1602179055505b601060008973ffffffffffffffffffffffffffffffffffffffff1673ffffffffffffffffffffffffffffffffffffffff16815260200190815260200160002087908060018154018082558091505060019003906000526020600020016000909190919091505561142b8288611f03565b6114348761212b565b60405180606001604052808281526020016000815260200160001515815250600f6000898152602001908152602001600020600082015181600001556020820151816001015560408201518160020160006101000a81548160ff0219169083151502179055509050505050505050505050565b60007f01ffc9a7000000000000000000000000000000000000000000000000000000007bffffffffffffffffffffffffffffffffffffffffffffffffffffffff1916827bffffffffffffffffffffffffffffffffffffffffffffffffffffffff1916149050919050565b600081600001549050919050565b61152881612221565b611567576040517f08c379a000000000000000000000000000000000000000000000000000000000815260040161155e906137c9565b60405180910390fd5b50565b600033905090565b816004600083815260200190815260200160002060006101000a81548173ffffffffffffffffffffffffffffffffffffffff021916908373ffffffffffffffffffffffffffffffffffffffff160217905550808273ffffffffffffffffffffffffffffffffffffffff166115e583610a86565b73ffffffffffffffffffffffffffffffffffffffff167f8c5be1e5ebec7d5bd14f71427d1e84f3dd0314c0f7b2291e5b200ac8c7c3b92560405160405180910390a45050565b60003373ffffffffffffffffffffffffffffffffffffffff16600960009054906101000a900473ffffffffffffffffffffffffffffffffffffffff1673ffffffffffffffffffffffffffffffffffffffff16146116bd576040517f08c379a00000000000000000000000000000000000000000000000000000000081526004016116b490613b7f565b60405180910390fd5b6116c76007611cf7565b60006116d36007611511565b90506116df8382612262565b6116e98185611d0d565b6040518060600160405280600d5481526020016000815260200160001515815250600f6000838152602001908152602001600020600082015181600001556020820151816001015560408201518160020160006101000a81548160ff0219169083151502179055509050508091505092915050565b60008061176a83610a86565b90508073ffffffffffffffffffffffffffffffffffffffff168473ffffffffffffffffffffffffffffffffffffffff1614806117ac57506117ab81856111dd565b5b806117ea57508373ffffffffffffffffffffffffffffffffffffffff166117d2846106b6565b73ffffffffffffffffffffffffffffffffffffffff16145b91505092915050565b8273ffffffffffffffffffffffffffffffffffffffff1661181382610a86565b73ffffffffffffffffffffffffffffffffffffffff1614611869576040517f08c379a000000000000000000000000000000000000000000000000000000000815260040161186090613c11565b60405180910390fd5b600073ffffffffffffffffffffffffffffffffffffffff168273ffffffffffffffffffffffffffffffffffffffff16036118d8576040517f08c379a00000000000000000000000000000000000000000000000000000000081526004016118cf90613ca3565b60405180910390fd5b6118e5838383600161247f565b8273ffffffffffffffffffffffffffffffffffffffff1661190582610a86565b73ffffffffffffffffffffffffffffffffffffffff161461195b576040517f08c379a000000000000000000000000000000000000000000000000000000000815260040161195290613c11565b60405180910390fd5b6004600082815260200190815260200160002060006101000a81549073ffffffffffffffffffffffffffffffffffffffff02191690556001600360008573ffffffffffffffffffffffffffffffffffffffff1673ffffffffffffffffffffffffffffffffffffffff168152602001908152602001600020600082825403925050819055506001600360008473ffffffffffffffffffffffffffffffffffffffff1673ffffffffffffffffffffffffffffffffffffffff16815260200190815260200160002060008282540192505081905550816002600083815260200190815260200160002060006101000a81548173ffffffffffffffffffffffffffffffffffffffff021916908373ffffffffffffffffffffffffffffffffffffffff160217905550808273ffffffffffffffffffffffffffffffffffffffff168473ffffffffffffffffffffffffffffffffffffffff167fddf252ad1be2c89b69c2b068fc378daa952ba7f163c4a11628f55a4df523b3ef60405160405180910390a4611ae783838360016125a5565b505050565b60006002600083815260200190815260200160002060009054906101000a900473ffffffffffffffffffffffffffffffffffffffff169050919050565b600080600090505b600c80549050811015611b805782600c8281548110611b5357611b52613674565b5b906000526020600020015403611b6d576001915050611b86565b8080611b78906136a3565b915050611b31565b50600090505b919050565b8173ffffffffffffffffffffffffffffffffffffffff168373ffffffffffffffffffffffffffffffffffffffff1603611bf9576040517f08c379a0000000000000000000000000000000000000000000000000000000008152600401611bf090613d0f565b60405180910390fd5b80600560008573ffffffffffffffffffffffffffffffffffffffff1673ffffffffffffffffffffffffffffffffffffffff16815260200190815260200160002060008473ffffffffffffffffffffffffffffffffffffffff1673ffffffffffffffffffffffffffffffffffffffff16815260200190815260200160002060006101000a81548160ff0219169083151502179055508173ffffffffffffffffffffffffffffffffffffffff168373ffffffffffffffffffffffffffffffffffffffff167f17307eab39ab6107e8899845ad3d59bd9653f200f220920489ca2b5937696c3183604051611cea9190612a2a565b60405180910390a3505050565b6001816000016000828254019250508190555050565b611d1682612221565b611d55576040517f08c379a0000000000000000000000000000000000000000000000000000000008152600401611d4c90613da1565b60405180910390fd5b80600660008481526020019081526020016000209081611d759190613f6d565b505050565b600080600090505b600b80549050811015611e1d578273ffffffffffffffffffffffffffffffffffffffff16600b8281548110611dba57611db9613674565b5b9060005260206000200160009054906101000a900473ffffffffffffffffffffffffffffffffffffffff1673ffffffffffffffffffffffffffffffffffffffff1603611e0a576001915050611e23565b8080611e15906136a3565b915050611d82565b50600090505b919050565b611e338484846117f3565b611e3f848484846125ab565b611e7e576040517f08c379a0000000000000000000000000000000000000000000000000000000008152600401611e75906140b1565b60405180910390fd5b50505050565b606060405180602001604052806000815250905090565b6060611ea68261151f565b6000611eb0611e84565b90506000815111611ed05760405180602001604052806000815250611efb565b80611eda84612732565b604051602001611eeb929190613ae9565b6040516020818303038152906040525b915050919050565b6000601060008473ffffffffffffffffffffffffffffffffffffffff1673ffffffffffffffffffffffffffffffffffffffff16815260200190815260200160002080549050905060005b818110156121255782601060008673ffffffffffffffffffffffffffffffffffffffff1673ffffffffffffffffffffffffffffffffffffffff1681526020019081526020016000208281548110611fa757611fa6613674565b5b906000526020600020015403612112576000600182611fc691906135ae565b90505b828110156120ab57601060008673ffffffffffffffffffffffffffffffffffffffff1673ffffffffffffffffffffffffffffffffffffffff168152602001908152602001600020818154811061202257612021613674565b5b9060005260206000200154601060008773ffffffffffffffffffffffffffffffffffffffff1673ffffffffffffffffffffffffffffffffffffffff16815260200190815260200160002060018361207991906140d1565b8154811061208a57612089613674565b5b906000526020600020018190555080806120a3906136a3565b915050611fc9565b50601060008573ffffffffffffffffffffffffffffffffffffffff1673ffffffffffffffffffffffffffffffffffffffff1681526020019081526020016000208054806120fb576120fa614105565b5b600190038181906000526020600020016000905590555b808061211d906136a3565b915050611f4d565b50505050565b6000600c80549050905060005b8181101561221c5782600c828154811061215557612154613674565b5b90600052602060002001540361220957600060018261217491906135ae565b90505b828110156121df57600c818154811061219357612192613674565b5b9060005260206000200154600c6001836121ad91906140d1565b815481106121be576121bd613674565b5b906000526020600020018190555080806121d7906136a3565b915050612177565b50600c8054806121f2576121f1614105565b5b600190038181906000526020600020016000905590555b8080612214906136a3565b915050612138565b505050565b60008073ffffffffffffffffffffffffffffffffffffffff1661224383611aec565b73ffffffffffffffffffffffffffffffffffffffff1614159050919050565b600073ffffffffffffffffffffffffffffffffffffffff168273ffffffffffffffffffffffffffffffffffffffff16036122d1576040517f08c379a00000000000000000000000000000000000000000000000000000000081526004016122c890614180565b60405180910390fd5b6122da81612221565b1561231a576040517f08c379a0000000000000000000000000000000000000000000000000000000008152600401612311906141ec565b60405180910390fd5b61232860008383600161247f565b61233181612221565b15612371576040517f08c379a0000000000000000000000000000000000000000000000000000000008152600401612368906141ec565b60405180910390fd5b6001600360008473ffffffffffffffffffffffffffffffffffffffff1673ffffffffffffffffffffffffffffffffffffffff16815260200190815260200160002060008282540192505081905550816002600083815260200190815260200160002060006101000a81548173ffffffffffffffffffffffffffffffffffffffff021916908373ffffffffffffffffffffffffffffffffffffffff160217905550808273ffffffffffffffffffffffffffffffffffffffff16600073ffffffffffffffffffffffffffffffffffffffff167fddf252ad1be2c89b69c2b068fc378daa952ba7f163c4a11628f55a4df523b3ef60405160405180910390a461247b6000838360016125a5565b5050565b600181111561259f57600073ffffffffffffffffffffffffffffffffffffffff168473ffffffffffffffffffffffffffffffffffffffff16146125135780600360008673ffffffffffffffffffffffffffffffffffffffff1673ffffffffffffffffffffffffffffffffffffffff168152602001908152602001600020600082825461250b91906140d1565b925050819055505b600073ffffffffffffffffffffffffffffffffffffffff168373ffffffffffffffffffffffffffffffffffffffff161461259e5780600360008573ffffffffffffffffffffffffffffffffffffffff1673ffffffffffffffffffffffffffffffffffffffff168152602001908152602001600020600082825461259691906135ae565b925050819055505b5b50505050565b50505050565b60006125cc8473ffffffffffffffffffffffffffffffffffffffff16612800565b15612725578373ffffffffffffffffffffffffffffffffffffffff1663150b7a026125f561156a565b8786866040518563ffffffff1660e01b81526004016126179493929190614261565b6020604051808303816000875af192505050801561265357506040513d601f19601f8201168201806040525081019061265091906142c2565b60015b6126d5573d8060008114612683576040519150601f19603f3d011682016040523d82523d6000602084013e612688565b606091505b5060008151036126cd576040517f08c379a00000000000000000000000000000000000000000000000000000000081526004016126c4906140b1565b60405180910390fd5b805181602001fd5b63150b7a0260e01b7bffffffffffffffffffffffffffffffffffffffffffffffffffffffff1916817bffffffffffffffffffffffffffffffffffffffffffffffffffffffff19161491505061272a565b600190505b949350505050565b60606000600161274184612823565b01905060008167ffffffffffffffff8111156127605761275f612c51565b5b6040519080825280601f01601f1916602001820160405280156127925781602001600182028036833780820191505090505b509050600082602001820190505b6001156127f5578080600190039150507f3031323334353637383961626364656600000000000000000000000000000000600a86061a8153600a85816127e9576127e861382b565b5b049450600085036127a0575b819350505050919050565b6000808273ffffffffffffffffffffffffffffffffffffffff163b119050919050565b600080600090507a184f03e93ff9f4daa797ed6e38ed64bf6a1f0100000000000000008310612881577a184f03e93ff9f4daa797ed6e38ed64bf6a1f01000000000000000083816128775761287661382b565b5b0492506040810190505b6d04ee2d6d415b85acef810000000083106128be576d04ee2d6d415b85acef810000000083816128b4576128b361382b565b5b0492506020810190505b662386f26fc1000083106128ed57662386f26fc1000083816128e3576128e261382b565b5b0492506010810190505b6305f5e1008310612916576305f5e100838161290c5761290b61382b565b5b0492506008810190505b612710831061293b5761271083816129315761293061382b565b5b0492506004810190505b6064831061295e57606483816129545761295361382b565b5b0492506002810190505b600a831061296d576001810190505b80915050919050565b6000604051905090565b600080fd5b600080fd5b60007fffffffff0000000000000000000000000000000000000000000000000000000082169050919050565b6129bf8161298a565b81146129ca57600080fd5b50565b6000813590506129dc816129b6565b92915050565b6000602082840312156129f8576129f7612980565b5b6000612a06848285016129cd565b91505092915050565b60008115159050919050565b612a2481612a0f565b82525050565b6000602082019050612a3f6000830184612a1b565b92915050565b6000819050919050565b612a5881612a45565b82525050565b6000602082019050612a736000830184612a4f565b92915050565b600081519050919050565b600082825260208201905092915050565b60005b83811015612ab3578082015181840152602081019050612a98565b60008484015250505050565b6000601f19601f8301169050919050565b6000612adb82612a79565b612ae58185612a84565b9350612af5818560208601612a95565b612afe81612abf565b840191505092915050565b60006020820190508181036000830152612b238184612ad0565b905092915050565b612b3481612a45565b8114612b3f57600080fd5b50565b600081359050612b5181612b2b565b92915050565b600060208284031215612b6d57612b6c612980565b5b6000612b7b84828501612b42565b91505092915050565b600073ffffffffffffffffffffffffffffffffffffffff82169050919050565b6000612baf82612b84565b9050919050565b612bbf81612ba4565b82525050565b6000602082019050612bda6000830184612bb6565b92915050565b612be981612ba4565b8114612bf457600080fd5b50565b600081359050612c0681612be0565b92915050565b60008060408385031215612c2357612c22612980565b5b6000612c3185828601612bf7565b9250506020612c4285828601612b42565b9150509250929050565b600080fd5b7f4e487b7100000000000000000000000000000000000000000000000000000000600052604160045260246000fd5b612c8982612abf565b810181811067ffffffffffffffff82111715612ca857612ca7612c51565b5b80604052505050565b6000612cbb612976565b9050612cc78282612c80565b919050565b600067ffffffffffffffff821115612ce757612ce6612c51565b5b602082029050602081019050919050565b600080fd5b600080fd5b600067ffffffffffffffff821115612d1d57612d1c612c51565b5b612d2682612abf565b9050602081019050919050565b82818337600083830152505050565b6000612d55612d5084612d02565b612cb1565b905082815260208101848484011115612d7157612d70612cfd565b5b612d7c848285612d33565b509392505050565b600082601f830112612d9957612d98612c4c565b5b8135612da9848260208601612d42565b91505092915050565b6000612dc5612dc084612ccc565b612cb1565b90508083825260208201905060208402830185811115612de857612de7612cf8565b5b835b81811015612e2f57803567ffffffffffffffff811115612e0d57612e0c612c4c565b5b808601612e1a8982612d84565b85526020850194505050602081019050612dea565b5050509392505050565b600082601f830112612e4e57612e4d612c4c565b5b8135612e5e848260208601612db2565b91505092915050565b600080600060608486031215612e8057612e7f612980565b5b6000612e8e86828701612b42565b9350506020612e9f86828701612bf7565b925050604084013567ffffffffffffffff811115612ec057612ebf612985565b5b612ecc86828701612e39565b9150509250925092565b600080600060608486031215612eef57612eee612980565b5b6000612efd86828701612bf7565b9350506020612f0e86828701612bf7565b9250506040612f1f86828701612b42565b9150509250925092565b6000606082019050612f3e6000830186612a4f565b612f4b6020830185612a4f565b612f586040830184612a1b565b949350505050565b600081519050919050565b600082825260208201905092915050565b6000819050602082019050919050565b612f9581612a45565b82525050565b6000612fa78383612f8c565b60208301905092915050565b6000602082019050919050565b6000612fcb82612f60565b612fd58185612f6b565b9350612fe083612f7c565b8060005b83811015613011578151612ff88882612f9b565b975061300383612fb3565b925050600181019050612fe4565b5085935050505092915050565b600060208201905081810360008301526130388184612fc0565b905092915050565b60008060006060848603121561305957613058612980565b5b600061306786828701612b42565b935050602061307886828701612b42565b925050604061308986828701612bf7565b9150509250925092565b6000602082840312156130a9576130a8612980565b5b60006130b784828501612bf7565b91505092915050565b6130c981612a0f565b81146130d457600080fd5b50565b6000813590506130e6816130c0565b92915050565b6000806040838503121561310357613102612980565b5b600061311185828601612bf7565b9250506020613122858286016130d7565b9150509250929050565b6000806040838503121561314357613142612980565b5b600061315185828601612bf7565b925050602083013567ffffffffffffffff81111561317257613171612985565b5b61317e85828601612d84565b9150509250929050565b600067ffffffffffffffff8211156131a3576131a2612c51565b5b6131ac82612abf565b9050602081019050919050565b60006131cc6131c784613188565b612cb1565b9050828152602081018484840111156131e8576131e7612cfd565b5b6131f3848285612d33565b509392505050565b600082601f8301126132105761320f612c4c565b5b81356132208482602086016131b9565b91505092915050565b6000806000806080858703121561324357613242612980565b5b600061325187828801612bf7565b945050602061326287828801612bf7565b935050604061327387828801612b42565b925050606085013567ffffffffffffffff81111561329457613293612985565b5b6132a0878288016131fb565b91505092959194509250565b6000819050919050565b6132bf816132ac565b82525050565b60006020820190506132da60008301846132b6565b92915050565b600080604083850312156132f7576132f6612980565b5b600061330585828601612bf7565b925050602061331685828601612bf7565b9150509250929050565b60008060006060848603121561333957613338612980565b5b600061334786828701612bf7565b935050602061335886828701612b42565b925050604084013567ffffffffffffffff81111561337957613378612985565b5b61338586828701612d84565b9150509250925092565b7f4e487b7100000000000000000000000000000000000000000000000000000000600052602260045260246000fd5b600060028204905060018216806133d657607f821691505b6020821081036133e9576133e861338f565b5b50919050565b7f4552433732313a20617070726f76616c20746f2063757272656e74206f776e6560008201527f7200000000000000000000000000000000000000000000000000000000000000602082015250565b600061344b602183612a84565b9150613456826133ef565b604082019050919050565b6000602082019050818103600083015261347a8161343e565b9050919050565b7f4552433732313a20617070726f76652063616c6c6572206973206e6f7420746f60008201527f6b656e206f776e6572206f7220617070726f76656420666f7220616c6c000000602082015250565b60006134dd603d83612a84565b91506134e882613481565b604082019050919050565b6000602082019050818103600083015261350c816134d0565b9050919050565b7f4d6178696d756d207469636b6574206c696d6974206578636565646564210000600082015250565b6000613549601e83612a84565b915061355482613513565b602082019050919050565b600060208201905081810360008301526135788161353c565b9050919050565b7f4e487b7100000000000000000000000000000000000000000000000000000000600052601160045260246000fd5b60006135b982612a45565b91506135c483612a45565b92508282019050808211156135dc576135db61357f565b5b92915050565b7f4e756d626572206f66207469636b6574732065786365656473206d6178696d7560008201527f6d207469636b657420636f756e74000000000000000000000000000000000000602082015250565b600061363e602e83612a84565b9150613649826135e2565b604082019050919050565b6000602082019050818103600083015261366d81613631565b9050919050565b7f4e487b7100000000000000000000000000000000000000000000000000000000600052603260045260246000fd5b60006136ae82612a45565b91507fffffffffffffffffffffffffffffffffffffffffffffffffffffffffffffffff82036136e0576136df61357f565b5b600182019050919050565b7f4552433732313a2063616c6c6572206973206e6f7420746f6b656e206f776e6560008201527f72206f7220617070726f76656400000000000000000000000000000000000000602082015250565b6000613747602d83612a84565b9150613752826136eb565b604082019050919050565b600060208201905081810360008301526137768161373a565b9050919050565b7f4552433732313a20696e76616c696420746f6b656e2049440000000000000000600082015250565b60006137b3601883612a84565b91506137be8261377d565b602082019050919050565b600060208201905081810360008301526137e2816137a6565b9050919050565b60006137f482612a45565b91506137ff83612a45565b925082820261380d81612a45565b915082820484148315176138245761382361357f565b5b5092915050565b7f4e487b7100000000000000000000000000000000000000000000000000000000600052601260045260246000fd5b600061386582612a45565b915061387083612a45565b9250826138805761387f61382b565b5b828204905092915050565b7f52652d73656c6c696e67207072696365206973206d6f7265207468616e20313160008201527f3025000000000000000000000000000000000000000000000000000000000000602082015250565b60006138e7602283612a84565b91506138f28261388b565b604082019050919050565b60006020820190508181036000830152613916816138da565b9050919050565b7f46756e6374696f6e616c697479206f6e6c7920616c6c6f77656420666f72207360008201527f65636f6e64617279206d61726b65740000000000000000000000000000000000602082015250565b6000613979602f83612a84565b91506139848261391d565b604082019050919050565b600060208201905081810360008301526139a88161396c565b9050919050565b7f4552433732313a2061646472657373207a65726f206973206e6f74206120766160008201527f6c6964206f776e65720000000000000000000000000000000000000000000000602082015250565b6000613a0b602983612a84565b9150613a16826139af565b604082019050919050565b60006020820190508181036000830152613a3a816139fe565b9050919050565b7f4f6e6c7920696e697469616c20707572636861736520616c6c6f776564000000600082015250565b6000613a77601d83612a84565b9150613a8282613a41565b602082019050919050565b60006020820190508181036000830152613aa681613a6a565b9050919050565b600081905092915050565b6000613ac382612a79565b613acd8185613aad565b9350613add818560208601612a95565b80840191505092915050565b6000613af58285613ab8565b9150613b018284613ab8565b91508190509392505050565b7f55736572206d7573742068617665206d696e74657220726f6c6520746f206d6960008201527f6e74000000000000000000000000000000000000000000000000000000000000602082015250565b6000613b69602283612a84565b9150613b7482613b0d565b604082019050919050565b60006020820190508181036000830152613b9881613b5c565b9050919050565b7f4552433732313a207472616e736665722066726f6d20696e636f72726563742060008201527f6f776e6572000000000000000000000000000000000000000000000000000000602082015250565b6000613bfb602583612a84565b9150613c0682613b9f565b604082019050919050565b60006020820190508181036000830152613c2a81613bee565b9050919050565b7f4552433732313a207472616e7366657220746f20746865207a65726f2061646460008201527f7265737300000000000000000000000000000000000000000000000000000000602082015250565b6000613c8d602483612a84565b9150613c9882613c31565b604082019050919050565b60006020820190508181036000830152613cbc81613c80565b9050919050565b7f4552433732313a20617070726f766520746f2063616c6c657200000000000000600082015250565b6000613cf9601983612a84565b9150613d0482613cc3565b602082019050919050565b60006020820190508181036000830152613d2881613cec565b9050919050565b7f45524337323155524953746f726167653a2055524920736574206f66206e6f6e60008201527f6578697374656e7420746f6b656e000000000000000000000000000000000000602082015250565b6000613d8b602e83612a84565b9150613d9682613d2f565b604082019050919050565b60006020820190508181036000830152613dba81613d7e565b9050919050565b60008190508160005260206000209050919050565b60006020601f8301049050919050565b600082821b905092915050565b600060088302613e237fffffffffffffffffffffffffffffffffffffffffffffffffffffffffffffffff82613de6565b613e2d8683613de6565b95508019841693508086168417925050509392505050565b6000819050919050565b6000613e6a613e65613e6084612a45565b613e45565b612a45565b9050919050565b6000819050919050565b613e8483613e4f565b613e98613e9082613e71565b848454613df3565b825550505050565b600090565b613ead613ea0565b613eb8818484613e7b565b505050565b5b81811015613edc57613ed1600082613ea5565b600181019050613ebe565b5050565b601f821115613f2157613ef281613dc1565b613efb84613dd6565b81016020851015613f0a578190505b613f1e613f1685613dd6565b830182613ebd565b50505b505050565b600082821c905092915050565b6000613f4460001984600802613f26565b1980831691505092915050565b6000613f5d8383613f33565b9150826002028217905092915050565b613f7682612a79565b67ffffffffffffffff811115613f8f57613f8e612c51565b5b613f9982546133be565b613fa4828285613ee0565b600060209050601f831160018114613fd75760008415613fc5578287015190505b613fcf8582613f51565b865550614037565b601f198416613fe586613dc1565b60005b8281101561400d57848901518255600182019150602085019450602081019050613fe8565b8683101561402a5784890151614026601f891682613f33565b8355505b6001600288020188555050505b505050505050565b7f4552433732313a207472616e7366657220746f206e6f6e20455243373231526560008201527f63656976657220696d706c656d656e7465720000000000000000000000000000602082015250565b600061409b603283612a84565b91506140a68261403f565b604082019050919050565b600060208201905081810360008301526140ca8161408e565b9050919050565b60006140dc82612a45565b91506140e783612a45565b92508282039050818111156140ff576140fe61357f565b5b92915050565b7f4e487b7100000000000000000000000000000000000000000000000000000000600052603160045260246000fd5b7f4552433732313a206d696e7420746f20746865207a65726f2061646472657373600082015250565b600061416a602083612a84565b915061417582614134565b602082019050919050565b600060208201905081810360008301526141998161415d565b9050919050565b7f4552433732313a20746f6b656e20616c7265616479206d696e74656400000000600082015250565b60006141d6601c83612a84565b91506141e1826141a0565b602082019050919050565b60006020820190508181036000830152614205816141c9565b9050919050565b600081519050919050565b600082825260208201905092915050565b60006142338261420c565b61423d8185614217565b935061424d818560208601612a95565b61425681612abf565b840191505092915050565b60006080820190506142766000830187612bb6565b6142836020830186612bb6565b6142906040830185612a4f565b81810360608301526142a28184614228565b905095945050505050565b6000815190506142bc816129b6565b92915050565b6000602082840312156142d8576142d7612980565b5b60006142e6848285016142ad565b9150509291505056fea26469706673582212209e420b8a5c1a94f09a908aee79134caca2912b463ad50acffb915115cbdde3fc64736f6c63430008110033",
  "linkReferences": {},
  "deployedLinkReferences": {}
}