{
  "_format": "hh-sol-artifact-1",
  "contractName": "EventNFT",
  "sourceName": "contracts/NFTTicket.sol",
  "abi": [
    {
      "inputs": [
        {
          "internalType": "string",
          "name": "eventName",
          "type": "string"
        },
        {
          "internalType": "string",
          "name": "eventSymbol",
          "type": "string"
        },
        {
          "internalType": "string",
          "name": "imageHash",
          "type": "string"
        },
        {
          "internalType": "string",
          "name": "description",
          "type": "string"
        },
        {
          "internalType": "uint256",
          "name": "ticketPrice",
          "type": "uint256"
        },
        {
          "internalType": "uint256",
          "name": "totalSupply",
          "type": "uint256"
        },
        {
          "internalType": "address",
          "name": "organiser",
          "type": "address"
        }
      ],
      "stateMutability": "nonpayable",
      "type": "constructor"
    },
    {
      "anonymous": false,
      "inputs": [
        {
          "indexed": true,
          "internalType": "address",
          "name": "owner",
          "type": "address"
        },
        {
          "indexed": true,
          "internalType": "address",
          "name": "approved",
          "type": "address"
        },
        {
          "indexed": true,
          "internalType": "uint256",
          "name": "tokenId",
          "type": "uint256"
        }
      ],
      "name": "Approval",
      "type": "event"
    },
    {
      "anonymous": false,
      "inputs": [
        {
          "indexed": true,
          "internalType": "address",
          "name": "owner",
          "type": "address"
        },
        {
          "indexed": true,
          "internalType": "address",
          "name": "operator",
          "type": "address"
        },
        {
          "indexed": false,
          "internalType": "bool",
          "name": "approved",
          "type": "bool"
        }
      ],
      "name": "ApprovalForAll",
      "type": "event"
    },
    {
      "anonymous": false,
      "inputs": [
        {
          "indexed": true,
          "internalType": "address",
          "name": "from",
          "type": "address"
        },
        {
          "indexed": true,
          "internalType": "address",
          "name": "to",
          "type": "address"
        },
        {
          "indexed": true,
          "internalType": "uint256",
          "name": "tokenId",
          "type": "uint256"
        }
      ],
      "name": "Transfer",
      "type": "event"
    },
    {
      "inputs": [],
      "name": "MINTER_ROLE",
      "outputs": [
        {
          "internalType": "bytes32",
          "name": "",
          "type": "bytes32"
        }
      ],
      "stateMutability": "view",
      "type": "function"
    },
    {
      "inputs": [
        {
          "internalType": "address",
          "name": "to",
          "type": "address"
        },
        {
          "internalType": "uint256",
          "name": "tokenId",
          "type": "uint256"
        }
      ],
      "name": "approve",
      "outputs": [],
      "stateMutability": "nonpayable",
      "type": "function"
    },
    {
      "inputs": [
        {
          "internalType": "address",
          "name": "owner",
          "type": "address"
        }
      ],
      "name": "balanceOf",
      "outputs": [
        {
          "internalType": "uint256",
          "name": "",
          "type": "uint256"
        }
      ],
      "stateMutability": "view",
      "type": "function"
    },
    {
      "inputs": [
        {
          "internalType": "uint256",
          "name": "numOfTickets",
          "type": "uint256"
        },
        {
          "internalType": "address",
          "name": "operator",
          "type": "address"
        }
      ],
      "name": "bulkMintTickets",
      "outputs": [],
      "stateMutability": "nonpayable",
      "type": "function"
    },
    {
      "inputs": [],
      "name": "getAllCustomers",
      "outputs": [
        {
          "internalType": "address[]",
          "name": "",
          "type": "address[]"
        }
      ],
      "stateMutability": "view",
      "type": "function"
    },
    {
      "inputs": [
        {
          "internalType": "uint256",
          "name": "tokenId",
          "type": "uint256"
        }
      ],
      "name": "getApproved",
      "outputs": [
        {
          "internalType": "address",
          "name": "",
          "type": "address"
        }
      ],
      "stateMutability": "view",
      "type": "function"
    },
    {
      "inputs": [],
      "name": "getNextSaleTicketId",
      "outputs": [
        {
          "internalType": "uint256",
          "name": "",
          "type": "uint256"
        }
      ],
      "stateMutability": "view",
      "type": "function"
    },
    {
      "inputs": [],
      "name": "getOrganiser",
      "outputs": [
        {
          "internalType": "address",
          "name": "",
          "type": "address"
        }
      ],
      "stateMutability": "view",
      "type": "function"
    },
    {
      "inputs": [
        {
          "internalType": "uint256",
          "name": "ticketId",
          "type": "uint256"
        }
      ],
      "name": "getSellingPrice",
      "outputs": [
        {
          "internalType": "uint256",
          "name": "",
          "type": "uint256"
        }
      ],
      "stateMutability": "view",
      "type": "function"
    },
    {
      "inputs": [
        {
          "internalType": "uint256",
          "name": "ticketId",
          "type": "uint256"
        }
      ],
      "name": "getTicketDetails",
      "outputs": [
        {
          "internalType": "uint256",
          "name": "purchasePrice",
          "type": "uint256"
        },
        {
          "internalType": "uint256",
          "name": "sellingPrice",
          "type": "uint256"
        },
        {
          "internalType": "bool",
          "name": "forSale",
          "type": "bool"
        }
      ],
      "stateMutability": "view",
      "type": "function"
    },
    {
      "inputs": [],
      "name": "getTicketPrice",
      "outputs": [
        {
          "internalType": "uint256",
          "name": "",
          "type": "uint256"
        }
      ],
      "stateMutability": "view",
      "type": "function"
    },
    {
      "inputs": [],
      "name": "getTicketsForSale",
      "outputs": [
        {
          "internalType": "uint256[]",
          "name": "",
          "type": "uint256[]"
        }
      ],
      "stateMutability": "view",
      "type": "function"
    },
    {
      "inputs": [
        {
          "internalType": "address",
          "name": "customer",
          "type": "address"
        }
      ],
      "name": "getTicketsOfCustomer",
      "outputs": [
        {
          "internalType": "uint256[]",
          "name": "",
          "type": "uint256[]"
        }
      ],
      "stateMutability": "view",
      "type": "function"
    },
    {
      "inputs": [
        {
          "internalType": "address",
          "name": "owner",
          "type": "address"
        },
        {
          "internalType": "address",
          "name": "operator",
          "type": "address"
        }
      ],
      "name": "isApprovedForAll",
      "outputs": [
        {
          "internalType": "bool",
          "name": "",
          "type": "bool"
        }
      ],
      "stateMutability": "view",
      "type": "function"
    },
    {
      "inputs": [],
      "name": "name",
      "outputs": [
        {
          "internalType": "string",
          "name": "",
          "type": "string"
        }
      ],
      "stateMutability": "view",
      "type": "function"
    },
    {
      "inputs": [
        {
          "internalType": "uint256",
          "name": "tokenId",
          "type": "uint256"
        }
      ],
      "name": "ownerOf",
      "outputs": [
        {
          "internalType": "address",
          "name": "",
          "type": "address"
        }
      ],
      "stateMutability": "view",
      "type": "function"
    },
    {
      "inputs": [
        {
          "internalType": "address",
          "name": "from",
          "type": "address"
        },
        {
          "internalType": "address",
          "name": "to",
          "type": "address"
        },
        {
          "internalType": "uint256",
          "name": "tokenId",
          "type": "uint256"
        }
      ],
      "name": "safeTransferFrom",
      "outputs": [],
      "stateMutability": "nonpayable",
      "type": "function"
    },
    {
      "inputs": [
        {
          "internalType": "address",
          "name": "from",
          "type": "address"
        },
        {
          "internalType": "address",
          "name": "to",
          "type": "address"
        },
        {
          "internalType": "uint256",
          "name": "tokenId",
          "type": "uint256"
        },
        {
          "internalType": "bytes",
          "name": "data",
          "type": "bytes"
        }
      ],
      "name": "safeTransferFrom",
      "outputs": [],
      "stateMutability": "nonpayable",
      "type": "function"
    },
    {
      "inputs": [
        {
          "internalType": "address",
          "name": "buyer",
          "type": "address"
        },
        {
          "internalType": "uint256",
          "name": "saleTicketId",
          "type": "uint256"
        },
        {
          "internalType": "string",
          "name": "tokenURI",
          "type": "string"
        }
      ],
      "name": "secondaryTransferTicket",
      "outputs": [],
      "stateMutability": "nonpayable",
      "type": "function"
    },
    {
      "inputs": [
        {
          "internalType": "address",
          "name": "operator",
          "type": "address"
        },
        {
          "internalType": "bool",
          "name": "approved",
          "type": "bool"
        }
      ],
      "name": "setApprovalForAll",
      "outputs": [],
      "stateMutability": "nonpayable",
      "type": "function"
    },
    {
      "inputs": [
        {
          "internalType": "uint256",
          "name": "ticketId",
          "type": "uint256"
        },
        {
          "internalType": "address",
          "name": "operator",
          "type": "address"
        }
      ],
      "name": "setSaleDetails",
      "outputs": [],
      "stateMutability": "nonpayable",
      "type": "function"
    },
    {
      "inputs": [
        {
          "internalType": "bytes4",
          "name": "interfaceId",
          "type": "bytes4"
        }
      ],
      "name": "supportsInterface",
      "outputs": [
        {
          "internalType": "bool",
          "name": "",
          "type": "bool"
        }
      ],
      "stateMutability": "view",
      "type": "function"
    },
    {
      "inputs": [],
      "name": "symbol",
      "outputs": [
        {
          "internalType": "string",
          "name": "",
          "type": "string"
        }
      ],
      "stateMutability": "view",
      "type": "function"
    },
    {
      "inputs": [],
      "name": "ticketCounts",
      "outputs": [
        {
          "internalType": "uint256",
          "name": "",
          "type": "uint256"
        }
      ],
      "stateMutability": "view",
      "type": "function"
    },
    {
      "inputs": [
        {
          "internalType": "uint256",
          "name": "tokenId",
          "type": "uint256"
        }
      ],
      "name": "tokenURI",
      "outputs": [
        {
          "internalType": "string",
          "name": "",
          "type": "string"
        }
      ],
      "stateMutability": "view",
      "type": "function"
    },
    {
      "inputs": [
        {
          "internalType": "address",
          "name": "from",
          "type": "address"
        },
        {
          "internalType": "address",
          "name": "to",
          "type": "address"
        },
        {
          "internalType": "uint256",
          "name": "tokenId",
          "type": "uint256"
        }
      ],
      "name": "transferFrom",
      "outputs": [],
      "stateMutability": "nonpayable",
      "type": "function"
    },
    {
      "inputs": [
        {
          "internalType": "address",
          "name": "buyer",
          "type": "address"
        },
        {
          "internalType": "string",
          "name": "tokenURI",
          "type": "string"
        }
      ],
      "name": "transferTicket",
      "outputs": [],
      "stateMutability": "nonpayable",
      "type": "function"
    }
  ],
  "bytecode": "0x60806040523480156200001157600080fd5b5060405162004a5038038062004a50833981810160405281019062000037919062000312565b868681600090816200004a919062000682565b5080600190816200005c919062000682565b50505082600d8190555081600e8190555080600960006101000a81548173ffffffffffffffffffffffffffffffffffffffff021916908373ffffffffffffffffffffffffffffffffffffffff16021790555084600a9081620000bf919062000682565b5083600f9081620000d1919062000682565b505050505050505062000769565b6000604051905090565b600080fd5b600080fd5b600080fd5b600080fd5b6000601f19601f8301169050919050565b7f4e487b7100000000000000000000000000000000000000000000000000000000600052604160045260246000fd5b6200014882620000fd565b810181811067ffffffffffffffff821117156200016a57620001696200010e565b5b80604052505050565b60006200017f620000df565b90506200018d82826200013d565b919050565b600067ffffffffffffffff821115620001b057620001af6200010e565b5b620001bb82620000fd565b9050602081019050919050565b60005b83811015620001e8578082015181840152602081019050620001cb565b60008484015250505050565b60006200020b620002058462000192565b62000173565b9050828152602081018484840111156200022a5762000229620000f8565b5b62000237848285620001c8565b509392505050565b600082601f830112620002575762000256620000f3565b5b815162000269848260208601620001f4565b91505092915050565b6000819050919050565b620002878162000272565b81146200029357600080fd5b50565b600081519050620002a7816200027c565b92915050565b600073ffffffffffffffffffffffffffffffffffffffff82169050919050565b6000620002da82620002ad565b9050919050565b620002ec81620002cd565b8114620002f857600080fd5b50565b6000815190506200030c81620002e1565b92915050565b600080600080600080600060e0888a031215620003345762000333620000e9565b5b600088015167ffffffffffffffff811115620003555762000354620000ee565b5b620003638a828b016200023f565b975050602088015167ffffffffffffffff811115620003875762000386620000ee565b5b620003958a828b016200023f565b965050604088015167ffffffffffffffff811115620003b957620003b8620000ee565b5b620003c78a828b016200023f565b955050606088015167ffffffffffffffff811115620003eb57620003ea620000ee565b5b620003f98a828b016200023f565b94505060806200040c8a828b0162000296565b93505060a06200041f8a828b0162000296565b92505060c0620004328a828b01620002fb565b91505092959891949750929550565b600081519050919050565b7f4e487b7100000000000000000000000000000000000000000000000000000000600052602260045260246000fd5b600060028204905060018216806200049457607f821691505b602082108103620004aa57620004a96200044c565b5b50919050565b60008190508160005260206000209050919050565b60006020601f8301049050919050565b600082821b905092915050565b600060088302620005147fffffffffffffffffffffffffffffffffffffffffffffffffffffffffffffffff82620004d5565b620005208683620004d5565b95508019841693508086168417925050509392505050565b6000819050919050565b6000620005636200055d620005578462000272565b62000538565b62000272565b9050919050565b6000819050919050565b6200057f8362000542565b620005976200058e826200056a565b848454620004e2565b825550505050565b600090565b620005ae6200059f565b620005bb81848462000574565b505050565b5b81811015620005e357620005d7600082620005a4565b600181019050620005c1565b5050565b601f8211156200063257620005fc81620004b0565b6200060784620004c5565b8101602085101562000617578190505b6200062f6200062685620004c5565b830182620005c0565b50505b505050565b600082821c905092915050565b6000620006576000198460080262000637565b1980831691505092915050565b600062000672838362000644565b9150826002028217905092915050565b6200068d8262000441565b67ffffffffffffffff811115620006a957620006a86200010e565b5b620006b582546200047b565b620006c2828285620005e7565b600060209050601f831160018114620006fa5760008415620006e5578287015190505b620006f1858262000664565b86555062000761565b601f1984166200070a86620004b0565b60005b8281101562000734578489015182556001820191506020850194506020810190506200070d565b8683101562000754578489015162000750601f89168262000644565b8355505b6001600288020188555050505b505050505050565b6142d780620007796000396000f3fe608060405234801561001057600080fd5b50600436106101a95760003560e01c8063750e024c116100f9578063b88d4fde11610097578063e3278ad611610071578063e3278ad6146104e4578063e985e9c514610502578063f37149a214610532578063f7dfbdbe1461054e576101a9565b8063b88d4fde1461047a578063c87b56dd14610496578063d5391393146104c6576101a9565b806395d89b41116100d357806395d89b41146103f4578063a22cb46514610412578063b10d2e2a1461042e578063b632c9e41461044a576101a9565b8063750e024c1461039c5780637da67ba8146103b857806387bb7ae0146103d6576101a9565b806323b872dd1161016657806342842e0e1161014057806342842e0e146102f0578063569e35db1461030c5780636352211e1461033c57806370a082311461036c576101a9565b806323b872dd1461028457806324c14160146102a057806335fe12d8146102d2576101a9565b806301ffc9a7146101ae578063065366ee146101de57806306fdde03146101fc578063081812fc1461021a578063095ea7b31461024a5780630b70557814610266575b600080fd5b6101c860048036038101906101c39190612a1c565b61056a565b6040516101d59190612a64565b60405180910390f35b6101e661064c565b6040516101f39190612a98565b60405180910390f35b61020461065d565b6040516102119190612b43565b60405180910390f35b610234600480360381019061022f9190612b91565b6106ef565b6040516102419190612bff565b60405180910390f35b610264600480360381019061025f9190612c46565b610735565b005b61026e61084c565b60405161027b9190612bff565b60405180910390f35b61029e60048036038101906102999190612c86565b610876565b005b6102ba60048036038101906102b59190612b91565b6108d6565b6040516102c993929190612cd9565b60405180910390f35b6102da61093a565b6040516102e79190612dce565b60405180910390f35b61030a60048036038101906103059190612c86565b610992565b005b61032660048036038101906103219190612b91565b6109b2565b6040516103339190612a98565b60405180910390f35b61035660048036038101906103519190612b91565b6109d2565b6040516103639190612bff565b60405180910390f35b61038660048036038101906103819190612df0565b610a58565b6040516103939190612a98565b60405180910390f35b6103b660048036038101906103b19190612e1d565b610b0f565b005b6103c0610be0565b6040516103cd9190612f1b565b60405180910390f35b6103de610c6e565b6040516103eb9190612a98565b60405180910390f35b6103fc610c78565b6040516104099190612b43565b60405180910390f35b61042c60048036038101906104279190612f69565b610d0a565b005b610448600480360381019061044391906130de565b610d20565b005b610464600480360381019061045f9190612df0565b610ea7565b6040516104719190612dce565b60405180910390f35b610494600480360381019061048f91906131db565b610f3e565b005b6104b060048036038101906104ab9190612b91565b610fa0565b6040516104bd9190612b43565b60405180910390f35b6104ce6110b2565b6040516104db9190613277565b60405180910390f35b6104ec6110d6565b6040516104f99190612a98565b60405180910390f35b61051c60048036038101906105179190613292565b6110e7565b6040516105299190612a64565b60405180910390f35b61054c60048036038101906105479190612e1d565b61117b565b005b610568600480360381019061056391906132d2565b6112b6565b005b60007f80ac58cd000000000000000000000000000000000000000000000000000000007bffffffffffffffffffffffffffffffffffffffffffffffffffffffff1916827bffffffffffffffffffffffffffffffffffffffffffffffffffffffff1916148061063557507f5b5e139f000000000000000000000000000000000000000000000000000000007bffffffffffffffffffffffffffffffffffffffffffffffffffffffff1916827bffffffffffffffffffffffffffffffffffffffffffffffffffffffff1916145b806106455750610644826114ec565b5b9050919050565b60006106586008611556565b905090565b60606000805461066c90613370565b80601f016020809104026020016040519081016040528092919081815260200182805461069890613370565b80156106e55780601f106106ba576101008083540402835291602001916106e5565b820191906000526020600020905b8154815290600101906020018083116106c857829003601f168201915b5050505050905090565b60006106fa82611564565b6004600083815260200190815260200160002060009054906101000a900473ffffffffffffffffffffffffffffffffffffffff169050919050565b6000610740826109d2565b90508073ffffffffffffffffffffffffffffffffffffffff168373ffffffffffffffffffffffffffffffffffffffff16036107b0576040517f08c379a00000000000000000000000000000000000000000000000000000000081526004016107a790613413565b60405180910390fd5b8073ffffffffffffffffffffffffffffffffffffffff166107cf6115af565b73ffffffffffffffffffffffffffffffffffffffff1614806107fe57506107fd816107f86115af565b6110e7565b5b61083d576040517f08c379a0000000000000000000000000000000000000000000000000000000008152600401610834906134a5565b60405180910390fd5b61084783836115b7565b505050565b6000600960009054906101000a900473ffffffffffffffffffffffffffffffffffffffff16905090565b6108876108816115af565b82611670565b6108c6576040517f08c379a00000000000000000000000000000000000000000000000000000000081526004016108bd90613537565b60405180910390fd5b6108d1838383611705565b505050565b6000806000601060008581526020019081526020016000206000015460106000868152602001908152602001600020600101546010600087815260200190815260200160002060020160009054906101000a900460ff169250925092509193909250565b6060600c80548060200260200160405190810160405280929190818152602001828054801561098857602002820191906000526020600020905b815481526020019060010190808311610974575b5050505050905090565b6109ad83838360405180602001604052806000815250610f3e565b505050565b600060106000838152602001908152602001600020600101549050919050565b6000806109de836119fe565b9050600073ffffffffffffffffffffffffffffffffffffffff168173ffffffffffffffffffffffffffffffffffffffff1603610a4f576040517f08c379a0000000000000000000000000000000000000000000000000000000008152600401610a46906135a3565b60405180910390fd5b80915050919050565b60008073ffffffffffffffffffffffffffffffffffffffff168273ffffffffffffffffffffffffffffffffffffffff1603610ac8576040517f08c379a0000000000000000000000000000000000000000000000000000000008152600401610abf90613635565b60405180910390fd5b600360008373ffffffffffffffffffffffffffffffffffffffff1673ffffffffffffffffffffffffffffffffffffffff168152602001908152602001600020549050919050565b600e54610b1c6007611556565b10610b5c576040517f08c379a0000000000000000000000000000000000000000000000000000000008152600401610b53906136a1565b60405180910390fd5b6103e882610b686110d6565b610b7291906136f0565b1115610bb3576040517f08c379a0000000000000000000000000000000000000000000000000000000008152600401610baa90613796565b60405180910390fd5b60005b82811015610bdb57610bc782611a3b565b508080610bd3906137b6565b915050610bb6565b505050565b6060600b805480602002602001604051908101604052809291908181526020018280548015610c6457602002820191906000526020600020905b8160009054906101000a900473ffffffffffffffffffffffffffffffffffffffff1673ffffffffffffffffffffffffffffffffffffffff1681526020019060010190808311610c1a575b5050505050905090565b6000600d54905090565b606060018054610c8790613370565b80601f0160208091040260200160405190810160405280929190818152602001828054610cb390613370565b8015610d005780601f10610cd557610100808354040283529160200191610d00565b820191906000526020600020905b815481529060010190602001808311610ce357829003601f168201915b5050505050905090565b610d1c610d156115af565b8383611b63565b5050565b610d2a6008611ccf565b6000610d366008611556565b9050610d41816109d2565b73ffffffffffffffffffffffffffffffffffffffff163373ffffffffffffffffffffffffffffffffffffffff1614610dae576040517f08c379a0000000000000000000000000000000000000000000000000000000008152600401610da59061384a565b60405180910390fd5b610dc1610dba826109d2565b8483610876565b610dcb8183611ce5565b610dd483611d52565b610e3c57600b839080600181540180825580915050600190039060005260206000200160009091909190916101000a81548173ffffffffffffffffffffffffffffffffffffffff021916908373ffffffffffffffffffffffffffffffffffffffff1602179055505b601160008473ffffffffffffffffffffffffffffffffffffffff1673ffffffffffffffffffffffffffffffffffffffff168152602001908152602001600020819080600181540180825580915050600190039060005260206000200160009091909190915055505050565b6060601160008373ffffffffffffffffffffffffffffffffffffffff1673ffffffffffffffffffffffffffffffffffffffff168152602001908152602001600020805480602002602001604051908101604052809291908181526020018280548015610f3257602002820191906000526020600020905b815481526020019060010190808311610f1e575b50505050509050919050565b610f4f610f496115af565b83611670565b610f8e576040517f08c379a0000000000000000000000000000000000000000000000000000000008152600401610f8590613537565b60405180910390fd5b610f9a84848484611e00565b50505050565b6060610fab82611564565b6000600660008481526020019081526020016000208054610fcb90613370565b80601f0160208091040260200160405190810160405280929190818152602001828054610ff790613370565b80156110445780601f1061101957610100808354040283529160200191611044565b820191906000526020600020905b81548152906001019060200180831161102757829003601f168201915b505050505090506000611055611e5c565b9050600081510361106a5781925050506110ad565b60008251111561109f5780826040516020016110879291906138a6565b604051602081830303815290604052925050506110ad565b6110a884611e73565b925050505b919050565b7f9f2df0fed2c77648de5860a4cc508cd0818c85b8b8a1ab4ceeef8d981c8956a681565b60006110e26007611556565b905090565b6000600560008473ffffffffffffffffffffffffffffffffffffffff1673ffffffffffffffffffffffffffffffffffffffff16815260200190815260200160002060008373ffffffffffffffffffffffffffffffffffffffff1673ffffffffffffffffffffffffffffffffffffffff16815260200190815260200160002060009054906101000a900460ff16905092915050565b6000601060008481526020019081526020016000206000015490503373ffffffffffffffffffffffffffffffffffffffff16600960009054906101000a900473ffffffffffffffffffffffffffffffffffffffff1673ffffffffffffffffffffffffffffffffffffffff1603611226576040517f08c379a000000000000000000000000000000000000000000000000000000000815260040161121d9061393c565b60405180910390fd5b80601060008581526020019081526020016000206001018190555060016010600085815260200190815260200160002060020160006101000a81548160ff02191690831515021790555061127983611edb565b6112a757600c8390806001815401808255809150506001900390600052602060002001600090919091909150555b6112b18284610735565b505050565b81600060106000838152602001908152602001600020600001549050600060106000848152602001908152602001600020600101549050806064606e846112fd919061395c565b61130791906139cd565b8361131291906136f0565b11611352576040517f08c379a000000000000000000000000000000000000000000000000000000000815260040161134990613a70565b60405180910390fd5b600061135d866109d2565b9050600060106000888152602001908152602001600020600101549050611385828989610876565b61138f8787611ce5565b61139888611d52565b61140057600b889080600181540180825580915050600190039060005260206000200160009091909190916101000a81548173ffffffffffffffffffffffffffffffffffffffff021916908373ffffffffffffffffffffffffffffffffffffffff1602179055505b601160008973ffffffffffffffffffffffffffffffffffffffff1673ffffffffffffffffffffffffffffffffffffffff1681526020019081526020016000208790806001815401808255809150506001900390600052602060002001600090919091909150556114708288611f3d565b61147987612165565b6040518060600160405280828152602001600081526020016000151581525060106000898152602001908152602001600020600082015181600001556020820151816001015560408201518160020160006101000a81548160ff0219169083151502179055509050505050505050505050565b60007f01ffc9a7000000000000000000000000000000000000000000000000000000007bffffffffffffffffffffffffffffffffffffffffffffffffffffffff1916827bffffffffffffffffffffffffffffffffffffffffffffffffffffffff1916149050919050565b600081600001549050919050565b61156d8161225b565b6115ac576040517f08c379a00000000000000000000000000000000000000000000000000000000081526004016115a3906135a3565b60405180910390fd5b50565b600033905090565b816004600083815260200190815260200160002060006101000a81548173ffffffffffffffffffffffffffffffffffffffff021916908373ffffffffffffffffffffffffffffffffffffffff160217905550808273ffffffffffffffffffffffffffffffffffffffff1661162a836109d2565b73ffffffffffffffffffffffffffffffffffffffff167f8c5be1e5ebec7d5bd14f71427d1e84f3dd0314c0f7b2291e5b200ac8c7c3b92560405160405180910390a45050565b60008061167c836109d2565b90508073ffffffffffffffffffffffffffffffffffffffff168473ffffffffffffffffffffffffffffffffffffffff1614806116be57506116bd81856110e7565b5b806116fc57508373ffffffffffffffffffffffffffffffffffffffff166116e4846106ef565b73ffffffffffffffffffffffffffffffffffffffff16145b91505092915050565b8273ffffffffffffffffffffffffffffffffffffffff16611725826109d2565b73ffffffffffffffffffffffffffffffffffffffff161461177b576040517f08c379a000000000000000000000000000000000000000000000000000000000815260040161177290613b02565b60405180910390fd5b600073ffffffffffffffffffffffffffffffffffffffff168273ffffffffffffffffffffffffffffffffffffffff16036117ea576040517f08c379a00000000000000000000000000000000000000000000000000000000081526004016117e190613b94565b60405180910390fd5b6117f7838383600161229c565b8273ffffffffffffffffffffffffffffffffffffffff16611817826109d2565b73ffffffffffffffffffffffffffffffffffffffff161461186d576040517f08c379a000000000000000000000000000000000000000000000000000000000815260040161186490613b02565b60405180910390fd5b6004600082815260200190815260200160002060006101000a81549073ffffffffffffffffffffffffffffffffffffffff02191690556001600360008573ffffffffffffffffffffffffffffffffffffffff1673ffffffffffffffffffffffffffffffffffffffff168152602001908152602001600020600082825403925050819055506001600360008473ffffffffffffffffffffffffffffffffffffffff1673ffffffffffffffffffffffffffffffffffffffff16815260200190815260200160002060008282540192505081905550816002600083815260200190815260200160002060006101000a81548173ffffffffffffffffffffffffffffffffffffffff021916908373ffffffffffffffffffffffffffffffffffffffff160217905550808273ffffffffffffffffffffffffffffffffffffffff168473ffffffffffffffffffffffffffffffffffffffff167fddf252ad1be2c89b69c2b068fc378daa952ba7f163c4a11628f55a4df523b3ef60405160405180910390a46119f983838360016123c2565b505050565b60006002600083815260200190815260200160002060009054906101000a900473ffffffffffffffffffffffffffffffffffffffff169050919050565b60003373ffffffffffffffffffffffffffffffffffffffff16600960009054906101000a900473ffffffffffffffffffffffffffffffffffffffff1673ffffffffffffffffffffffffffffffffffffffff1614611acd576040517f08c379a0000000000000000000000000000000000000000000000000000000008152600401611ac490613c26565b60405180910390fd5b611ad76007611ccf565b6000611ae36007611556565b9050611aef83826123c8565b6040518060600160405280600d548152602001600081526020016000151581525060106000838152602001908152602001600020600082015181600001556020820151816001015560408201518160020160006101000a81548160ff02191690831515021790555090505080915050919050565b8173ffffffffffffffffffffffffffffffffffffffff168373ffffffffffffffffffffffffffffffffffffffff1603611bd1576040517f08c379a0000000000000000000000000000000000000000000000000000000008152600401611bc890613c92565b60405180910390fd5b80600560008573ffffffffffffffffffffffffffffffffffffffff1673ffffffffffffffffffffffffffffffffffffffff16815260200190815260200160002060008473ffffffffffffffffffffffffffffffffffffffff1673ffffffffffffffffffffffffffffffffffffffff16815260200190815260200160002060006101000a81548160ff0219169083151502179055508173ffffffffffffffffffffffffffffffffffffffff168373ffffffffffffffffffffffffffffffffffffffff167f17307eab39ab6107e8899845ad3d59bd9653f200f220920489ca2b5937696c3183604051611cc29190612a64565b60405180910390a3505050565b6001816000016000828254019250508190555050565b611cee8261225b565b611d2d576040517f08c379a0000000000000000000000000000000000000000000000000000000008152600401611d2490613d24565b60405180910390fd5b80600660008481526020019081526020016000209081611d4d9190613ef0565b505050565b600080600090505b600b80549050811015611df5578273ffffffffffffffffffffffffffffffffffffffff16600b8281548110611d9257611d91613fc2565b5b9060005260206000200160009054906101000a900473ffffffffffffffffffffffffffffffffffffffff1673ffffffffffffffffffffffffffffffffffffffff1603611de2576001915050611dfb565b8080611ded906137b6565b915050611d5a565b50600090505b919050565b611e0b848484611705565b611e17848484846125e5565b611e56576040517f08c379a0000000000000000000000000000000000000000000000000000000008152600401611e4d90614063565b60405180910390fd5b50505050565b606060405180602001604052806000815250905090565b6060611e7e82611564565b6000611e88611e5c565b90506000815111611ea85760405180602001604052806000815250611ed3565b80611eb28461276c565b604051602001611ec39291906138a6565b6040516020818303038152906040525b915050919050565b600080600090505b600c80549050811015611f325782600c8281548110611f0557611f04613fc2565b5b906000526020600020015403611f1f576001915050611f38565b8080611f2a906137b6565b915050611ee3565b50600090505b919050565b6000601160008473ffffffffffffffffffffffffffffffffffffffff1673ffffffffffffffffffffffffffffffffffffffff16815260200190815260200160002080549050905060005b8181101561215f5782601160008673ffffffffffffffffffffffffffffffffffffffff1673ffffffffffffffffffffffffffffffffffffffff1681526020019081526020016000208281548110611fe157611fe0613fc2565b5b90600052602060002001540361214c57600060018261200091906136f0565b90505b828110156120e557601160008673ffffffffffffffffffffffffffffffffffffffff1673ffffffffffffffffffffffffffffffffffffffff168152602001908152602001600020818154811061205c5761205b613fc2565b5b9060005260206000200154601160008773ffffffffffffffffffffffffffffffffffffffff1673ffffffffffffffffffffffffffffffffffffffff1681526020019081526020016000206001836120b39190614083565b815481106120c4576120c3613fc2565b5b906000526020600020018190555080806120dd906137b6565b915050612003565b50601160008573ffffffffffffffffffffffffffffffffffffffff1673ffffffffffffffffffffffffffffffffffffffff168152602001908152602001600020805480612135576121346140b7565b5b600190038181906000526020600020016000905590555b8080612157906137b6565b915050611f87565b50505050565b6000600c80549050905060005b818110156122565782600c828154811061218f5761218e613fc2565b5b9060005260206000200154036122435760006001826121ae91906136f0565b90505b8281101561221957600c81815481106121cd576121cc613fc2565b5b9060005260206000200154600c6001836121e79190614083565b815481106121f8576121f7613fc2565b5b90600052602060002001819055508080612211906137b6565b9150506121b1565b50600c80548061222c5761222b6140b7565b5b600190038181906000526020600020016000905590555b808061224e906137b6565b915050612172565b505050565b60008073ffffffffffffffffffffffffffffffffffffffff1661227d836119fe565b73ffffffffffffffffffffffffffffffffffffffff1614159050919050565b60018111156123bc57600073ffffffffffffffffffffffffffffffffffffffff168473ffffffffffffffffffffffffffffffffffffffff16146123305780600360008673ffffffffffffffffffffffffffffffffffffffff1673ffffffffffffffffffffffffffffffffffffffff16815260200190815260200160002060008282546123289190614083565b925050819055505b600073ffffffffffffffffffffffffffffffffffffffff168373ffffffffffffffffffffffffffffffffffffffff16146123bb5780600360008573ffffffffffffffffffffffffffffffffffffffff1673ffffffffffffffffffffffffffffffffffffffff16815260200190815260200160002060008282546123b391906136f0565b925050819055505b5b50505050565b50505050565b600073ffffffffffffffffffffffffffffffffffffffff168273ffffffffffffffffffffffffffffffffffffffff1603612437576040517f08c379a000000000000000000000000000000000000000000000000000000000815260040161242e90614132565b60405180910390fd5b6124408161225b565b15612480576040517f08c379a00000000000000000000000000000000000000000000000000000000081526004016124779061419e565b60405180910390fd5b61248e60008383600161229c565b6124978161225b565b156124d7576040517f08c379a00000000000000000000000000000000000000000000000000000000081526004016124ce9061419e565b60405180910390fd5b6001600360008473ffffffffffffffffffffffffffffffffffffffff1673ffffffffffffffffffffffffffffffffffffffff16815260200190815260200160002060008282540192505081905550816002600083815260200190815260200160002060006101000a81548173ffffffffffffffffffffffffffffffffffffffff021916908373ffffffffffffffffffffffffffffffffffffffff160217905550808273ffffffffffffffffffffffffffffffffffffffff16600073ffffffffffffffffffffffffffffffffffffffff167fddf252ad1be2c89b69c2b068fc378daa952ba7f163c4a11628f55a4df523b3ef60405160405180910390a46125e16000838360016123c2565b5050565b60006126068473ffffffffffffffffffffffffffffffffffffffff1661283a565b1561275f578373ffffffffffffffffffffffffffffffffffffffff1663150b7a0261262f6115af565b8786866040518563ffffffff1660e01b81526004016126519493929190614213565b6020604051808303816000875af192505050801561268d57506040513d601f19601f8201168201806040525081019061268a9190614274565b60015b61270f573d80600081146126bd576040519150601f19603f3d011682016040523d82523d6000602084013e6126c2565b606091505b506000815103612707576040517f08c379a00000000000000000000000000000000000000000000000000000000081526004016126fe90614063565b60405180910390fd5b805181602001fd5b63150b7a0260e01b7bffffffffffffffffffffffffffffffffffffffffffffffffffffffff1916817bffffffffffffffffffffffffffffffffffffffffffffffffffffffff191614915050612764565b600190505b949350505050565b60606000600161277b8461285d565b01905060008167ffffffffffffffff81111561279a57612799612fb3565b5b6040519080825280601f01601f1916602001820160405280156127cc5781602001600182028036833780820191505090505b509050600082602001820190505b60011561282f578080600190039150507f3031323334353637383961626364656600000000000000000000000000000000600a86061a8153600a85816128235761282261399e565b5b049450600085036127da575b819350505050919050565b6000808273ffffffffffffffffffffffffffffffffffffffff163b119050919050565b600080600090507a184f03e93ff9f4daa797ed6e38ed64bf6a1f01000000000000000083106128bb577a184f03e93ff9f4daa797ed6e38ed64bf6a1f01000000000000000083816128b1576128b061399e565b5b0492506040810190505b6d04ee2d6d415b85acef810000000083106128f8576d04ee2d6d415b85acef810000000083816128ee576128ed61399e565b5b0492506020810190505b662386f26fc10000831061292757662386f26fc10000838161291d5761291c61399e565b5b0492506010810190505b6305f5e1008310612950576305f5e10083816129465761294561399e565b5b0492506008810190505b612710831061297557612710838161296b5761296a61399e565b5b0492506004810190505b60648310612998576064838161298e5761298d61399e565b5b0492506002810190505b600a83106129a7576001810190505b80915050919050565b6000604051905090565b600080fd5b600080fd5b60007fffffffff0000000000000000000000000000000000000000000000000000000082169050919050565b6129f9816129c4565b8114612a0457600080fd5b50565b600081359050612a16816129f0565b92915050565b600060208284031215612a3257612a316129ba565b5b6000612a4084828501612a07565b91505092915050565b60008115159050919050565b612a5e81612a49565b82525050565b6000602082019050612a796000830184612a55565b92915050565b6000819050919050565b612a9281612a7f565b82525050565b6000602082019050612aad6000830184612a89565b92915050565b600081519050919050565b600082825260208201905092915050565b60005b83811015612aed578082015181840152602081019050612ad2565b60008484015250505050565b6000601f19601f8301169050919050565b6000612b1582612ab3565b612b1f8185612abe565b9350612b2f818560208601612acf565b612b3881612af9565b840191505092915050565b60006020820190508181036000830152612b5d8184612b0a565b905092915050565b612b6e81612a7f565b8114612b7957600080fd5b50565b600081359050612b8b81612b65565b92915050565b600060208284031215612ba757612ba66129ba565b5b6000612bb584828501612b7c565b91505092915050565b600073ffffffffffffffffffffffffffffffffffffffff82169050919050565b6000612be982612bbe565b9050919050565b612bf981612bde565b82525050565b6000602082019050612c146000830184612bf0565b92915050565b612c2381612bde565b8114612c2e57600080fd5b50565b600081359050612c4081612c1a565b92915050565b60008060408385031215612c5d57612c5c6129ba565b5b6000612c6b85828601612c31565b9250506020612c7c85828601612b7c565b9150509250929050565b600080600060608486031215612c9f57612c9e6129ba565b5b6000612cad86828701612c31565b9350506020612cbe86828701612c31565b9250506040612ccf86828701612b7c565b9150509250925092565b6000606082019050612cee6000830186612a89565b612cfb6020830185612a89565b612d086040830184612a55565b949350505050565b600081519050919050565b600082825260208201905092915050565b6000819050602082019050919050565b612d4581612a7f565b82525050565b6000612d578383612d3c565b60208301905092915050565b6000602082019050919050565b6000612d7b82612d10565b612d858185612d1b565b9350612d9083612d2c565b8060005b83811015612dc1578151612da88882612d4b565b9750612db383612d63565b925050600181019050612d94565b5085935050505092915050565b60006020820190508181036000830152612de88184612d70565b905092915050565b600060208284031215612e0657612e056129ba565b5b6000612e1484828501612c31565b91505092915050565b60008060408385031215612e3457612e336129ba565b5b6000612e4285828601612b7c565b9250506020612e5385828601612c31565b9150509250929050565b600081519050919050565b600082825260208201905092915050565b6000819050602082019050919050565b612e9281612bde565b82525050565b6000612ea48383612e89565b60208301905092915050565b6000602082019050919050565b6000612ec882612e5d565b612ed28185612e68565b9350612edd83612e79565b8060005b83811015612f0e578151612ef58882612e98565b9750612f0083612eb0565b925050600181019050612ee1565b5085935050505092915050565b60006020820190508181036000830152612f358184612ebd565b905092915050565b612f4681612a49565b8114612f5157600080fd5b50565b600081359050612f6381612f3d565b92915050565b60008060408385031215612f8057612f7f6129ba565b5b6000612f8e85828601612c31565b9250506020612f9f85828601612f54565b9150509250929050565b600080fd5b600080fd5b7f4e487b7100000000000000000000000000000000000000000000000000000000600052604160045260246000fd5b612feb82612af9565b810181811067ffffffffffffffff8211171561300a57613009612fb3565b5b80604052505050565b600061301d6129b0565b90506130298282612fe2565b919050565b600067ffffffffffffffff82111561304957613048612fb3565b5b61305282612af9565b9050602081019050919050565b82818337600083830152505050565b600061308161307c8461302e565b613013565b90508281526020810184848401111561309d5761309c612fae565b5b6130a884828561305f565b509392505050565b600082601f8301126130c5576130c4612fa9565b5b81356130d584826020860161306e565b91505092915050565b600080604083850312156130f5576130f46129ba565b5b600061310385828601612c31565b925050602083013567ffffffffffffffff811115613124576131236129bf565b5b613130858286016130b0565b9150509250929050565b600067ffffffffffffffff82111561315557613154612fb3565b5b61315e82612af9565b9050602081019050919050565b600061317e6131798461313a565b613013565b90508281526020810184848401111561319a57613199612fae565b5b6131a584828561305f565b509392505050565b600082601f8301126131c2576131c1612fa9565b5b81356131d284826020860161316b565b91505092915050565b600080600080608085870312156131f5576131f46129ba565b5b600061320387828801612c31565b945050602061321487828801612c31565b935050604061322587828801612b7c565b925050606085013567ffffffffffffffff811115613246576132456129bf565b5b613252878288016131ad565b91505092959194509250565b6000819050919050565b6132718161325e565b82525050565b600060208201905061328c6000830184613268565b92915050565b600080604083850312156132a9576132a86129ba565b5b60006132b785828601612c31565b92505060206132c885828601612c31565b9150509250929050565b6000806000606084860312156132eb576132ea6129ba565b5b60006132f986828701612c31565b935050602061330a86828701612b7c565b925050604084013567ffffffffffffffff81111561332b5761332a6129bf565b5b613337868287016130b0565b9150509250925092565b7f4e487b7100000000000000000000000000000000000000000000000000000000600052602260045260246000fd5b6000600282049050600182168061338857607f821691505b60208210810361339b5761339a613341565b5b50919050565b7f4552433732313a20617070726f76616c20746f2063757272656e74206f776e6560008201527f7200000000000000000000000000000000000000000000000000000000000000602082015250565b60006133fd602183612abe565b9150613408826133a1565b604082019050919050565b6000602082019050818103600083015261342c816133f0565b9050919050565b7f4552433732313a20617070726f76652063616c6c6572206973206e6f7420746f60008201527f6b656e206f776e6572206f7220617070726f76656420666f7220616c6c000000602082015250565b600061348f603d83612abe565b915061349a82613433565b604082019050919050565b600060208201905081810360008301526134be81613482565b9050919050565b7f4552433732313a2063616c6c6572206973206e6f7420746f6b656e206f776e6560008201527f72206f7220617070726f76656400000000000000000000000000000000000000602082015250565b6000613521602d83612abe565b915061352c826134c5565b604082019050919050565b6000602082019050818103600083015261355081613514565b9050919050565b7f4552433732313a20696e76616c696420746f6b656e2049440000000000000000600082015250565b600061358d601883612abe565b915061359882613557565b602082019050919050565b600060208201905081810360008301526135bc81613580565b9050919050565b7f4552433732313a2061646472657373207a65726f206973206e6f74206120766160008201527f6c6964206f776e65720000000000000000000000000000000000000000000000602082015250565b600061361f602983612abe565b915061362a826135c3565b604082019050919050565b6000602082019050818103600083015261364e81613612565b9050919050565b7f4d6178696d756d207469636b6574206c696d6974206578636565646564210000600082015250565b600061368b601e83612abe565b915061369682613655565b602082019050919050565b600060208201905081810360008301526136ba8161367e565b9050919050565b7f4e487b7100000000000000000000000000000000000000000000000000000000600052601160045260246000fd5b60006136fb82612a7f565b915061370683612a7f565b925082820190508082111561371e5761371d6136c1565b5b92915050565b7f4e756d626572206f66207469636b6574732065786365656473206d6178696d7560008201527f6d207469636b657420636f756e74000000000000000000000000000000000000602082015250565b6000613780602e83612abe565b915061378b82613724565b604082019050919050565b600060208201905081810360008301526137af81613773565b9050919050565b60006137c182612a7f565b91507fffffffffffffffffffffffffffffffffffffffffffffffffffffffffffffffff82036137f3576137f26136c1565b5b600182019050919050565b7f4f6e6c7920696e697469616c20707572636861736520616c6c6f776564000000600082015250565b6000613834601d83612abe565b915061383f826137fe565b602082019050919050565b6000602082019050818103600083015261386381613827565b9050919050565b600081905092915050565b600061388082612ab3565b61388a818561386a565b935061389a818560208601612acf565b80840191505092915050565b60006138b28285613875565b91506138be8284613875565b91508190509392505050565b7f46756e6374696f6e616c697479206f6e6c7920616c6c6f77656420666f72207360008201527f65636f6e64617279206d61726b65740000000000000000000000000000000000602082015250565b6000613926602f83612abe565b9150613931826138ca565b604082019050919050565b6000602082019050818103600083015261395581613919565b9050919050565b600061396782612a7f565b915061397283612a7f565b925082820261398081612a7f565b91508282048414831517613997576139966136c1565b5b5092915050565b7f4e487b7100000000000000000000000000000000000000000000000000000000600052601260045260246000fd5b60006139d882612a7f565b91506139e383612a7f565b9250826139f3576139f261399e565b5b828204905092915050565b7f52652d73656c6c696e67207072696365206973206d6f7265207468616e20313160008201527f3025000000000000000000000000000000000000000000000000000000000000602082015250565b6000613a5a602283612abe565b9150613a65826139fe565b604082019050919050565b60006020820190508181036000830152613a8981613a4d565b9050919050565b7f4552433732313a207472616e736665722066726f6d20696e636f72726563742060008201527f6f776e6572000000000000000000000000000000000000000000000000000000602082015250565b6000613aec602583612abe565b9150613af782613a90565b604082019050919050565b60006020820190508181036000830152613b1b81613adf565b9050919050565b7f4552433732313a207472616e7366657220746f20746865207a65726f2061646460008201527f7265737300000000000000000000000000000000000000000000000000000000602082015250565b6000613b7e602483612abe565b9150613b8982613b22565b604082019050919050565b60006020820190508181036000830152613bad81613b71565b9050919050565b7f55736572206d7573742068617665206d696e74657220726f6c6520746f206d6960008201527f6e74000000000000000000000000000000000000000000000000000000000000602082015250565b6000613c10602283612abe565b9150613c1b82613bb4565b604082019050919050565b60006020820190508181036000830152613c3f81613c03565b9050919050565b7f4552433732313a20617070726f766520746f2063616c6c657200000000000000600082015250565b6000613c7c601983612abe565b9150613c8782613c46565b602082019050919050565b60006020820190508181036000830152613cab81613c6f565b9050919050565b7f45524337323155524953746f726167653a2055524920736574206f66206e6f6e60008201527f6578697374656e7420746f6b656e000000000000000000000000000000000000602082015250565b6000613d0e602e83612abe565b9150613d1982613cb2565b604082019050919050565b60006020820190508181036000830152613d3d81613d01565b9050919050565b60008190508160005260206000209050919050565b60006020601f8301049050919050565b600082821b905092915050565b600060088302613da67fffffffffffffffffffffffffffffffffffffffffffffffffffffffffffffffff82613d69565b613db08683613d69565b95508019841693508086168417925050509392505050565b6000819050919050565b6000613ded613de8613de384612a7f565b613dc8565b612a7f565b9050919050565b6000819050919050565b613e0783613dd2565b613e1b613e1382613df4565b848454613d76565b825550505050565b600090565b613e30613e23565b613e3b818484613dfe565b505050565b5b81811015613e5f57613e54600082613e28565b600181019050613e41565b5050565b601f821115613ea457613e7581613d44565b613e7e84613d59565b81016020851015613e8d578190505b613ea1613e9985613d59565b830182613e40565b50505b505050565b600082821c905092915050565b6000613ec760001984600802613ea9565b1980831691505092915050565b6000613ee08383613eb6565b9150826002028217905092915050565b613ef982612ab3565b67ffffffffffffffff811115613f1257613f11612fb3565b5b613f1c8254613370565b613f27828285613e63565b600060209050601f831160018114613f5a5760008415613f48578287015190505b613f528582613ed4565b865550613fba565b601f198416613f6886613d44565b60005b82811015613f9057848901518255600182019150602085019450602081019050613f6b565b86831015613fad5784890151613fa9601f891682613eb6565b8355505b6001600288020188555050505b505050505050565b7f4e487b7100000000000000000000000000000000000000000000000000000000600052603260045260246000fd5b7f4552433732313a207472616e7366657220746f206e6f6e20455243373231526560008201527f63656976657220696d706c656d656e7465720000000000000000000000000000602082015250565b600061404d603283612abe565b915061405882613ff1565b604082019050919050565b6000602082019050818103600083015261407c81614040565b9050919050565b600061408e82612a7f565b915061409983612a7f565b92508282039050818111156140b1576140b06136c1565b5b92915050565b7f4e487b7100000000000000000000000000000000000000000000000000000000600052603160045260246000fd5b7f4552433732313a206d696e7420746f20746865207a65726f2061646472657373600082015250565b600061411c602083612abe565b9150614127826140e6565b602082019050919050565b6000602082019050818103600083015261414b8161410f565b9050919050565b7f4552433732313a20746f6b656e20616c7265616479206d696e74656400000000600082015250565b6000614188601c83612abe565b915061419382614152565b602082019050919050565b600060208201905081810360008301526141b78161417b565b9050919050565b600081519050919050565b600082825260208201905092915050565b60006141e5826141be565b6141ef81856141c9565b93506141ff818560208601612acf565b61420881612af9565b840191505092915050565b60006080820190506142286000830187612bf0565b6142356020830186612bf0565b6142426040830185612a89565b818103606083015261425481846141da565b905095945050505050565b60008151905061426e816129f0565b92915050565b60006020828403121561428a576142896129ba565b5b60006142988482850161425f565b9150509291505056fea2646970667358221220c40075b92198fc09ef08fb45f360da1b3937ed589a7e98c43c7981fe44431c4f64736f6c63430008110033",
  "linkReferences": {},
  "deployedLinkReferences": {}
}