{
  "_format": "hh-sol-artifact-1",
  "contractName": "EventTicketsFactory",
  "sourceName": "contracts/NFTTicket.sol",
  "abi": [
    {
      "anonymous": false,
      "inputs": [
        {
          "indexed": false,
          "internalType": "address",
          "name": "ntfAddress",
          "type": "address"
        },
        {
          "indexed": false,
          "internalType": "address",
          "name": "marketplaceAddress",
          "type": "address"
        }
      ],
      "name": "Created",
      "type": "event"
    },
    {
      "anonymous": false,
      "inputs": [
        {
          "indexed": true,
          "internalType": "address",
          "name": "previousOwner",
          "type": "address"
        },
        {
          "indexed": true,
          "internalType": "address",
          "name": "newOwner",
          "type": "address"
        }
      ],
      "name": "OwnershipTransferred",
      "type": "event"
    },
    {
      "inputs": [
        {
          "internalType": "contract EventToken",
          "name": "token",
          "type": "address"
        },
        {
          "internalType": "string",
          "name": "eventName",
          "type": "string"
        },
        {
          "internalType": "string",
          "name": "eventSymbol",
          "type": "string"
        },
        {
          "internalType": "string",
          "name": "imageHash",
          "type": "string"
        },
        {
          "internalType": "uint256",
          "name": "ticketPrice",
          "type": "uint256"
        },
        {
          "internalType": "uint256",
          "name": "totalSupply",
          "type": "uint256"
        }
      ],
      "name": "createNewEvent",
      "outputs": [
        {
          "internalType": "address",
          "name": "",
          "type": "address"
        }
      ],
      "stateMutability": "nonpayable",
      "type": "function"
    },
    {
      "inputs": [],
      "name": "getActiveEvents",
      "outputs": [
        {
          "internalType": "address[]",
          "name": "",
          "type": "address[]"
        }
      ],
      "stateMutability": "view",
      "type": "function"
    },
    {
      "inputs": [
        {
          "internalType": "address",
          "name": "eventAddress",
          "type": "address"
        }
      ],
      "name": "getEventDetails",
      "outputs": [
        {
          "internalType": "string",
          "name": "",
          "type": "string"
        },
        {
          "internalType": "string",
          "name": "",
          "type": "string"
        },
        {
          "internalType": "uint256",
          "name": "",
          "type": "uint256"
        },
        {
          "internalType": "uint256",
          "name": "",
          "type": "uint256"
        },
        {
          "internalType": "address",
          "name": "",
          "type": "address"
        }
      ],
      "stateMutability": "view",
      "type": "function"
    },
    {
      "inputs": [],
      "name": "owner",
      "outputs": [
        {
          "internalType": "address",
          "name": "",
          "type": "address"
        }
      ],
      "stateMutability": "view",
      "type": "function"
    },
    {
      "inputs": [],
      "name": "renounceOwnership",
      "outputs": [],
      "stateMutability": "nonpayable",
      "type": "function"
    },
    {
      "inputs": [
        {
          "internalType": "address",
          "name": "newOwner",
          "type": "address"
        }
      ],
      "name": "transferOwnership",
      "outputs": [],
      "stateMutability": "nonpayable",
      "type": "function"
    }
  ],
  "bytecode": "0x608060405234801561001057600080fd5b5061002d61002261003260201b60201c565b61003a60201b60201c565b6100fe565b600033905090565b60008060009054906101000a900473ffffffffffffffffffffffffffffffffffffffff169050816000806101000a81548173ffffffffffffffffffffffffffffffffffffffff021916908373ffffffffffffffffffffffffffffffffffffffff1602179055508173ffffffffffffffffffffffffffffffffffffffff168173ffffffffffffffffffffffffffffffffffffffff167f8be0079c531659141344cd1fd0a4f28419497f9722a3daafe3b4186f6b6457e060405160405180910390a35050565b616e448061010d6000396000f3fe60806040523480156200001157600080fd5b50600436106200006a5760003560e01c80633612280f146200006f578063715018a6146200009157806380e318cf146200009d5780638da5cb5b14620000d3578063d43f036b14620000f5578063f2fde38b146200012f575b600080fd5b620000796200014f565b60405162000088919062000a36565b60405180910390f35b6200009b620001df565b005b620000bb6004803603810190620000b5919062000c50565b620001f7565b604051620000ca919062000d5a565b60405180910390f35b620000dd62000464565b604051620000ec919062000d5a565b60405180910390f35b6200011360048036038101906200010d919062000da8565b6200048d565b6040516200012695949392919062000e74565b60405180910390f35b6200014d600480360381019062000147919062000da8565b6200073d565b005b60606001805480602002602001604051908101604052809291908181526020018280548015620001d557602002820191906000526020600020905b8160009054906101000a900473ffffffffffffffffffffffffffffffffffffffff1673ffffffffffffffffffffffffffffffffffffffff16815260200190600101908083116200018a575b5050505050905090565b620001e9620007c7565b620001f560006200084c565b565b600062000203620007c7565b6000868686868633604051620002199062000918565b6200022a9695949392919062000edf565b604051809103906000f08015801562000247573d6000803e3d6000fd5b509050600088826040516200025c9062000926565b6200026992919062000ff1565b604051809103906000f08015801562000286573d6000803e3d6000fd5b50905060008290506001819080600181540180825580915050600190039060005260206000200160009091909190916101000a81548173ffffffffffffffffffffffffffffffffffffffff021916908373ffffffffffffffffffffffffffffffffffffffff1602179055506040518060c001604052808a81526020018981526020018881526020018781526020018681526020018373ffffffffffffffffffffffffffffffffffffffff16815250600260008373ffffffffffffffffffffffffffffffffffffffff1673ffffffffffffffffffffffffffffffffffffffff16815260200190815260200160002060008201518160000190816200038a91906200124a565b506020820151816001019081620003a291906200124a565b506040820151816002019081620003ba91906200124a565b50606082015181600301556080820151816004015560a08201518160050160006101000a81548173ffffffffffffffffffffffffffffffffffffffff021916908373ffffffffffffffffffffffffffffffffffffffff1602179055509050507f587ece4cd19692c5be1a4184503d607d45542d2aca0698c0068f52e09ccb541c81836040516200044c92919062001331565b60405180910390a18093505050509695505050505050565b60008060009054906101000a900473ffffffffffffffffffffffffffffffffffffffff16905090565b6060806000806000600260008773ffffffffffffffffffffffffffffffffffffffff1673ffffffffffffffffffffffffffffffffffffffff168152602001908152602001600020600001600260008873ffffffffffffffffffffffffffffffffffffffff1673ffffffffffffffffffffffffffffffffffffffff168152602001908152602001600020600101600260008973ffffffffffffffffffffffffffffffffffffffff1673ffffffffffffffffffffffffffffffffffffffff16815260200190815260200160002060030154600260008a73ffffffffffffffffffffffffffffffffffffffff1673ffffffffffffffffffffffffffffffffffffffff16815260200190815260200160002060040154600260008b73ffffffffffffffffffffffffffffffffffffffff1673ffffffffffffffffffffffffffffffffffffffff16815260200190815260200160002060050160009054906101000a900473ffffffffffffffffffffffffffffffffffffffff1684805462000610906200104d565b80601f01602080910402602001604051908101604052809291908181526020018280546200063e906200104d565b80156200068f5780601f1062000663576101008083540402835291602001916200068f565b820191906000526020600020905b8154815290600101906020018083116200067157829003601f168201915b50505050509450838054620006a4906200104d565b80601f0160208091040260200160405190810160405280929190818152602001828054620006d2906200104d565b8015620007235780601f10620006f75761010080835404028352916020019162000723565b820191906000526020600020905b8154815290600101906020018083116200070557829003601f168201915b505050505093509450945094509450945091939590929450565b62000747620007c7565b600073ffffffffffffffffffffffffffffffffffffffff168173ffffffffffffffffffffffffffffffffffffffff1603620007b9576040517f08c379a0000000000000000000000000000000000000000000000000000000008152600401620007b090620013d4565b60405180910390fd5b620007c4816200084c565b50565b620007d162000910565b73ffffffffffffffffffffffffffffffffffffffff16620007f162000464565b73ffffffffffffffffffffffffffffffffffffffff16146200084a576040517f08c379a0000000000000000000000000000000000000000000000000000000008152600401620008419062001446565b60405180910390fd5b565b60008060009054906101000a900473ffffffffffffffffffffffffffffffffffffffff169050816000806101000a81548173ffffffffffffffffffffffffffffffffffffffff021916908373ffffffffffffffffffffffffffffffffffffffff1602179055508173ffffffffffffffffffffffffffffffffffffffff168173ffffffffffffffffffffffffffffffffffffffff167f8be0079c531659141344cd1fd0a4f28419497f9722a3daafe3b4186f6b6457e060405160405180910390a35050565b600033905090565b614a55806200146983390190565b610f518062005ebe83390190565b600081519050919050565b600082825260208201905092915050565b6000819050602082019050919050565b600073ffffffffffffffffffffffffffffffffffffffff82169050919050565b60006200098d8262000960565b9050919050565b6200099f8162000980565b82525050565b6000620009b3838362000994565b60208301905092915050565b6000602082019050919050565b6000620009d98262000934565b620009e581856200093f565b9350620009f28362000950565b8060005b8381101562000a2957815162000a0d8882620009a5565b975062000a1a83620009bf565b925050600181019050620009f6565b5085935050505092915050565b6000602082019050818103600083015262000a528184620009cc565b905092915050565b6000604051905090565b600080fd5b600080fd5b600062000a7b8262000980565b9050919050565b62000a8d8162000a6e565b811462000a9957600080fd5b50565b60008135905062000aad8162000a82565b92915050565b600080fd5b600080fd5b6000601f19601f8301169050919050565b7f4e487b7100000000000000000000000000000000000000000000000000000000600052604160045260246000fd5b62000b088262000abd565b810181811067ffffffffffffffff8211171562000b2a5762000b2962000ace565b5b80604052505050565b600062000b3f62000a5a565b905062000b4d828262000afd565b919050565b600067ffffffffffffffff82111562000b705762000b6f62000ace565b5b62000b7b8262000abd565b9050602081019050919050565b82818337600083830152505050565b600062000bae62000ba88462000b52565b62000b33565b90508281526020810184848401111562000bcd5762000bcc62000ab8565b5b62000bda84828562000b88565b509392505050565b600082601f83011262000bfa5762000bf962000ab3565b5b813562000c0c84826020860162000b97565b91505092915050565b6000819050919050565b62000c2a8162000c15565b811462000c3657600080fd5b50565b60008135905062000c4a8162000c1f565b92915050565b60008060008060008060c0878903121562000c705762000c6f62000a64565b5b600062000c8089828a0162000a9c565b965050602087013567ffffffffffffffff81111562000ca45762000ca362000a69565b5b62000cb289828a0162000be2565b955050604087013567ffffffffffffffff81111562000cd65762000cd562000a69565b5b62000ce489828a0162000be2565b945050606087013567ffffffffffffffff81111562000d085762000d0762000a69565b5b62000d1689828a0162000be2565b935050608062000d2989828a0162000c39565b92505060a062000d3c89828a0162000c39565b9150509295509295509295565b62000d548162000980565b82525050565b600060208201905062000d71600083018462000d49565b92915050565b62000d828162000980565b811462000d8e57600080fd5b50565b60008135905062000da28162000d77565b92915050565b60006020828403121562000dc15762000dc062000a64565b5b600062000dd18482850162000d91565b91505092915050565b600081519050919050565b600082825260208201905092915050565b60005b8381101562000e1657808201518184015260208101905062000df9565b60008484015250505050565b600062000e2f8262000dda565b62000e3b818562000de5565b935062000e4d81856020860162000df6565b62000e588162000abd565b840191505092915050565b62000e6e8162000c15565b82525050565b600060a082019050818103600083015262000e90818862000e22565b9050818103602083015262000ea6818762000e22565b905062000eb7604083018662000e63565b62000ec6606083018562000e63565b62000ed5608083018462000d49565b9695505050505050565b600060c082019050818103600083015262000efb818962000e22565b9050818103602083015262000f11818862000e22565b9050818103604083015262000f27818762000e22565b905062000f38606083018662000e63565b62000f47608083018562000e63565b62000f5660a083018462000d49565b979650505050505050565b6000819050919050565b600062000f8c62000f8662000f808462000960565b62000f61565b62000960565b9050919050565b600062000fa08262000f6b565b9050919050565b600062000fb48262000f93565b9050919050565b62000fc68162000fa7565b82525050565b600062000fd98262000f93565b9050919050565b62000feb8162000fcc565b82525050565b600060408201905062001008600083018562000fbb565b62001017602083018462000fe0565b9392505050565b7f4e487b7100000000000000000000000000000000000000000000000000000000600052602260045260246000fd5b600060028204905060018216806200106657607f821691505b6020821081036200107c576200107b6200101e565b5b50919050565b60008190508160005260206000209050919050565b60006020601f8301049050919050565b600082821b905092915050565b600060088302620010e67fffffffffffffffffffffffffffffffffffffffffffffffffffffffffffffffff82620010a7565b620010f28683620010a7565b95508019841693508086168417925050509392505050565b60006200112b620011256200111f8462000c15565b62000f61565b62000c15565b9050919050565b6000819050919050565b62001147836200110a565b6200115f620011568262001132565b848454620010b4565b825550505050565b600090565b6200117662001167565b620011838184846200113c565b505050565b5b81811015620011ab576200119f6000826200116c565b60018101905062001189565b5050565b601f821115620011fa57620011c48162001082565b620011cf8462001097565b81016020851015620011df578190505b620011f7620011ee8562001097565b83018262001188565b50505b505050565b600082821c905092915050565b60006200121f60001984600802620011ff565b1980831691505092915050565b60006200123a83836200120c565b9150826002028217905092915050565b620012558262000dda565b67ffffffffffffffff81111562001271576200127062000ace565b5b6200127d82546200104d565b6200128a828285620011af565b600060209050601f831160018114620012c25760008415620012ad578287015190505b620012b985826200122c565b86555062001329565b601f198416620012d28662001082565b60005b82811015620012fc57848901518255600182019150602085019450602081019050620012d5565b868310156200131c578489015162001318601f8916826200120c565b8355505b6001600288020188555050505b505050505050565b600060408201905062001348600083018562000d49565b62001357602083018462000d49565b9392505050565b7f4f776e61626c653a206e6577206f776e657220697320746865207a65726f206160008201527f6464726573730000000000000000000000000000000000000000000000000000602082015250565b6000620013bc60268362000de5565b9150620013c9826200135e565b604082019050919050565b60006020820190508181036000830152620013ef81620013ad565b9050919050565b7f4f776e61626c653a2063616c6c6572206973206e6f7420746865206f776e6572600082015250565b60006200142e60208362000de5565b91506200143b82620013f6565b602082019050919050565b6000602082019050818103600083015262001461816200141f565b905091905056fe60806040523480156200001157600080fd5b5060405162004a5538038062004a558339818101604052810190620000379190620002ff565b858581600090816200004a919062000639565b5080600190816200005c919062000639565b50505082600d8190555081600e8190555080600960006101000a81548173ffffffffffffffffffffffffffffffffffffffff021916908373ffffffffffffffffffffffffffffffffffffffff16021790555083600a9081620000bf919062000639565b5050505050505062000720565b6000604051905090565b600080fd5b600080fd5b600080fd5b600080fd5b6000601f19601f8301169050919050565b7f4e487b7100000000000000000000000000000000000000000000000000000000600052604160045260246000fd5b6200013582620000ea565b810181811067ffffffffffffffff82111715620001575762000156620000fb565b5b80604052505050565b60006200016c620000cc565b90506200017a82826200012a565b919050565b600067ffffffffffffffff8211156200019d576200019c620000fb565b5b620001a882620000ea565b9050602081019050919050565b60005b83811015620001d5578082015181840152602081019050620001b8565b60008484015250505050565b6000620001f8620001f2846200017f565b62000160565b905082815260208101848484011115620002175762000216620000e5565b5b62000224848285620001b5565b509392505050565b600082601f830112620002445762000243620000e0565b5b815162000256848260208601620001e1565b91505092915050565b6000819050919050565b62000274816200025f565b81146200028057600080fd5b50565b600081519050620002948162000269565b92915050565b600073ffffffffffffffffffffffffffffffffffffffff82169050919050565b6000620002c7826200029a565b9050919050565b620002d981620002ba565b8114620002e557600080fd5b50565b600081519050620002f981620002ce565b92915050565b60008060008060008060c087890312156200031f576200031e620000d6565b5b600087015167ffffffffffffffff81111562000340576200033f620000db565b5b6200034e89828a016200022c565b965050602087015167ffffffffffffffff811115620003725762000371620000db565b5b6200038089828a016200022c565b955050604087015167ffffffffffffffff811115620003a457620003a3620000db565b5b620003b289828a016200022c565b9450506060620003c589828a0162000283565b9350506080620003d889828a0162000283565b92505060a0620003eb89828a01620002e8565b9150509295509295509295565b600081519050919050565b7f4e487b7100000000000000000000000000000000000000000000000000000000600052602260045260246000fd5b600060028204905060018216806200044b57607f821691505b60208210810362000461576200046062000403565b5b50919050565b60008190508160005260206000209050919050565b60006020601f8301049050919050565b600082821b905092915050565b600060088302620004cb7fffffffffffffffffffffffffffffffffffffffffffffffffffffffffffffffff826200048c565b620004d786836200048c565b95508019841693508086168417925050509392505050565b6000819050919050565b60006200051a620005146200050e846200025f565b620004ef565b6200025f565b9050919050565b6000819050919050565b6200053683620004f9565b6200054e620005458262000521565b84845462000499565b825550505050565b600090565b6200056562000556565b620005728184846200052b565b505050565b5b818110156200059a576200058e6000826200055b565b60018101905062000578565b5050565b601f821115620005e957620005b38162000467565b620005be846200047c565b81016020851015620005ce578190505b620005e6620005dd856200047c565b83018262000577565b50505b505050565b600082821c905092915050565b60006200060e60001984600802620005ee565b1980831691505092915050565b6000620006298383620005fb565b9150826002028217905092915050565b6200064482620003f8565b67ffffffffffffffff81111562000660576200065f620000fb565b5b6200066c825462000432565b620006798282856200059e565b600060209050601f831160018114620006b157600084156200069c578287015190505b620006a885826200061b565b86555062000718565b601f198416620006c18662000467565b60005b82811015620006eb57848901518255600182019150602085019450602081019050620006c4565b868310156200070b578489015162000707601f891682620005fb565b8355505b6001600288020188555050505b505050505050565b61432580620007306000396000f3fe608060405234801561001057600080fd5b506004361061018e5760003560e01c806364d7f44f116100de578063b632c9e411610097578063d539139311610071578063d5391393146104a9578063e3278ad6146104c7578063e985e9c5146104e5578063f7dfbdbe146105155761018e565b8063b632c9e41461042d578063b88d4fde1461045d578063c87b56dd146104795761018e565b806364d7f44f1461036d57806370a082311461038957806387bb7ae0146103b957806395d89b41146103d7578063a22cb465146103f5578063b10d2e2a146104115761018e565b80631c0980221161014b57806335fe12d81161012557806335fe12d8146102d357806342842e0e146102f1578063569e35db1461030d5780636352211e1461033d5761018e565b80631c0980221461026957806323b872dd1461028557806324c14160146102a15761018e565b806301ffc9a714610193578063065366ee146101c357806306fdde03146101e1578063081812fc146101ff578063095ea7b31461022f5780630b7055781461024b575b600080fd5b6101ad60048036038101906101a891906129e2565b610531565b6040516101ba9190612a2a565b60405180910390f35b6101cb610613565b6040516101d89190612a5e565b60405180910390f35b6101e9610624565b6040516101f69190612b09565b60405180910390f35b61021960048036038101906102149190612b57565b6106b6565b6040516102269190612bc5565b60405180910390f35b61024960048036038101906102449190612c0c565b6106fc565b005b610253610813565b6040516102609190612bc5565b60405180910390f35b610283600480360381019061027e9190612e67565b61083d565b005b61029f600480360381019061029a9190612ed6565b61092a565b005b6102bb60048036038101906102b69190612b57565b61098a565b6040516102ca93929190612f29565b60405180910390f35b6102db6109ee565b6040516102e8919061301e565b60405180910390f35b61030b60048036038101906103069190612ed6565b610a46565b005b61032760048036038101906103229190612b57565b610a66565b6040516103349190612a5e565b60405180910390f35b61035760048036038101906103529190612b57565b610a86565b6040516103649190612bc5565b60405180910390f35b61038760048036038101906103829190613040565b610b0c565b005b6103a3600480360381019061039e9190613093565b610cad565b6040516103b09190612a5e565b60405180910390f35b6103c1610d64565b6040516103ce9190612a5e565b60405180910390f35b6103df610d6e565b6040516103ec9190612b09565b60405180910390f35b61040f600480360381019061040a91906130ec565b610e00565b005b61042b6004803603810190610426919061312c565b610e16565b005b61044760048036038101906104429190613093565b610f9d565b604051610454919061301e565b60405180910390f35b61047760048036038101906104729190613229565b611034565b005b610493600480360381019061048e9190612b57565b611096565b6040516104a09190612b09565b60405180910390f35b6104b16111a8565b6040516104be91906132c5565b60405180910390f35b6104cf6111cc565b6040516104dc9190612a5e565b60405180910390f35b6104ff60048036038101906104fa91906132e0565b6111dd565b60405161050c9190612a2a565b60405180910390f35b61052f600480360381019061052a9190613320565b611271565b005b60007f80ac58cd000000000000000000000000000000000000000000000000000000007bffffffffffffffffffffffffffffffffffffffffffffffffffffffff1916827bffffffffffffffffffffffffffffffffffffffffffffffffffffffff191614806105fc57507f5b5e139f000000000000000000000000000000000000000000000000000000007bffffffffffffffffffffffffffffffffffffffffffffffffffffffff1916827bffffffffffffffffffffffffffffffffffffffffffffffffffffffff1916145b8061060c575061060b826114a7565b5b9050919050565b600061061f6008611511565b905090565b606060008054610633906133be565b80601f016020809104026020016040519081016040528092919081815260200182805461065f906133be565b80156106ac5780601f10610681576101008083540402835291602001916106ac565b820191906000526020600020905b81548152906001019060200180831161068f57829003601f168201915b5050505050905090565b60006106c18261151f565b6004600083815260200190815260200160002060009054906101000a900473ffffffffffffffffffffffffffffffffffffffff169050919050565b600061070782610a86565b90508073ffffffffffffffffffffffffffffffffffffffff168373ffffffffffffffffffffffffffffffffffffffff1603610777576040517f08c379a000000000000000000000000000000000000000000000000000000000815260040161076e90613461565b60405180910390fd5b8073ffffffffffffffffffffffffffffffffffffffff1661079661156a565b73ffffffffffffffffffffffffffffffffffffffff1614806107c557506107c4816107bf61156a565b6111dd565b5b610804576040517f08c379a00000000000000000000000000000000000000000000000000000000081526004016107fb906134f3565b60405180910390fd5b61080e8383611572565b505050565b6000600960009054906101000a900473ffffffffffffffffffffffffffffffffffffffff16905090565b600e5461084a6007611511565b1061088a576040517f08c379a00000000000000000000000000000000000000000000000000000000081526004016108819061355f565b60405180910390fd5b6103e8836108966111cc565b6108a091906135ae565b11156108e1576040517f08c379a00000000000000000000000000000000000000000000000000000000081526004016108d890613654565b60405180910390fd5b60005b838110156109245761091082828151811061090257610901613674565b5b60200260200101518461162b565b50808061091c906136a3565b9150506108e4565b50505050565b61093b61093561156a565b8261175e565b61097a576040517f08c379a00000000000000000000000000000000000000000000000000000000081526004016109719061375d565b60405180910390fd5b6109858383836117f3565b505050565b6000806000600f600085815260200190815260200160002060000154600f600086815260200190815260200160002060010154600f600087815260200190815260200160002060020160009054906101000a900460ff169250925092509193909250565b6060600c805480602002602001604051908101604052809291908181526020018280548015610a3c57602002820191906000526020600020905b815481526020019060010190808311610a28575b5050505050905090565b610a6183838360405180602001604052806000815250611034565b505050565b6000600f6000838152602001908152602001600020600101549050919050565b600080610a9283611aec565b9050600073ffffffffffffffffffffffffffffffffffffffff168173ffffffffffffffffffffffffffffffffffffffff1603610b03576040517f08c379a0000000000000000000000000000000000000000000000000000000008152600401610afa906137c9565b60405180910390fd5b80915050919050565b6000600f6000858152602001908152602001600020600001549050826064606e83610b3791906137e9565b610b41919061385a565b82610b4c91906135ae565b11610b8c576040517f08c379a0000000000000000000000000000000000000000000000000000000008152600401610b83906138fd565b60405180910390fd5b3373ffffffffffffffffffffffffffffffffffffffff16600960009054906101000a900473ffffffffffffffffffffffffffffffffffffffff1673ffffffffffffffffffffffffffffffffffffffff1603610c1c576040517f08c379a0000000000000000000000000000000000000000000000000000000008152600401610c139061398f565b60405180910390fd5b82600f6000868152602001908152602001600020600101819055506001600f600086815260200190815260200160002060020160006101000a81548160ff021916908315150217905550610c6f84611b29565b610c9d57600c8490806001815401808255809150506001900390600052602060002001600090919091909150555b610ca782856106fc565b50505050565b60008073ffffffffffffffffffffffffffffffffffffffff168273ffffffffffffffffffffffffffffffffffffffff1603610d1d576040517f08c379a0000000000000000000000000000000000000000000000000000000008152600401610d1490613a21565b60405180910390fd5b600360008373ffffffffffffffffffffffffffffffffffffffff1673ffffffffffffffffffffffffffffffffffffffff168152602001908152602001600020549050919050565b6000600d54905090565b606060018054610d7d906133be565b80601f0160208091040260200160405190810160405280929190818152602001828054610da9906133be565b8015610df65780601f10610dcb57610100808354040283529160200191610df6565b820191906000526020600020905b815481529060010190602001808311610dd957829003601f168201915b5050505050905090565b610e12610e0b61156a565b8383611b8b565b5050565b610e206008611cf7565b6000610e2c6008611511565b9050610e3781610a86565b73ffffffffffffffffffffffffffffffffffffffff163373ffffffffffffffffffffffffffffffffffffffff1614610ea4576040517f08c379a0000000000000000000000000000000000000000000000000000000008152600401610e9b90613a8d565b60405180910390fd5b610eb7610eb082610a86565b848361092a565b610ec18183611d0d565b610eca83611d7a565b610f3257600b839080600181540180825580915050600190039060005260206000200160009091909190916101000a81548173ffffffffffffffffffffffffffffffffffffffff021916908373ffffffffffffffffffffffffffffffffffffffff1602179055505b601060008473ffffffffffffffffffffffffffffffffffffffff1673ffffffffffffffffffffffffffffffffffffffff168152602001908152602001600020819080600181540180825580915050600190039060005260206000200160009091909190915055505050565b6060601060008373ffffffffffffffffffffffffffffffffffffffff1673ffffffffffffffffffffffffffffffffffffffff16815260200190815260200160002080548060200260200160405190810160405280929190818152602001828054801561102857602002820191906000526020600020905b815481526020019060010190808311611014575b50505050509050919050565b61104561103f61156a565b8361175e565b611084576040517f08c379a000000000000000000000000000000000000000000000000000000000815260040161107b9061375d565b60405180910390fd5b61109084848484611e28565b50505050565b60606110a18261151f565b60006006600084815260200190815260200160002080546110c1906133be565b80601f01602080910402602001604051908101604052809291908181526020018280546110ed906133be565b801561113a5780601f1061110f5761010080835404028352916020019161113a565b820191906000526020600020905b81548152906001019060200180831161111d57829003601f168201915b50505050509050600061114b611e84565b905060008151036111605781925050506111a3565b60008251111561119557808260405160200161117d929190613ae9565b604051602081830303815290604052925050506111a3565b61119e84611e9b565b925050505b919050565b7f9f2df0fed2c77648de5860a4cc508cd0818c85b8b8a1ab4ceeef8d981c8956a681565b60006111d86007611511565b905090565b6000600560008473ffffffffffffffffffffffffffffffffffffffff1673ffffffffffffffffffffffffffffffffffffffff16815260200190815260200160002060008373ffffffffffffffffffffffffffffffffffffffff1673ffffffffffffffffffffffffffffffffffffffff16815260200190815260200160002060009054906101000a900460ff16905092915050565b816000600f60008381526020019081526020016000206000015490506000600f6000848152602001908152602001600020600101549050806064606e846112b891906137e9565b6112c2919061385a565b836112cd91906135ae565b1161130d576040517f08c379a0000000000000000000000000000000000000000000000000000000008152600401611304906138fd565b60405180910390fd5b600061131886610a86565b90506000600f600088815260200190815260200160002060010154905061134082898961092a565b61134a8787611d0d565b61135388611d7a565b6113bb57600b889080600181540180825580915050600190039060005260206000200160009091909190916101000a81548173ffffffffffffffffffffffffffffffffffffffff021916908373ffffffffffffffffffffffffffffffffffffffff1602179055505b601060008973ffffffffffffffffffffffffffffffffffffffff1673ffffffffffffffffffffffffffffffffffffffff16815260200190815260200160002087908060018154018082558091505060019003906000526020600020016000909190919091505561142b8288611f03565b6114348761212b565b60405180606001604052808281526020016000815260200160001515815250600f6000898152602001908152602001600020600082015181600001556020820151816001015560408201518160020160006101000a81548160ff0219169083151502179055509050505050505050505050565b60007f01ffc9a7000000000000000000000000000000000000000000000000000000007bffffffffffffffffffffffffffffffffffffffffffffffffffffffff1916827bffffffffffffffffffffffffffffffffffffffffffffffffffffffff1916149050919050565b600081600001549050919050565b61152881612221565b611567576040517f08c379a000000000000000000000000000000000000000000000000000000000815260040161155e906137c9565b60405180910390fd5b50565b600033905090565b816004600083815260200190815260200160002060006101000a81548173ffffffffffffffffffffffffffffffffffffffff021916908373ffffffffffffffffffffffffffffffffffffffff160217905550808273ffffffffffffffffffffffffffffffffffffffff166115e583610a86565b73ffffffffffffffffffffffffffffffffffffffff167f8c5be1e5ebec7d5bd14f71427d1e84f3dd0314c0f7b2291e5b200ac8c7c3b92560405160405180910390a45050565b60003373ffffffffffffffffffffffffffffffffffffffff16600960009054906101000a900473ffffffffffffffffffffffffffffffffffffffff1673ffffffffffffffffffffffffffffffffffffffff16146116bd576040517f08c379a00000000000000000000000000000000000000000000000000000000081526004016116b490613b7f565b60405180910390fd5b6116c76007611cf7565b60006116d36007611511565b90506116df8382612262565b6116e98185611d0d565b6040518060600160405280600d5481526020016000815260200160001515815250600f6000838152602001908152602001600020600082015181600001556020820151816001015560408201518160020160006101000a81548160ff0219169083151502179055509050508091505092915050565b60008061176a83610a86565b90508073ffffffffffffffffffffffffffffffffffffffff168473ffffffffffffffffffffffffffffffffffffffff1614806117ac57506117ab81856111dd565b5b806117ea57508373ffffffffffffffffffffffffffffffffffffffff166117d2846106b6565b73ffffffffffffffffffffffffffffffffffffffff16145b91505092915050565b8273ffffffffffffffffffffffffffffffffffffffff1661181382610a86565b73ffffffffffffffffffffffffffffffffffffffff1614611869576040517f08c379a000000000000000000000000000000000000000000000000000000000815260040161186090613c11565b60405180910390fd5b600073ffffffffffffffffffffffffffffffffffffffff168273ffffffffffffffffffffffffffffffffffffffff16036118d8576040517f08c379a00000000000000000000000000000000000000000000000000000000081526004016118cf90613ca3565b60405180910390fd5b6118e5838383600161247f565b8273ffffffffffffffffffffffffffffffffffffffff1661190582610a86565b73ffffffffffffffffffffffffffffffffffffffff161461195b576040517f08c379a000000000000000000000000000000000000000000000000000000000815260040161195290613c11565b60405180910390fd5b6004600082815260200190815260200160002060006101000a81549073ffffffffffffffffffffffffffffffffffffffff02191690556001600360008573ffffffffffffffffffffffffffffffffffffffff1673ffffffffffffffffffffffffffffffffffffffff168152602001908152602001600020600082825403925050819055506001600360008473ffffffffffffffffffffffffffffffffffffffff1673ffffffffffffffffffffffffffffffffffffffff16815260200190815260200160002060008282540192505081905550816002600083815260200190815260200160002060006101000a81548173ffffffffffffffffffffffffffffffffffffffff021916908373ffffffffffffffffffffffffffffffffffffffff160217905550808273ffffffffffffffffffffffffffffffffffffffff168473ffffffffffffffffffffffffffffffffffffffff167fddf252ad1be2c89b69c2b068fc378daa952ba7f163c4a11628f55a4df523b3ef60405160405180910390a4611ae783838360016125a5565b505050565b60006002600083815260200190815260200160002060009054906101000a900473ffffffffffffffffffffffffffffffffffffffff169050919050565b600080600090505b600c80549050811015611b805782600c8281548110611b5357611b52613674565b5b906000526020600020015403611b6d576001915050611b86565b8080611b78906136a3565b915050611b31565b50600090505b919050565b8173ffffffffffffffffffffffffffffffffffffffff168373ffffffffffffffffffffffffffffffffffffffff1603611bf9576040517f08c379a0000000000000000000000000000000000000000000000000000000008152600401611bf090613d0f565b60405180910390fd5b80600560008573ffffffffffffffffffffffffffffffffffffffff1673ffffffffffffffffffffffffffffffffffffffff16815260200190815260200160002060008473ffffffffffffffffffffffffffffffffffffffff1673ffffffffffffffffffffffffffffffffffffffff16815260200190815260200160002060006101000a81548160ff0219169083151502179055508173ffffffffffffffffffffffffffffffffffffffff168373ffffffffffffffffffffffffffffffffffffffff167f17307eab39ab6107e8899845ad3d59bd9653f200f220920489ca2b5937696c3183604051611cea9190612a2a565b60405180910390a3505050565b6001816000016000828254019250508190555050565b611d1682612221565b611d55576040517f08c379a0000000000000000000000000000000000000000000000000000000008152600401611d4c90613da1565b60405180910390fd5b80600660008481526020019081526020016000209081611d759190613f6d565b505050565b600080600090505b600b80549050811015611e1d578273ffffffffffffffffffffffffffffffffffffffff16600b8281548110611dba57611db9613674565b5b9060005260206000200160009054906101000a900473ffffffffffffffffffffffffffffffffffffffff1673ffffffffffffffffffffffffffffffffffffffff1603611e0a576001915050611e23565b8080611e15906136a3565b915050611d82565b50600090505b919050565b611e338484846117f3565b611e3f848484846125ab565b611e7e576040517f08c379a0000000000000000000000000000000000000000000000000000000008152600401611e75906140b1565b60405180910390fd5b50505050565b606060405180602001604052806000815250905090565b6060611ea68261151f565b6000611eb0611e84565b90506000815111611ed05760405180602001604052806000815250611efb565b80611eda84612732565b604051602001611eeb929190613ae9565b6040516020818303038152906040525b915050919050565b6000601060008473ffffffffffffffffffffffffffffffffffffffff1673ffffffffffffffffffffffffffffffffffffffff16815260200190815260200160002080549050905060005b818110156121255782601060008673ffffffffffffffffffffffffffffffffffffffff1673ffffffffffffffffffffffffffffffffffffffff1681526020019081526020016000208281548110611fa757611fa6613674565b5b906000526020600020015403612112576000600182611fc691906135ae565b90505b828110156120ab57601060008673ffffffffffffffffffffffffffffffffffffffff1673ffffffffffffffffffffffffffffffffffffffff168152602001908152602001600020818154811061202257612021613674565b5b9060005260206000200154601060008773ffffffffffffffffffffffffffffffffffffffff1673ffffffffffffffffffffffffffffffffffffffff16815260200190815260200160002060018361207991906140d1565b8154811061208a57612089613674565b5b906000526020600020018190555080806120a3906136a3565b915050611fc9565b50601060008573ffffffffffffffffffffffffffffffffffffffff1673ffffffffffffffffffffffffffffffffffffffff1681526020019081526020016000208054806120fb576120fa614105565b5b600190038181906000526020600020016000905590555b808061211d906136a3565b915050611f4d565b50505050565b6000600c80549050905060005b8181101561221c5782600c828154811061215557612154613674565b5b90600052602060002001540361220957600060018261217491906135ae565b90505b828110156121df57600c818154811061219357612192613674565b5b9060005260206000200154600c6001836121ad91906140d1565b815481106121be576121bd613674565b5b906000526020600020018190555080806121d7906136a3565b915050612177565b50600c8054806121f2576121f1614105565b5b600190038181906000526020600020016000905590555b8080612214906136a3565b915050612138565b505050565b60008073ffffffffffffffffffffffffffffffffffffffff1661224383611aec565b73ffffffffffffffffffffffffffffffffffffffff1614159050919050565b600073ffffffffffffffffffffffffffffffffffffffff168273ffffffffffffffffffffffffffffffffffffffff16036122d1576040517f08c379a00000000000000000000000000000000000000000000000000000000081526004016122c890614180565b60405180910390fd5b6122da81612221565b1561231a576040517f08c379a0000000000000000000000000000000000000000000000000000000008152600401612311906141ec565b60405180910390fd5b61232860008383600161247f565b61233181612221565b15612371576040517f08c379a0000000000000000000000000000000000000000000000000000000008152600401612368906141ec565b60405180910390fd5b6001600360008473ffffffffffffffffffffffffffffffffffffffff1673ffffffffffffffffffffffffffffffffffffffff16815260200190815260200160002060008282540192505081905550816002600083815260200190815260200160002060006101000a81548173ffffffffffffffffffffffffffffffffffffffff021916908373ffffffffffffffffffffffffffffffffffffffff160217905550808273ffffffffffffffffffffffffffffffffffffffff16600073ffffffffffffffffffffffffffffffffffffffff167fddf252ad1be2c89b69c2b068fc378daa952ba7f163c4a11628f55a4df523b3ef60405160405180910390a461247b6000838360016125a5565b5050565b600181111561259f57600073ffffffffffffffffffffffffffffffffffffffff168473ffffffffffffffffffffffffffffffffffffffff16146125135780600360008673ffffffffffffffffffffffffffffffffffffffff1673ffffffffffffffffffffffffffffffffffffffff168152602001908152602001600020600082825461250b91906140d1565b925050819055505b600073ffffffffffffffffffffffffffffffffffffffff168373ffffffffffffffffffffffffffffffffffffffff161461259e5780600360008573ffffffffffffffffffffffffffffffffffffffff1673ffffffffffffffffffffffffffffffffffffffff168152602001908152602001600020600082825461259691906135ae565b925050819055505b5b50505050565b50505050565b60006125cc8473ffffffffffffffffffffffffffffffffffffffff16612800565b15612725578373ffffffffffffffffffffffffffffffffffffffff1663150b7a026125f561156a565b8786866040518563ffffffff1660e01b81526004016126179493929190614261565b6020604051808303816000875af192505050801561265357506040513d601f19601f8201168201806040525081019061265091906142c2565b60015b6126d5573d8060008114612683576040519150601f19603f3d011682016040523d82523d6000602084013e612688565b606091505b5060008151036126cd576040517f08c379a00000000000000000000000000000000000000000000000000000000081526004016126c4906140b1565b60405180910390fd5b805181602001fd5b63150b7a0260e01b7bffffffffffffffffffffffffffffffffffffffffffffffffffffffff1916817bffffffffffffffffffffffffffffffffffffffffffffffffffffffff19161491505061272a565b600190505b949350505050565b60606000600161274184612823565b01905060008167ffffffffffffffff8111156127605761275f612c51565b5b6040519080825280601f01601f1916602001820160405280156127925781602001600182028036833780820191505090505b509050600082602001820190505b6001156127f5578080600190039150507f3031323334353637383961626364656600000000000000000000000000000000600a86061a8153600a85816127e9576127e861382b565b5b049450600085036127a0575b819350505050919050565b6000808273ffffffffffffffffffffffffffffffffffffffff163b119050919050565b600080600090507a184f03e93ff9f4daa797ed6e38ed64bf6a1f0100000000000000008310612881577a184f03e93ff9f4daa797ed6e38ed64bf6a1f01000000000000000083816128775761287661382b565b5b0492506040810190505b6d04ee2d6d415b85acef810000000083106128be576d04ee2d6d415b85acef810000000083816128b4576128b361382b565b5b0492506020810190505b662386f26fc1000083106128ed57662386f26fc1000083816128e3576128e261382b565b5b0492506010810190505b6305f5e1008310612916576305f5e100838161290c5761290b61382b565b5b0492506008810190505b612710831061293b5761271083816129315761293061382b565b5b0492506004810190505b6064831061295e57606483816129545761295361382b565b5b0492506002810190505b600a831061296d576001810190505b80915050919050565b6000604051905090565b600080fd5b600080fd5b60007fffffffff0000000000000000000000000000000000000000000000000000000082169050919050565b6129bf8161298a565b81146129ca57600080fd5b50565b6000813590506129dc816129b6565b92915050565b6000602082840312156129f8576129f7612980565b5b6000612a06848285016129cd565b91505092915050565b60008115159050919050565b612a2481612a0f565b82525050565b6000602082019050612a3f6000830184612a1b565b92915050565b6000819050919050565b612a5881612a45565b82525050565b6000602082019050612a736000830184612a4f565b92915050565b600081519050919050565b600082825260208201905092915050565b60005b83811015612ab3578082015181840152602081019050612a98565b60008484015250505050565b6000601f19601f8301169050919050565b6000612adb82612a79565b612ae58185612a84565b9350612af5818560208601612a95565b612afe81612abf565b840191505092915050565b60006020820190508181036000830152612b238184612ad0565b905092915050565b612b3481612a45565b8114612b3f57600080fd5b50565b600081359050612b5181612b2b565b92915050565b600060208284031215612b6d57612b6c612980565b5b6000612b7b84828501612b42565b91505092915050565b600073ffffffffffffffffffffffffffffffffffffffff82169050919050565b6000612baf82612b84565b9050919050565b612bbf81612ba4565b82525050565b6000602082019050612bda6000830184612bb6565b92915050565b612be981612ba4565b8114612bf457600080fd5b50565b600081359050612c0681612be0565b92915050565b60008060408385031215612c2357612c22612980565b5b6000612c3185828601612bf7565b9250506020612c4285828601612b42565b9150509250929050565b600080fd5b7f4e487b7100000000000000000000000000000000000000000000000000000000600052604160045260246000fd5b612c8982612abf565b810181811067ffffffffffffffff82111715612ca857612ca7612c51565b5b80604052505050565b6000612cbb612976565b9050612cc78282612c80565b919050565b600067ffffffffffffffff821115612ce757612ce6612c51565b5b602082029050602081019050919050565b600080fd5b600080fd5b600067ffffffffffffffff821115612d1d57612d1c612c51565b5b612d2682612abf565b9050602081019050919050565b82818337600083830152505050565b6000612d55612d5084612d02565b612cb1565b905082815260208101848484011115612d7157612d70612cfd565b5b612d7c848285612d33565b509392505050565b600082601f830112612d9957612d98612c4c565b5b8135612da9848260208601612d42565b91505092915050565b6000612dc5612dc084612ccc565b612cb1565b90508083825260208201905060208402830185811115612de857612de7612cf8565b5b835b81811015612e2f57803567ffffffffffffffff811115612e0d57612e0c612c4c565b5b808601612e1a8982612d84565b85526020850194505050602081019050612dea565b5050509392505050565b600082601f830112612e4e57612e4d612c4c565b5b8135612e5e848260208601612db2565b91505092915050565b600080600060608486031215612e8057612e7f612980565b5b6000612e8e86828701612b42565b9350506020612e9f86828701612bf7565b925050604084013567ffffffffffffffff811115612ec057612ebf612985565b5b612ecc86828701612e39565b9150509250925092565b600080600060608486031215612eef57612eee612980565b5b6000612efd86828701612bf7565b9350506020612f0e86828701612bf7565b9250506040612f1f86828701612b42565b9150509250925092565b6000606082019050612f3e6000830186612a4f565b612f4b6020830185612a4f565b612f586040830184612a1b565b949350505050565b600081519050919050565b600082825260208201905092915050565b6000819050602082019050919050565b612f9581612a45565b82525050565b6000612fa78383612f8c565b60208301905092915050565b6000602082019050919050565b6000612fcb82612f60565b612fd58185612f6b565b9350612fe083612f7c565b8060005b83811015613011578151612ff88882612f9b565b975061300383612fb3565b925050600181019050612fe4565b5085935050505092915050565b600060208201905081810360008301526130388184612fc0565b905092915050565b60008060006060848603121561305957613058612980565b5b600061306786828701612b42565b935050602061307886828701612b42565b925050604061308986828701612bf7565b9150509250925092565b6000602082840312156130a9576130a8612980565b5b60006130b784828501612bf7565b91505092915050565b6130c981612a0f565b81146130d457600080fd5b50565b6000813590506130e6816130c0565b92915050565b6000806040838503121561310357613102612980565b5b600061311185828601612bf7565b9250506020613122858286016130d7565b9150509250929050565b6000806040838503121561314357613142612980565b5b600061315185828601612bf7565b925050602083013567ffffffffffffffff81111561317257613171612985565b5b61317e85828601612d84565b9150509250929050565b600067ffffffffffffffff8211156131a3576131a2612c51565b5b6131ac82612abf565b9050602081019050919050565b60006131cc6131c784613188565b612cb1565b9050828152602081018484840111156131e8576131e7612cfd565b5b6131f3848285612d33565b509392505050565b600082601f8301126132105761320f612c4c565b5b81356132208482602086016131b9565b91505092915050565b6000806000806080858703121561324357613242612980565b5b600061325187828801612bf7565b945050602061326287828801612bf7565b935050604061327387828801612b42565b925050606085013567ffffffffffffffff81111561329457613293612985565b5b6132a0878288016131fb565b91505092959194509250565b6000819050919050565b6132bf816132ac565b82525050565b60006020820190506132da60008301846132b6565b92915050565b600080604083850312156132f7576132f6612980565b5b600061330585828601612bf7565b925050602061331685828601612bf7565b9150509250929050565b60008060006060848603121561333957613338612980565b5b600061334786828701612bf7565b935050602061335886828701612b42565b925050604084013567ffffffffffffffff81111561337957613378612985565b5b61338586828701612d84565b9150509250925092565b7f4e487b7100000000000000000000000000000000000000000000000000000000600052602260045260246000fd5b600060028204905060018216806133d657607f821691505b6020821081036133e9576133e861338f565b5b50919050565b7f4552433732313a20617070726f76616c20746f2063757272656e74206f776e6560008201527f7200000000000000000000000000000000000000000000000000000000000000602082015250565b600061344b602183612a84565b9150613456826133ef565b604082019050919050565b6000602082019050818103600083015261347a8161343e565b9050919050565b7f4552433732313a20617070726f76652063616c6c6572206973206e6f7420746f60008201527f6b656e206f776e6572206f7220617070726f76656420666f7220616c6c000000602082015250565b60006134dd603d83612a84565b91506134e882613481565b604082019050919050565b6000602082019050818103600083015261350c816134d0565b9050919050565b7f4d6178696d756d207469636b6574206c696d6974206578636565646564210000600082015250565b6000613549601e83612a84565b915061355482613513565b602082019050919050565b600060208201905081810360008301526135788161353c565b9050919050565b7f4e487b7100000000000000000000000000000000000000000000000000000000600052601160045260246000fd5b60006135b982612a45565b91506135c483612a45565b92508282019050808211156135dc576135db61357f565b5b92915050565b7f4e756d626572206f66207469636b6574732065786365656473206d6178696d7560008201527f6d207469636b657420636f756e74000000000000000000000000000000000000602082015250565b600061363e602e83612a84565b9150613649826135e2565b604082019050919050565b6000602082019050818103600083015261366d81613631565b9050919050565b7f4e487b7100000000000000000000000000000000000000000000000000000000600052603260045260246000fd5b60006136ae82612a45565b91507fffffffffffffffffffffffffffffffffffffffffffffffffffffffffffffffff82036136e0576136df61357f565b5b600182019050919050565b7f4552433732313a2063616c6c6572206973206e6f7420746f6b656e206f776e6560008201527f72206f7220617070726f76656400000000000000000000000000000000000000602082015250565b6000613747602d83612a84565b9150613752826136eb565b604082019050919050565b600060208201905081810360008301526137768161373a565b9050919050565b7f4552433732313a20696e76616c696420746f6b656e2049440000000000000000600082015250565b60006137b3601883612a84565b91506137be8261377d565b602082019050919050565b600060208201905081810360008301526137e2816137a6565b9050919050565b60006137f482612a45565b91506137ff83612a45565b925082820261380d81612a45565b915082820484148315176138245761382361357f565b5b5092915050565b7f4e487b7100000000000000000000000000000000000000000000000000000000600052601260045260246000fd5b600061386582612a45565b915061387083612a45565b9250826138805761387f61382b565b5b828204905092915050565b7f52652d73656c6c696e67207072696365206973206d6f7265207468616e20313160008201527f3025000000000000000000000000000000000000000000000000000000000000602082015250565b60006138e7602283612a84565b91506138f28261388b565b604082019050919050565b60006020820190508181036000830152613916816138da565b9050919050565b7f46756e6374696f6e616c697479206f6e6c7920616c6c6f77656420666f72207360008201527f65636f6e64617279206d61726b65740000000000000000000000000000000000602082015250565b6000613979602f83612a84565b91506139848261391d565b604082019050919050565b600060208201905081810360008301526139a88161396c565b9050919050565b7f4552433732313a2061646472657373207a65726f206973206e6f74206120766160008201527f6c6964206f776e65720000000000000000000000000000000000000000000000602082015250565b6000613a0b602983612a84565b9150613a16826139af565b604082019050919050565b60006020820190508181036000830152613a3a816139fe565b9050919050565b7f4f6e6c7920696e697469616c20707572636861736520616c6c6f776564000000600082015250565b6000613a77601d83612a84565b9150613a8282613a41565b602082019050919050565b60006020820190508181036000830152613aa681613a6a565b9050919050565b600081905092915050565b6000613ac382612a79565b613acd8185613aad565b9350613add818560208601612a95565b80840191505092915050565b6000613af58285613ab8565b9150613b018284613ab8565b91508190509392505050565b7f55736572206d7573742068617665206d696e74657220726f6c6520746f206d6960008201527f6e74000000000000000000000000000000000000000000000000000000000000602082015250565b6000613b69602283612a84565b9150613b7482613b0d565b604082019050919050565b60006020820190508181036000830152613b9881613b5c565b9050919050565b7f4552433732313a207472616e736665722066726f6d20696e636f72726563742060008201527f6f776e6572000000000000000000000000000000000000000000000000000000602082015250565b6000613bfb602583612a84565b9150613c0682613b9f565b604082019050919050565b60006020820190508181036000830152613c2a81613bee565b9050919050565b7f4552433732313a207472616e7366657220746f20746865207a65726f2061646460008201527f7265737300000000000000000000000000000000000000000000000000000000602082015250565b6000613c8d602483612a84565b9150613c9882613c31565b604082019050919050565b60006020820190508181036000830152613cbc81613c80565b9050919050565b7f4552433732313a20617070726f766520746f2063616c6c657200000000000000600082015250565b6000613cf9601983612a84565b9150613d0482613cc3565b602082019050919050565b60006020820190508181036000830152613d2881613cec565b9050919050565b7f45524337323155524953746f726167653a2055524920736574206f66206e6f6e60008201527f6578697374656e7420746f6b656e000000000000000000000000000000000000602082015250565b6000613d8b602e83612a84565b9150613d9682613d2f565b604082019050919050565b60006020820190508181036000830152613dba81613d7e565b9050919050565b60008190508160005260206000209050919050565b60006020601f8301049050919050565b600082821b905092915050565b600060088302613e237fffffffffffffffffffffffffffffffffffffffffffffffffffffffffffffffff82613de6565b613e2d8683613de6565b95508019841693508086168417925050509392505050565b6000819050919050565b6000613e6a613e65613e6084612a45565b613e45565b612a45565b9050919050565b6000819050919050565b613e8483613e4f565b613e98613e9082613e71565b848454613df3565b825550505050565b600090565b613ead613ea0565b613eb8818484613e7b565b505050565b5b81811015613edc57613ed1600082613ea5565b600181019050613ebe565b5050565b601f821115613f2157613ef281613dc1565b613efb84613dd6565b81016020851015613f0a578190505b613f1e613f1685613dd6565b830182613ebd565b50505b505050565b600082821c905092915050565b6000613f4460001984600802613f26565b1980831691505092915050565b6000613f5d8383613f33565b9150826002028217905092915050565b613f7682612a79565b67ffffffffffffffff811115613f8f57613f8e612c51565b5b613f9982546133be565b613fa4828285613ee0565b600060209050601f831160018114613fd75760008415613fc5578287015190505b613fcf8582613f51565b865550614037565b601f198416613fe586613dc1565b60005b8281101561400d57848901518255600182019150602085019450602081019050613fe8565b8683101561402a5784890151614026601f891682613f33565b8355505b6001600288020188555050505b505050505050565b7f4552433732313a207472616e7366657220746f206e6f6e20455243373231526560008201527f63656976657220696d706c656d656e7465720000000000000000000000000000602082015250565b600061409b603283612a84565b91506140a68261403f565b604082019050919050565b600060208201905081810360008301526140ca8161408e565b9050919050565b60006140dc82612a45565b91506140e783612a45565b92508282039050818111156140ff576140fe61357f565b5b92915050565b7f4e487b7100000000000000000000000000000000000000000000000000000000600052603160045260246000fd5b7f4552433732313a206d696e7420746f20746865207a65726f2061646472657373600082015250565b600061416a602083612a84565b915061417582614134565b602082019050919050565b600060208201905081810360008301526141998161415d565b9050919050565b7f4552433732313a20746f6b656e20616c7265616479206d696e74656400000000600082015250565b60006141d6601c83612a84565b91506141e1826141a0565b602082019050919050565b60006020820190508181036000830152614205816141c9565b9050919050565b600081519050919050565b600082825260208201905092915050565b60006142338261420c565b61423d8185614217565b935061424d818560208601612a95565b61425681612abf565b840191505092915050565b60006080820190506142766000830187612bb6565b6142836020830186612bb6565b6142906040830185612a4f565b81810360608301526142a28184614228565b905095945050505050565b6000815190506142bc816129b6565b92915050565b6000602082840312156142d8576142d7612980565b5b60006142e6848285016142ad565b9150509291505056fea26469706673582212209e420b8a5c1a94f09a908aee79134caca2912b463ad50acffb915115cbdde3fc64736f6c6343000811003360806040523480156200001157600080fd5b5060405162000f5138038062000f51833981810160405281019062000037919062000257565b816000806101000a81548173ffffffffffffffffffffffffffffffffffffffff021916908373ffffffffffffffffffffffffffffffffffffffff16021790555080600160006101000a81548173ffffffffffffffffffffffffffffffffffffffff021916908373ffffffffffffffffffffffffffffffffffffffff160217905550600160009054906101000a900473ffffffffffffffffffffffffffffffffffffffff1673ffffffffffffffffffffffffffffffffffffffff16630b7055786040518163ffffffff1660e01b8152600401602060405180830381865afa15801562000126573d6000803e3d6000fd5b505050506040513d601f19601f820116820180604052508101906200014c9190620002cf565b600260006101000a81548173ffffffffffffffffffffffffffffffffffffffff021916908373ffffffffffffffffffffffffffffffffffffffff160217905550505062000301565b600080fd5b600073ffffffffffffffffffffffffffffffffffffffff82169050919050565b6000620001c68262000199565b9050919050565b6000620001da82620001b9565b9050919050565b620001ec81620001cd565b8114620001f857600080fd5b50565b6000815190506200020c81620001e1565b92915050565b60006200021f82620001b9565b9050919050565b620002318162000212565b81146200023d57600080fd5b50565b600081519050620002518162000226565b92915050565b6000806040838503121562000271576200027062000194565b5b60006200028185828601620001fb565b9250506020620002948582860162000240565b9150509250929050565b620002a981620001b9565b8114620002b557600080fd5b50565b600081519050620002c9816200029e565b92915050565b600060208284031215620002e857620002e762000194565b5b6000620002f884828501620002b8565b91505092915050565b610c4080620003116000396000f3fe608060405234801561001057600080fd5b50600436106100365760003560e01c8063a6b01b451461003b578063c143f5f714610057575b600080fd5b61005560048036038101906100509190610772565b610073565b005b610071600480360381019061006c91906107f1565b61025e565b005b600033905060008054906101000a900473ffffffffffffffffffffffffffffffffffffffff1673ffffffffffffffffffffffffffffffffffffffff166323b872dd82600260009054906101000a900473ffffffffffffffffffffffffffffffffffffffff16600160009054906101000a900473ffffffffffffffffffffffffffffffffffffffff1673ffffffffffffffffffffffffffffffffffffffff166387bb7ae06040518163ffffffff1660e01b8152600401602060405180830381865afa158015610145573d6000803e3d6000fd5b505050506040513d601f19601f820116820180604052508101906101699190610862565b6040518463ffffffff1660e01b8152600401610187939291906108df565b6020604051808303816000875af11580156101a6573d6000803e3d6000fd5b505050506040513d601f19601f820116820180604052508101906101ca919061094e565b50600160009054906101000a900473ffffffffffffffffffffffffffffffffffffffff1673ffffffffffffffffffffffffffffffffffffffff1663b10d2e2a82846040518363ffffffff1660e01b81526004016102289291906109fa565b600060405180830381600087803b15801561024257600080fd5b505af1158015610256573d6000803e3d6000fd5b505050505050565b6000600160009054906101000a900473ffffffffffffffffffffffffffffffffffffffff1673ffffffffffffffffffffffffffffffffffffffff16636352211e846040518263ffffffff1660e01b81526004016102bb9190610a2a565b602060405180830381865afa1580156102d8573d6000803e3d6000fd5b505050506040513d601f19601f820116820180604052508101906102fc9190610a71565b905060003390506000600160009054906101000a900473ffffffffffffffffffffffffffffffffffffffff1673ffffffffffffffffffffffffffffffffffffffff1663569e35db866040518263ffffffff1660e01b81526004016103609190610a2a565b602060405180830381865afa15801561037d573d6000803e3d6000fd5b505050506040513d601f19601f820116820180604052508101906103a19190610862565b905060006064600a836103b49190610acd565b6103be9190610b3e565b905060008054906101000a900473ffffffffffffffffffffffffffffffffffffffff1673ffffffffffffffffffffffffffffffffffffffff166323b872dd8486848661040a9190610b6f565b6040518463ffffffff1660e01b8152600401610428939291906108df565b6020604051808303816000875af1158015610447573d6000803e3d6000fd5b505050506040513d601f19601f8201168201806040525081019061046b919061094e565b5060008054906101000a900473ffffffffffffffffffffffffffffffffffffffff1673ffffffffffffffffffffffffffffffffffffffff166323b872dd84600260009054906101000a900473ffffffffffffffffffffffffffffffffffffffff16846040518463ffffffff1660e01b81526004016104eb939291906108df565b6020604051808303816000875af115801561050a573d6000803e3d6000fd5b505050506040513d601f19601f8201168201806040525081019061052e919061094e565b50600160009054906101000a900473ffffffffffffffffffffffffffffffffffffffff1673ffffffffffffffffffffffffffffffffffffffff1663f7dfbdbe8488886040518463ffffffff1660e01b815260040161058e93929190610ba3565b600060405180830381600087803b1580156105a857600080fd5b505af11580156105bc573d6000803e3d6000fd5b505050508273ffffffffffffffffffffffffffffffffffffffff167f22e3ae3a20c49dce14046235895c7a3ffc0a6a5f3577c370177ad45fa619485d8588604051610608929190610be1565b60405180910390a2505050505050565b6000604051905090565b600080fd5b600080fd5b600080fd5b600080fd5b6000601f19601f8301169050919050565b7f4e487b7100000000000000000000000000000000000000000000000000000000600052604160045260246000fd5b61067f82610636565b810181811067ffffffffffffffff8211171561069e5761069d610647565b5b80604052505050565b60006106b1610618565b90506106bd8282610676565b919050565b600067ffffffffffffffff8211156106dd576106dc610647565b5b6106e682610636565b9050602081019050919050565b82818337600083830152505050565b6000610715610710846106c2565b6106a7565b90508281526020810184848401111561073157610730610631565b5b61073c8482856106f3565b509392505050565b600082601f8301126107595761075861062c565b5b8135610769848260208601610702565b91505092915050565b60006020828403121561078857610787610622565b5b600082013567ffffffffffffffff8111156107a6576107a5610627565b5b6107b284828501610744565b91505092915050565b6000819050919050565b6107ce816107bb565b81146107d957600080fd5b50565b6000813590506107eb816107c5565b92915050565b6000806040838503121561080857610807610622565b5b6000610816858286016107dc565b925050602083013567ffffffffffffffff81111561083757610836610627565b5b61084385828601610744565b9150509250929050565b60008151905061085c816107c5565b92915050565b60006020828403121561087857610877610622565b5b60006108868482850161084d565b91505092915050565b600073ffffffffffffffffffffffffffffffffffffffff82169050919050565b60006108ba8261088f565b9050919050565b6108ca816108af565b82525050565b6108d9816107bb565b82525050565b60006060820190506108f460008301866108c1565b61090160208301856108c1565b61090e60408301846108d0565b949350505050565b60008115159050919050565b61092b81610916565b811461093657600080fd5b50565b60008151905061094881610922565b92915050565b60006020828403121561096457610963610622565b5b600061097284828501610939565b91505092915050565b600081519050919050565b600082825260208201905092915050565b60005b838110156109b557808201518184015260208101905061099a565b60008484015250505050565b60006109cc8261097b565b6109d68185610986565b93506109e6818560208601610997565b6109ef81610636565b840191505092915050565b6000604082019050610a0f60008301856108c1565b8181036020830152610a2181846109c1565b90509392505050565b6000602082019050610a3f60008301846108d0565b92915050565b610a4e816108af565b8114610a5957600080fd5b50565b600081519050610a6b81610a45565b92915050565b600060208284031215610a8757610a86610622565b5b6000610a9584828501610a5c565b91505092915050565b7f4e487b7100000000000000000000000000000000000000000000000000000000600052601160045260246000fd5b6000610ad8826107bb565b9150610ae3836107bb565b9250828202610af1816107bb565b91508282048414831517610b0857610b07610a9e565b5b5092915050565b7f4e487b7100000000000000000000000000000000000000000000000000000000600052601260045260246000fd5b6000610b49826107bb565b9150610b54836107bb565b925082610b6457610b63610b0f565b5b828204905092915050565b6000610b7a826107bb565b9150610b85836107bb565b9250828203905081811115610b9d57610b9c610a9e565b5b92915050565b6000606082019050610bb860008301866108c1565b610bc560208301856108d0565b8181036040830152610bd781846109c1565b9050949350505050565b6000604082019050610bf660008301856108c1565b610c0360208301846108d0565b939250505056fea26469706673582212207e582ad3d4513caaf4ef04c6c2af0ed6f837b8600caf4190a2853edba4fc954b64736f6c63430008110033a2646970667358221220cfb3e1b167b1c913eaa0dbe9620763b8ef7ea74f10cc66a871ea4d8d265b557064736f6c63430008110033",
  "linkReferences": {},
  "deployedLinkReferences": {}
}