{
  "_format": "hh-sol-artifact-1",
  "contractName": "EventMarketplace",
  "sourceName": "contracts/NFTTicket.sol",
  "abi": [
    {
      "inputs": [
        {
          "internalType": "contract EventToken",
          "name": "token",
          "type": "address"
        },
        {
          "internalType": "contract EventNFT",
          "name": "eventNFT",
          "type": "address"
        }
      ],
      "stateMutability": "nonpayable",
      "type": "constructor"
    },
    {
      "anonymous": false,
      "inputs": [
        {
          "indexed": true,
          "internalType": "address",
          "name": "buyer",
          "type": "address"
        },
        {
          "indexed": false,
          "internalType": "address",
          "name": "seller",
          "type": "address"
        },
        {
          "indexed": false,
          "internalType": "uint256",
          "name": "ticketId",
          "type": "uint256"
        }
      ],
      "name": "Purchase",
      "type": "event"
    },
    {
      "inputs": [
        {
          "internalType": "string",
          "name": "tokenURI",
          "type": "string"
        }
      ],
      "name": "purchaseTicket",
      "outputs": [],
      "stateMutability": "nonpayable",
      "type": "function"
    },
    {
      "inputs": [
        {
          "internalType": "uint256",
          "name": "ticketId",
          "type": "uint256"
        },
        {
          "internalType": "string",
          "name": "tokenURI",
          "type": "string"
        }
      ],
      "name": "secondaryPurchase",
      "outputs": [],
      "stateMutability": "nonpayable",
      "type": "function"
    }
  ],
  "bytecode": "0x60806040523480156200001157600080fd5b5060405162000f5138038062000f51833981810160405281019062000037919062000257565b816000806101000a81548173ffffffffffffffffffffffffffffffffffffffff021916908373ffffffffffffffffffffffffffffffffffffffff16021790555080600160006101000a81548173ffffffffffffffffffffffffffffffffffffffff021916908373ffffffffffffffffffffffffffffffffffffffff160217905550600160009054906101000a900473ffffffffffffffffffffffffffffffffffffffff1673ffffffffffffffffffffffffffffffffffffffff16630b7055786040518163ffffffff1660e01b8152600401602060405180830381865afa15801562000126573d6000803e3d6000fd5b505050506040513d601f19601f820116820180604052508101906200014c9190620002cf565b600260006101000a81548173ffffffffffffffffffffffffffffffffffffffff021916908373ffffffffffffffffffffffffffffffffffffffff160217905550505062000301565b600080fd5b600073ffffffffffffffffffffffffffffffffffffffff82169050919050565b6000620001c68262000199565b9050919050565b6000620001da82620001b9565b9050919050565b620001ec81620001cd565b8114620001f857600080fd5b50565b6000815190506200020c81620001e1565b92915050565b60006200021f82620001b9565b9050919050565b620002318162000212565b81146200023d57600080fd5b50565b600081519050620002518162000226565b92915050565b6000806040838503121562000271576200027062000194565b5b60006200028185828601620001fb565b9250506020620002948582860162000240565b9150509250929050565b620002a981620001b9565b8114620002b557600080fd5b50565b600081519050620002c9816200029e565b92915050565b600060208284031215620002e857620002e762000194565b5b6000620002f884828501620002b8565b91505092915050565b610c4080620003116000396000f3fe608060405234801561001057600080fd5b50600436106100365760003560e01c8063a6b01b451461003b578063c143f5f714610057575b600080fd5b61005560048036038101906100509190610772565b610073565b005b610071600480360381019061006c91906107f1565b61025e565b005b600033905060008054906101000a900473ffffffffffffffffffffffffffffffffffffffff1673ffffffffffffffffffffffffffffffffffffffff166323b872dd82600260009054906101000a900473ffffffffffffffffffffffffffffffffffffffff16600160009054906101000a900473ffffffffffffffffffffffffffffffffffffffff1673ffffffffffffffffffffffffffffffffffffffff166387bb7ae06040518163ffffffff1660e01b8152600401602060405180830381865afa158015610145573d6000803e3d6000fd5b505050506040513d601f19601f820116820180604052508101906101699190610862565b6040518463ffffffff1660e01b8152600401610187939291906108df565b6020604051808303816000875af11580156101a6573d6000803e3d6000fd5b505050506040513d601f19601f820116820180604052508101906101ca919061094e565b50600160009054906101000a900473ffffffffffffffffffffffffffffffffffffffff1673ffffffffffffffffffffffffffffffffffffffff1663b10d2e2a82846040518363ffffffff1660e01b81526004016102289291906109fa565b600060405180830381600087803b15801561024257600080fd5b505af1158015610256573d6000803e3d6000fd5b505050505050565b6000600160009054906101000a900473ffffffffffffffffffffffffffffffffffffffff1673ffffffffffffffffffffffffffffffffffffffff16636352211e846040518263ffffffff1660e01b81526004016102bb9190610a2a565b602060405180830381865afa1580156102d8573d6000803e3d6000fd5b505050506040513d601f19601f820116820180604052508101906102fc9190610a71565b905060003390506000600160009054906101000a900473ffffffffffffffffffffffffffffffffffffffff1673ffffffffffffffffffffffffffffffffffffffff1663569e35db866040518263ffffffff1660e01b81526004016103609190610a2a565b602060405180830381865afa15801561037d573d6000803e3d6000fd5b505050506040513d601f19601f820116820180604052508101906103a19190610862565b905060006064600a836103b49190610acd565b6103be9190610b3e565b905060008054906101000a900473ffffffffffffffffffffffffffffffffffffffff1673ffffffffffffffffffffffffffffffffffffffff166323b872dd8486848661040a9190610b6f565b6040518463ffffffff1660e01b8152600401610428939291906108df565b6020604051808303816000875af1158015610447573d6000803e3d6000fd5b505050506040513d601f19601f8201168201806040525081019061046b919061094e565b5060008054906101000a900473ffffffffffffffffffffffffffffffffffffffff1673ffffffffffffffffffffffffffffffffffffffff166323b872dd84600260009054906101000a900473ffffffffffffffffffffffffffffffffffffffff16846040518463ffffffff1660e01b81526004016104eb939291906108df565b6020604051808303816000875af115801561050a573d6000803e3d6000fd5b505050506040513d601f19601f8201168201806040525081019061052e919061094e565b50600160009054906101000a900473ffffffffffffffffffffffffffffffffffffffff1673ffffffffffffffffffffffffffffffffffffffff1663f7dfbdbe8488886040518463ffffffff1660e01b815260040161058e93929190610ba3565b600060405180830381600087803b1580156105a857600080fd5b505af11580156105bc573d6000803e3d6000fd5b505050508273ffffffffffffffffffffffffffffffffffffffff167f22e3ae3a20c49dce14046235895c7a3ffc0a6a5f3577c370177ad45fa619485d8588604051610608929190610be1565b60405180910390a2505050505050565b6000604051905090565b600080fd5b600080fd5b600080fd5b600080fd5b6000601f19601f8301169050919050565b7f4e487b7100000000000000000000000000000000000000000000000000000000600052604160045260246000fd5b61067f82610636565b810181811067ffffffffffffffff8211171561069e5761069d610647565b5b80604052505050565b60006106b1610618565b90506106bd8282610676565b919050565b600067ffffffffffffffff8211156106dd576106dc610647565b5b6106e682610636565b9050602081019050919050565b82818337600083830152505050565b6000610715610710846106c2565b6106a7565b90508281526020810184848401111561073157610730610631565b5b61073c8482856106f3565b509392505050565b600082601f8301126107595761075861062c565b5b8135610769848260208601610702565b91505092915050565b60006020828403121561078857610787610622565b5b600082013567ffffffffffffffff8111156107a6576107a5610627565b5b6107b284828501610744565b91505092915050565b6000819050919050565b6107ce816107bb565b81146107d957600080fd5b50565b6000813590506107eb816107c5565b92915050565b6000806040838503121561080857610807610622565b5b6000610816858286016107dc565b925050602083013567ffffffffffffffff81111561083757610836610627565b5b61084385828601610744565b9150509250929050565b60008151905061085c816107c5565b92915050565b60006020828403121561087857610877610622565b5b60006108868482850161084d565b91505092915050565b600073ffffffffffffffffffffffffffffffffffffffff82169050919050565b60006108ba8261088f565b9050919050565b6108ca816108af565b82525050565b6108d9816107bb565b82525050565b60006060820190506108f460008301866108c1565b61090160208301856108c1565b61090e60408301846108d0565b949350505050565b60008115159050919050565b61092b81610916565b811461093657600080fd5b50565b60008151905061094881610922565b92915050565b60006020828403121561096457610963610622565b5b600061097284828501610939565b91505092915050565b600081519050919050565b600082825260208201905092915050565b60005b838110156109b557808201518184015260208101905061099a565b60008484015250505050565b60006109cc8261097b565b6109d68185610986565b93506109e6818560208601610997565b6109ef81610636565b840191505092915050565b6000604082019050610a0f60008301856108c1565b8181036020830152610a2181846109c1565b90509392505050565b6000602082019050610a3f60008301846108d0565b92915050565b610a4e816108af565b8114610a5957600080fd5b50565b600081519050610a6b81610a45565b92915050565b600060208284031215610a8757610a86610622565b5b6000610a9584828501610a5c565b91505092915050565b7f4e487b7100000000000000000000000000000000000000000000000000000000600052601160045260246000fd5b6000610ad8826107bb565b9150610ae3836107bb565b9250828202610af1816107bb565b91508282048414831517610b0857610b07610a9e565b5b5092915050565b7f4e487b7100000000000000000000000000000000000000000000000000000000600052601260045260246000fd5b6000610b49826107bb565b9150610b54836107bb565b925082610b6457610b63610b0f565b5b828204905092915050565b6000610b7a826107bb565b9150610b85836107bb565b9250828203905081811115610b9d57610b9c610a9e565b5b92915050565b6000606082019050610bb860008301866108c1565b610bc560208301856108d0565b8181036040830152610bd781846109c1565b9050949350505050565b6000604082019050610bf660008301856108c1565b610c0360208301846108d0565b939250505056fea26469706673582212206229c1537ad966d7548d8e2636749c2b808317f4267593cb8db6f10ac28bb3d464736f6c63430008110033",
  "linkReferences": {},
  "deployedLinkReferences": {}
}