{
  "_format": "hh-sol-artifact-1",
  "contractName": "EventNFT",
  "sourceName": "contracts/NFTTicket.sol",
  "abi": [
    {
      "inputs": [
        {
          "internalType": "string",
          "name": "eventName",
          "type": "string"
        },
        {
          "internalType": "string",
          "name": "eventSymbol",
          "type": "string"
        },
        {
          "internalType": "string",
          "name": "imageHash",
          "type": "string"
        },
        {
          "internalType": "uint256",
          "name": "ticketPrice",
          "type": "uint256"
        },
        {
          "internalType": "uint256",
          "name": "totalSupply",
          "type": "uint256"
        },
        {
          "internalType": "address",
          "name": "organiser",
          "type": "address"
        }
      ],
      "stateMutability": "nonpayable",
      "type": "constructor"
    },
    {
      "anonymous": false,
      "inputs": [
        {
          "indexed": true,
          "internalType": "address",
          "name": "owner",
          "type": "address"
        },
        {
          "indexed": true,
          "internalType": "address",
          "name": "approved",
          "type": "address"
        },
        {
          "indexed": true,
          "internalType": "uint256",
          "name": "tokenId",
          "type": "uint256"
        }
      ],
      "name": "Approval",
      "type": "event"
    },
    {
      "anonymous": false,
      "inputs": [
        {
          "indexed": true,
          "internalType": "address",
          "name": "owner",
          "type": "address"
        },
        {
          "indexed": true,
          "internalType": "address",
          "name": "operator",
          "type": "address"
        },
        {
          "indexed": false,
          "internalType": "bool",
          "name": "approved",
          "type": "bool"
        }
      ],
      "name": "ApprovalForAll",
      "type": "event"
    },
    {
      "anonymous": false,
      "inputs": [
        {
          "indexed": true,
          "internalType": "address",
          "name": "from",
          "type": "address"
        },
        {
          "indexed": true,
          "internalType": "address",
          "name": "to",
          "type": "address"
        },
        {
          "indexed": true,
          "internalType": "uint256",
          "name": "tokenId",
          "type": "uint256"
        }
      ],
      "name": "Transfer",
      "type": "event"
    },
    {
      "inputs": [],
      "name": "MINTER_ROLE",
      "outputs": [
        {
          "internalType": "bytes32",
          "name": "",
          "type": "bytes32"
        }
      ],
      "stateMutability": "view",
      "type": "function"
    },
    {
      "inputs": [
        {
          "internalType": "address",
          "name": "to",
          "type": "address"
        },
        {
          "internalType": "uint256",
          "name": "tokenId",
          "type": "uint256"
        }
      ],
      "name": "approve",
      "outputs": [],
      "stateMutability": "nonpayable",
      "type": "function"
    },
    {
      "inputs": [
        {
          "internalType": "address",
          "name": "owner",
          "type": "address"
        }
      ],
      "name": "balanceOf",
      "outputs": [
        {
          "internalType": "uint256",
          "name": "",
          "type": "uint256"
        }
      ],
      "stateMutability": "view",
      "type": "function"
    },
    {
      "inputs": [
        {
          "internalType": "uint256",
          "name": "numOfTickets",
          "type": "uint256"
        },
        {
          "internalType": "address",
          "name": "operator",
          "type": "address"
        }
      ],
      "name": "bulkMintTickets",
      "outputs": [],
      "stateMutability": "nonpayable",
      "type": "function"
    },
    {
      "inputs": [
        {
          "internalType": "uint256",
          "name": "tokenId",
          "type": "uint256"
        }
      ],
      "name": "getApproved",
      "outputs": [
        {
          "internalType": "address",
          "name": "",
          "type": "address"
        }
      ],
      "stateMutability": "view",
      "type": "function"
    },
    {
      "inputs": [],
      "name": "getNextSaleTicketId",
      "outputs": [
        {
          "internalType": "uint256",
          "name": "",
          "type": "uint256"
        }
      ],
      "stateMutability": "view",
      "type": "function"
    },
    {
      "inputs": [],
      "name": "getOrganiser",
      "outputs": [
        {
          "internalType": "address",
          "name": "",
          "type": "address"
        }
      ],
      "stateMutability": "view",
      "type": "function"
    },
    {
      "inputs": [
        {
          "internalType": "uint256",
          "name": "ticketId",
          "type": "uint256"
        }
      ],
      "name": "getSellingPrice",
      "outputs": [
        {
          "internalType": "uint256",
          "name": "",
          "type": "uint256"
        }
      ],
      "stateMutability": "view",
      "type": "function"
    },
    {
      "inputs": [
        {
          "internalType": "uint256",
          "name": "ticketId",
          "type": "uint256"
        }
      ],
      "name": "getTicketDetails",
      "outputs": [
        {
          "internalType": "uint256",
          "name": "purchasePrice",
          "type": "uint256"
        },
        {
          "internalType": "uint256",
          "name": "sellingPrice",
          "type": "uint256"
        },
        {
          "internalType": "bool",
          "name": "forSale",
          "type": "bool"
        }
      ],
      "stateMutability": "view",
      "type": "function"
    },
    {
      "inputs": [],
      "name": "getTicketPrice",
      "outputs": [
        {
          "internalType": "uint256",
          "name": "",
          "type": "uint256"
        }
      ],
      "stateMutability": "view",
      "type": "function"
    },
    {
      "inputs": [],
      "name": "getTicketsForSale",
      "outputs": [
        {
          "internalType": "uint256[]",
          "name": "",
          "type": "uint256[]"
        }
      ],
      "stateMutability": "view",
      "type": "function"
    },
    {
      "inputs": [
        {
          "internalType": "address",
          "name": "customer",
          "type": "address"
        }
      ],
      "name": "getTicketsOfCustomer",
      "outputs": [
        {
          "internalType": "uint256[]",
          "name": "",
          "type": "uint256[]"
        }
      ],
      "stateMutability": "view",
      "type": "function"
    },
    {
      "inputs": [
        {
          "internalType": "address",
          "name": "owner",
          "type": "address"
        },
        {
          "internalType": "address",
          "name": "operator",
          "type": "address"
        }
      ],
      "name": "isApprovedForAll",
      "outputs": [
        {
          "internalType": "bool",
          "name": "",
          "type": "bool"
        }
      ],
      "stateMutability": "view",
      "type": "function"
    },
    {
      "inputs": [],
      "name": "name",
      "outputs": [
        {
          "internalType": "string",
          "name": "",
          "type": "string"
        }
      ],
      "stateMutability": "view",
      "type": "function"
    },
    {
      "inputs": [
        {
          "internalType": "uint256",
          "name": "tokenId",
          "type": "uint256"
        }
      ],
      "name": "ownerOf",
      "outputs": [
        {
          "internalType": "address",
          "name": "",
          "type": "address"
        }
      ],
      "stateMutability": "view",
      "type": "function"
    },
    {
      "inputs": [
        {
          "internalType": "address",
          "name": "from",
          "type": "address"
        },
        {
          "internalType": "address",
          "name": "to",
          "type": "address"
        },
        {
          "internalType": "uint256",
          "name": "tokenId",
          "type": "uint256"
        }
      ],
      "name": "safeTransferFrom",
      "outputs": [],
      "stateMutability": "nonpayable",
      "type": "function"
    },
    {
      "inputs": [
        {
          "internalType": "address",
          "name": "from",
          "type": "address"
        },
        {
          "internalType": "address",
          "name": "to",
          "type": "address"
        },
        {
          "internalType": "uint256",
          "name": "tokenId",
          "type": "uint256"
        },
        {
          "internalType": "bytes",
          "name": "data",
          "type": "bytes"
        }
      ],
      "name": "safeTransferFrom",
      "outputs": [],
      "stateMutability": "nonpayable",
      "type": "function"
    },
    {
      "inputs": [
        {
          "internalType": "address",
          "name": "buyer",
          "type": "address"
        },
        {
          "internalType": "uint256",
          "name": "saleTicketId",
          "type": "uint256"
        },
        {
          "internalType": "string",
          "name": "tokenURI",
          "type": "string"
        }
      ],
      "name": "secondaryTransferTicket",
      "outputs": [],
      "stateMutability": "nonpayable",
      "type": "function"
    },
    {
      "inputs": [
        {
          "internalType": "address",
          "name": "operator",
          "type": "address"
        },
        {
          "internalType": "bool",
          "name": "approved",
          "type": "bool"
        }
      ],
      "name": "setApprovalForAll",
      "outputs": [],
      "stateMutability": "nonpayable",
      "type": "function"
    },
    {
      "inputs": [
        {
          "internalType": "uint256",
          "name": "ticketId",
          "type": "uint256"
        },
        {
          "internalType": "address",
          "name": "operator",
          "type": "address"
        }
      ],
      "name": "setSaleDetails",
      "outputs": [],
      "stateMutability": "nonpayable",
      "type": "function"
    },
    {
      "inputs": [
        {
          "internalType": "bytes4",
          "name": "interfaceId",
          "type": "bytes4"
        }
      ],
      "name": "supportsInterface",
      "outputs": [
        {
          "internalType": "bool",
          "name": "",
          "type": "bool"
        }
      ],
      "stateMutability": "view",
      "type": "function"
    },
    {
      "inputs": [],
      "name": "symbol",
      "outputs": [
        {
          "internalType": "string",
          "name": "",
          "type": "string"
        }
      ],
      "stateMutability": "view",
      "type": "function"
    },
    {
      "inputs": [],
      "name": "ticketCounts",
      "outputs": [
        {
          "internalType": "uint256",
          "name": "",
          "type": "uint256"
        }
      ],
      "stateMutability": "view",
      "type": "function"
    },
    {
      "inputs": [
        {
          "internalType": "uint256",
          "name": "tokenId",
          "type": "uint256"
        }
      ],
      "name": "tokenURI",
      "outputs": [
        {
          "internalType": "string",
          "name": "",
          "type": "string"
        }
      ],
      "stateMutability": "view",
      "type": "function"
    },
    {
      "inputs": [
        {
          "internalType": "address",
          "name": "from",
          "type": "address"
        },
        {
          "internalType": "address",
          "name": "to",
          "type": "address"
        },
        {
          "internalType": "uint256",
          "name": "tokenId",
          "type": "uint256"
        }
      ],
      "name": "transferFrom",
      "outputs": [],
      "stateMutability": "nonpayable",
      "type": "function"
    },
    {
      "inputs": [
        {
          "internalType": "address",
          "name": "buyer",
          "type": "address"
        },
        {
          "internalType": "string",
          "name": "tokenURI",
          "type": "string"
        }
      ],
      "name": "transferTicket",
      "outputs": [],
      "stateMutability": "nonpayable",
      "type": "function"
    }
  ],
  "bytecode": "0x60806040523480156200001157600080fd5b5060405162004860380380620048608339818101604052810190620000379190620002ff565b858581600090816200004a919062000639565b5080600190816200005c919062000639565b50505082600d8190555081600e8190555080600960006101000a81548173ffffffffffffffffffffffffffffffffffffffff021916908373ffffffffffffffffffffffffffffffffffffffff16021790555083600a9081620000bf919062000639565b5050505050505062000720565b6000604051905090565b600080fd5b600080fd5b600080fd5b600080fd5b6000601f19601f8301169050919050565b7f4e487b7100000000000000000000000000000000000000000000000000000000600052604160045260246000fd5b6200013582620000ea565b810181811067ffffffffffffffff82111715620001575762000156620000fb565b5b80604052505050565b60006200016c620000cc565b90506200017a82826200012a565b919050565b600067ffffffffffffffff8211156200019d576200019c620000fb565b5b620001a882620000ea565b9050602081019050919050565b60005b83811015620001d5578082015181840152602081019050620001b8565b60008484015250505050565b6000620001f8620001f2846200017f565b62000160565b905082815260208101848484011115620002175762000216620000e5565b5b62000224848285620001b5565b509392505050565b600082601f830112620002445762000243620000e0565b5b815162000256848260208601620001e1565b91505092915050565b6000819050919050565b62000274816200025f565b81146200028057600080fd5b50565b600081519050620002948162000269565b92915050565b600073ffffffffffffffffffffffffffffffffffffffff82169050919050565b6000620002c7826200029a565b9050919050565b620002d981620002ba565b8114620002e557600080fd5b50565b600081519050620002f981620002ce565b92915050565b60008060008060008060c087890312156200031f576200031e620000d6565b5b600087015167ffffffffffffffff81111562000340576200033f620000db565b5b6200034e89828a016200022c565b965050602087015167ffffffffffffffff811115620003725762000371620000db565b5b6200038089828a016200022c565b955050604087015167ffffffffffffffff811115620003a457620003a3620000db565b5b620003b289828a016200022c565b9450506060620003c589828a0162000283565b9350506080620003d889828a0162000283565b92505060a0620003eb89828a01620002e8565b9150509295509295509295565b600081519050919050565b7f4e487b7100000000000000000000000000000000000000000000000000000000600052602260045260246000fd5b600060028204905060018216806200044b57607f821691505b60208210810362000461576200046062000403565b5b50919050565b60008190508160005260206000209050919050565b60006020601f8301049050919050565b600082821b905092915050565b600060088302620004cb7fffffffffffffffffffffffffffffffffffffffffffffffffffffffffffffffff826200048c565b620004d786836200048c565b95508019841693508086168417925050509392505050565b6000819050919050565b60006200051a620005146200050e846200025f565b620004ef565b6200025f565b9050919050565b6000819050919050565b6200053683620004f9565b6200054e620005458262000521565b84845462000499565b825550505050565b600090565b6200056562000556565b620005728184846200052b565b505050565b5b818110156200059a576200058e6000826200055b565b60018101905062000578565b5050565b601f821115620005e957620005b38162000467565b620005be846200047c565b81016020851015620005ce578190505b620005e6620005dd856200047c565b83018262000577565b50505b505050565b600082821c905092915050565b60006200060e60001984600802620005ee565b1980831691505092915050565b6000620006298383620005fb565b9150826002028217905092915050565b6200064482620003f8565b67ffffffffffffffff81111562000660576200065f620000fb565b5b6200066c825462000432565b620006798282856200059e565b600060209050601f831160018114620006b157600084156200069c578287015190505b620006a885826200061b565b86555062000718565b601f198416620006c18662000467565b60005b82811015620006eb57848901518255600182019150602085019450602081019050620006c4565b868310156200070b578489015162000707601f891682620005fb565b8355505b6001600288020188555050505b505050505050565b61413080620007306000396000f3fe608060405234801561001057600080fd5b506004361061018e5760003560e01c8063750e024c116100de578063b88d4fde11610097578063e3278ad611610071578063e3278ad6146104ab578063e985e9c5146104c9578063f37149a2146104f9578063f7dfbdbe146105155761018e565b8063b88d4fde14610441578063c87b56dd1461045d578063d53913931461048d5761018e565b8063750e024c1461038157806387bb7ae01461039d57806395d89b41146103bb578063a22cb465146103d9578063b10d2e2a146103f5578063b632c9e4146104115761018e565b806323b872dd1161014b57806342842e0e1161012557806342842e0e146102d5578063569e35db146102f15780636352211e1461032157806370a08231146103515761018e565b806323b872dd1461026957806324c141601461028557806335fe12d8146102b75761018e565b806301ffc9a714610193578063065366ee146101c357806306fdde03146101e1578063081812fc146101ff578063095ea7b31461022f5780630b7055781461024b575b600080fd5b6101ad60048036038101906101a89190612955565b610531565b6040516101ba919061299d565b60405180910390f35b6101cb610613565b6040516101d891906129d1565b60405180910390f35b6101e9610624565b6040516101f69190612a7c565b60405180910390f35b61021960048036038101906102149190612aca565b6106b6565b6040516102269190612b38565b60405180910390f35b61024960048036038101906102449190612b7f565b6106fc565b005b610253610813565b6040516102609190612b38565b60405180910390f35b610283600480360381019061027e9190612bbf565b61083d565b005b61029f600480360381019061029a9190612aca565b61089d565b6040516102ae93929190612c12565b60405180910390f35b6102bf610901565b6040516102cc9190612d07565b60405180910390f35b6102ef60048036038101906102ea9190612bbf565b610959565b005b61030b60048036038101906103069190612aca565b610979565b60405161031891906129d1565b60405180910390f35b61033b60048036038101906103369190612aca565b610999565b6040516103489190612b38565b60405180910390f35b61036b60048036038101906103669190612d29565b610a1f565b60405161037891906129d1565b60405180910390f35b61039b60048036038101906103969190612d56565b610ad6565b005b6103a5610ba7565b6040516103b291906129d1565b60405180910390f35b6103c3610bb1565b6040516103d09190612a7c565b60405180910390f35b6103f360048036038101906103ee9190612dc2565b610c43565b005b61040f600480360381019061040a9190612f37565b610c59565b005b61042b60048036038101906104269190612d29565b610de0565b6040516104389190612d07565b60405180910390f35b61045b60048036038101906104569190613034565b610e77565b005b61047760048036038101906104729190612aca565b610ed9565b6040516104849190612a7c565b60405180910390f35b610495610feb565b6040516104a291906130d0565b60405180910390f35b6104b361100f565b6040516104c091906129d1565b60405180910390f35b6104e360048036038101906104de91906130eb565b611020565b6040516104f0919061299d565b60405180910390f35b610513600480360381019061050e9190612d56565b6110b4565b005b61052f600480360381019061052a919061312b565b6111ef565b005b60007f80ac58cd000000000000000000000000000000000000000000000000000000007bffffffffffffffffffffffffffffffffffffffffffffffffffffffff1916827bffffffffffffffffffffffffffffffffffffffffffffffffffffffff191614806105fc57507f5b5e139f000000000000000000000000000000000000000000000000000000007bffffffffffffffffffffffffffffffffffffffffffffffffffffffff1916827bffffffffffffffffffffffffffffffffffffffffffffffffffffffff1916145b8061060c575061060b82611425565b5b9050919050565b600061061f600861148f565b905090565b606060008054610633906131c9565b80601f016020809104026020016040519081016040528092919081815260200182805461065f906131c9565b80156106ac5780601f10610681576101008083540402835291602001916106ac565b820191906000526020600020905b81548152906001019060200180831161068f57829003601f168201915b5050505050905090565b60006106c18261149d565b6004600083815260200190815260200160002060009054906101000a900473ffffffffffffffffffffffffffffffffffffffff169050919050565b600061070782610999565b90508073ffffffffffffffffffffffffffffffffffffffff168373ffffffffffffffffffffffffffffffffffffffff1603610777576040517f08c379a000000000000000000000000000000000000000000000000000000000815260040161076e9061326c565b60405180910390fd5b8073ffffffffffffffffffffffffffffffffffffffff166107966114e8565b73ffffffffffffffffffffffffffffffffffffffff1614806107c557506107c4816107bf6114e8565b611020565b5b610804576040517f08c379a00000000000000000000000000000000000000000000000000000000081526004016107fb906132fe565b60405180910390fd5b61080e83836114f0565b505050565b6000600960009054906101000a900473ffffffffffffffffffffffffffffffffffffffff16905090565b61084e6108486114e8565b826115a9565b61088d576040517f08c379a000000000000000000000000000000000000000000000000000000000815260040161088490613390565b60405180910390fd5b61089883838361163e565b505050565b6000806000600f600085815260200190815260200160002060000154600f600086815260200190815260200160002060010154600f600087815260200190815260200160002060020160009054906101000a900460ff169250925092509193909250565b6060600c80548060200260200160405190810160405280929190818152602001828054801561094f57602002820191906000526020600020905b81548152602001906001019080831161093b575b5050505050905090565b61097483838360405180602001604052806000815250610e77565b505050565b6000600f6000838152602001908152602001600020600101549050919050565b6000806109a583611937565b9050600073ffffffffffffffffffffffffffffffffffffffff168173ffffffffffffffffffffffffffffffffffffffff1603610a16576040517f08c379a0000000000000000000000000000000000000000000000000000000008152600401610a0d906133fc565b60405180910390fd5b80915050919050565b60008073ffffffffffffffffffffffffffffffffffffffff168273ffffffffffffffffffffffffffffffffffffffff1603610a8f576040517f08c379a0000000000000000000000000000000000000000000000000000000008152600401610a869061348e565b60405180910390fd5b600360008373ffffffffffffffffffffffffffffffffffffffff1673ffffffffffffffffffffffffffffffffffffffff168152602001908152602001600020549050919050565b600e54610ae3600761148f565b10610b23576040517f08c379a0000000000000000000000000000000000000000000000000000000008152600401610b1a906134fa565b60405180910390fd5b6103e882610b2f61100f565b610b399190613549565b1115610b7a576040517f08c379a0000000000000000000000000000000000000000000000000000000008152600401610b71906135ef565b60405180910390fd5b60005b82811015610ba257610b8e82611974565b508080610b9a9061360f565b915050610b7d565b505050565b6000600d54905090565b606060018054610bc0906131c9565b80601f0160208091040260200160405190810160405280929190818152602001828054610bec906131c9565b8015610c395780601f10610c0e57610100808354040283529160200191610c39565b820191906000526020600020905b815481529060010190602001808311610c1c57829003601f168201915b5050505050905090565b610c55610c4e6114e8565b8383611a9c565b5050565b610c636008611c08565b6000610c6f600861148f565b9050610c7a81610999565b73ffffffffffffffffffffffffffffffffffffffff163373ffffffffffffffffffffffffffffffffffffffff1614610ce7576040517f08c379a0000000000000000000000000000000000000000000000000000000008152600401610cde906136a3565b60405180910390fd5b610cfa610cf382610999565b848361083d565b610d048183611c1e565b610d0d83611c8b565b610d7557600b839080600181540180825580915050600190039060005260206000200160009091909190916101000a81548173ffffffffffffffffffffffffffffffffffffffff021916908373ffffffffffffffffffffffffffffffffffffffff1602179055505b601060008473ffffffffffffffffffffffffffffffffffffffff1673ffffffffffffffffffffffffffffffffffffffff168152602001908152602001600020819080600181540180825580915050600190039060005260206000200160009091909190915055505050565b6060601060008373ffffffffffffffffffffffffffffffffffffffff1673ffffffffffffffffffffffffffffffffffffffff168152602001908152602001600020805480602002602001604051908101604052809291908181526020018280548015610e6b57602002820191906000526020600020905b815481526020019060010190808311610e57575b50505050509050919050565b610e88610e826114e8565b836115a9565b610ec7576040517f08c379a0000000000000000000000000000000000000000000000000000000008152600401610ebe90613390565b60405180910390fd5b610ed384848484611d39565b50505050565b6060610ee48261149d565b6000600660008481526020019081526020016000208054610f04906131c9565b80601f0160208091040260200160405190810160405280929190818152602001828054610f30906131c9565b8015610f7d5780601f10610f5257610100808354040283529160200191610f7d565b820191906000526020600020905b815481529060010190602001808311610f6057829003601f168201915b505050505090506000610f8e611d95565b90506000815103610fa3578192505050610fe6565b600082511115610fd8578082604051602001610fc09291906136ff565b60405160208183030381529060405292505050610fe6565b610fe184611dac565b925050505b919050565b7f9f2df0fed2c77648de5860a4cc508cd0818c85b8b8a1ab4ceeef8d981c8956a681565b600061101b600761148f565b905090565b6000600560008473ffffffffffffffffffffffffffffffffffffffff1673ffffffffffffffffffffffffffffffffffffffff16815260200190815260200160002060008373ffffffffffffffffffffffffffffffffffffffff1673ffffffffffffffffffffffffffffffffffffffff16815260200190815260200160002060009054906101000a900460ff16905092915050565b6000600f60008481526020019081526020016000206000015490503373ffffffffffffffffffffffffffffffffffffffff16600960009054906101000a900473ffffffffffffffffffffffffffffffffffffffff1673ffffffffffffffffffffffffffffffffffffffff160361115f576040517f08c379a000000000000000000000000000000000000000000000000000000000815260040161115690613795565b60405180910390fd5b80600f6000858152602001908152602001600020600101819055506001600f600085815260200190815260200160002060020160006101000a81548160ff0219169083151502179055506111b283611e14565b6111e057600c8390806001815401808255809150506001900390600052602060002001600090919091909150555b6111ea82846106fc565b505050565b816000600f60008381526020019081526020016000206000015490506000600f6000848152602001908152602001600020600101549050806064606e8461123691906137b5565b6112409190613826565b8361124b9190613549565b1161128b576040517f08c379a0000000000000000000000000000000000000000000000000000000008152600401611282906138c9565b60405180910390fd5b600061129686610999565b90506000600f60008881526020019081526020016000206001015490506112be82898961083d565b6112c88787611c1e565b6112d188611c8b565b61133957600b889080600181540180825580915050600190039060005260206000200160009091909190916101000a81548173ffffffffffffffffffffffffffffffffffffffff021916908373ffffffffffffffffffffffffffffffffffffffff1602179055505b601060008973ffffffffffffffffffffffffffffffffffffffff1673ffffffffffffffffffffffffffffffffffffffff1681526020019081526020016000208790806001815401808255809150506001900390600052602060002001600090919091909150556113a98288611e76565b6113b28761209e565b60405180606001604052808281526020016000815260200160001515815250600f6000898152602001908152602001600020600082015181600001556020820151816001015560408201518160020160006101000a81548160ff0219169083151502179055509050505050505050505050565b60007f01ffc9a7000000000000000000000000000000000000000000000000000000007bffffffffffffffffffffffffffffffffffffffffffffffffffffffff1916827bffffffffffffffffffffffffffffffffffffffffffffffffffffffff1916149050919050565b600081600001549050919050565b6114a681612194565b6114e5576040517f08c379a00000000000000000000000000000000000000000000000000000000081526004016114dc906133fc565b60405180910390fd5b50565b600033905090565b816004600083815260200190815260200160002060006101000a81548173ffffffffffffffffffffffffffffffffffffffff021916908373ffffffffffffffffffffffffffffffffffffffff160217905550808273ffffffffffffffffffffffffffffffffffffffff1661156383610999565b73ffffffffffffffffffffffffffffffffffffffff167f8c5be1e5ebec7d5bd14f71427d1e84f3dd0314c0f7b2291e5b200ac8c7c3b92560405160405180910390a45050565b6000806115b583610999565b90508073ffffffffffffffffffffffffffffffffffffffff168473ffffffffffffffffffffffffffffffffffffffff1614806115f757506115f68185611020565b5b8061163557508373ffffffffffffffffffffffffffffffffffffffff1661161d846106b6565b73ffffffffffffffffffffffffffffffffffffffff16145b91505092915050565b8273ffffffffffffffffffffffffffffffffffffffff1661165e82610999565b73ffffffffffffffffffffffffffffffffffffffff16146116b4576040517f08c379a00000000000000000000000000000000000000000000000000000000081526004016116ab9061395b565b60405180910390fd5b600073ffffffffffffffffffffffffffffffffffffffff168273ffffffffffffffffffffffffffffffffffffffff1603611723576040517f08c379a000000000000000000000000000000000000000000000000000000000815260040161171a906139ed565b60405180910390fd5b61173083838360016121d5565b8273ffffffffffffffffffffffffffffffffffffffff1661175082610999565b73ffffffffffffffffffffffffffffffffffffffff16146117a6576040517f08c379a000000000000000000000000000000000000000000000000000000000815260040161179d9061395b565b60405180910390fd5b6004600082815260200190815260200160002060006101000a81549073ffffffffffffffffffffffffffffffffffffffff02191690556001600360008573ffffffffffffffffffffffffffffffffffffffff1673ffffffffffffffffffffffffffffffffffffffff168152602001908152602001600020600082825403925050819055506001600360008473ffffffffffffffffffffffffffffffffffffffff1673ffffffffffffffffffffffffffffffffffffffff16815260200190815260200160002060008282540192505081905550816002600083815260200190815260200160002060006101000a81548173ffffffffffffffffffffffffffffffffffffffff021916908373ffffffffffffffffffffffffffffffffffffffff160217905550808273ffffffffffffffffffffffffffffffffffffffff168473ffffffffffffffffffffffffffffffffffffffff167fddf252ad1be2c89b69c2b068fc378daa952ba7f163c4a11628f55a4df523b3ef60405160405180910390a461193283838360016122fb565b505050565b60006002600083815260200190815260200160002060009054906101000a900473ffffffffffffffffffffffffffffffffffffffff169050919050565b60003373ffffffffffffffffffffffffffffffffffffffff16600960009054906101000a900473ffffffffffffffffffffffffffffffffffffffff1673ffffffffffffffffffffffffffffffffffffffff1614611a06576040517f08c379a00000000000000000000000000000000000000000000000000000000081526004016119fd90613a7f565b60405180910390fd5b611a106007611c08565b6000611a1c600761148f565b9050611a288382612301565b6040518060600160405280600d5481526020016000815260200160001515815250600f6000838152602001908152602001600020600082015181600001556020820151816001015560408201518160020160006101000a81548160ff02191690831515021790555090505080915050919050565b8173ffffffffffffffffffffffffffffffffffffffff168373ffffffffffffffffffffffffffffffffffffffff1603611b0a576040517f08c379a0000000000000000000000000000000000000000000000000000000008152600401611b0190613aeb565b60405180910390fd5b80600560008573ffffffffffffffffffffffffffffffffffffffff1673ffffffffffffffffffffffffffffffffffffffff16815260200190815260200160002060008473ffffffffffffffffffffffffffffffffffffffff1673ffffffffffffffffffffffffffffffffffffffff16815260200190815260200160002060006101000a81548160ff0219169083151502179055508173ffffffffffffffffffffffffffffffffffffffff168373ffffffffffffffffffffffffffffffffffffffff167f17307eab39ab6107e8899845ad3d59bd9653f200f220920489ca2b5937696c3183604051611bfb919061299d565b60405180910390a3505050565b6001816000016000828254019250508190555050565b611c2782612194565b611c66576040517f08c379a0000000000000000000000000000000000000000000000000000000008152600401611c5d90613b7d565b60405180910390fd5b80600660008481526020019081526020016000209081611c869190613d49565b505050565b600080600090505b600b80549050811015611d2e578273ffffffffffffffffffffffffffffffffffffffff16600b8281548110611ccb57611cca613e1b565b5b9060005260206000200160009054906101000a900473ffffffffffffffffffffffffffffffffffffffff1673ffffffffffffffffffffffffffffffffffffffff1603611d1b576001915050611d34565b8080611d269061360f565b915050611c93565b50600090505b919050565b611d4484848461163e565b611d508484848461251e565b611d8f576040517f08c379a0000000000000000000000000000000000000000000000000000000008152600401611d8690613ebc565b60405180910390fd5b50505050565b606060405180602001604052806000815250905090565b6060611db78261149d565b6000611dc1611d95565b90506000815111611de15760405180602001604052806000815250611e0c565b80611deb846126a5565b604051602001611dfc9291906136ff565b6040516020818303038152906040525b915050919050565b600080600090505b600c80549050811015611e6b5782600c8281548110611e3e57611e3d613e1b565b5b906000526020600020015403611e58576001915050611e71565b8080611e639061360f565b915050611e1c565b50600090505b919050565b6000601060008473ffffffffffffffffffffffffffffffffffffffff1673ffffffffffffffffffffffffffffffffffffffff16815260200190815260200160002080549050905060005b818110156120985782601060008673ffffffffffffffffffffffffffffffffffffffff1673ffffffffffffffffffffffffffffffffffffffff1681526020019081526020016000208281548110611f1a57611f19613e1b565b5b906000526020600020015403612085576000600182611f399190613549565b90505b8281101561201e57601060008673ffffffffffffffffffffffffffffffffffffffff1673ffffffffffffffffffffffffffffffffffffffff1681526020019081526020016000208181548110611f9557611f94613e1b565b5b9060005260206000200154601060008773ffffffffffffffffffffffffffffffffffffffff1673ffffffffffffffffffffffffffffffffffffffff168152602001908152602001600020600183611fec9190613edc565b81548110611ffd57611ffc613e1b565b5b906000526020600020018190555080806120169061360f565b915050611f3c565b50601060008573ffffffffffffffffffffffffffffffffffffffff1673ffffffffffffffffffffffffffffffffffffffff16815260200190815260200160002080548061206e5761206d613f10565b5b600190038181906000526020600020016000905590555b80806120909061360f565b915050611ec0565b50505050565b6000600c80549050905060005b8181101561218f5782600c82815481106120c8576120c7613e1b565b5b90600052602060002001540361217c5760006001826120e79190613549565b90505b8281101561215257600c818154811061210657612105613e1b565b5b9060005260206000200154600c6001836121209190613edc565b8154811061213157612130613e1b565b5b9060005260206000200181905550808061214a9061360f565b9150506120ea565b50600c80548061216557612164613f10565b5b600190038181906000526020600020016000905590555b80806121879061360f565b9150506120ab565b505050565b60008073ffffffffffffffffffffffffffffffffffffffff166121b683611937565b73ffffffffffffffffffffffffffffffffffffffff1614159050919050565b60018111156122f557600073ffffffffffffffffffffffffffffffffffffffff168473ffffffffffffffffffffffffffffffffffffffff16146122695780600360008673ffffffffffffffffffffffffffffffffffffffff1673ffffffffffffffffffffffffffffffffffffffff16815260200190815260200160002060008282546122619190613edc565b925050819055505b600073ffffffffffffffffffffffffffffffffffffffff168373ffffffffffffffffffffffffffffffffffffffff16146122f45780600360008573ffffffffffffffffffffffffffffffffffffffff1673ffffffffffffffffffffffffffffffffffffffff16815260200190815260200160002060008282546122ec9190613549565b925050819055505b5b50505050565b50505050565b600073ffffffffffffffffffffffffffffffffffffffff168273ffffffffffffffffffffffffffffffffffffffff1603612370576040517f08c379a000000000000000000000000000000000000000000000000000000000815260040161236790613f8b565b60405180910390fd5b61237981612194565b156123b9576040517f08c379a00000000000000000000000000000000000000000000000000000000081526004016123b090613ff7565b60405180910390fd5b6123c76000838360016121d5565b6123d081612194565b15612410576040517f08c379a000000000000000000000000000000000000000000000000000000000815260040161240790613ff7565b60405180910390fd5b6001600360008473ffffffffffffffffffffffffffffffffffffffff1673ffffffffffffffffffffffffffffffffffffffff16815260200190815260200160002060008282540192505081905550816002600083815260200190815260200160002060006101000a81548173ffffffffffffffffffffffffffffffffffffffff021916908373ffffffffffffffffffffffffffffffffffffffff160217905550808273ffffffffffffffffffffffffffffffffffffffff16600073ffffffffffffffffffffffffffffffffffffffff167fddf252ad1be2c89b69c2b068fc378daa952ba7f163c4a11628f55a4df523b3ef60405160405180910390a461251a6000838360016122fb565b5050565b600061253f8473ffffffffffffffffffffffffffffffffffffffff16612773565b15612698578373ffffffffffffffffffffffffffffffffffffffff1663150b7a026125686114e8565b8786866040518563ffffffff1660e01b815260040161258a949392919061406c565b6020604051808303816000875af19250505080156125c657506040513d601f19601f820116820180604052508101906125c391906140cd565b60015b612648573d80600081146125f6576040519150601f19603f3d011682016040523d82523d6000602084013e6125fb565b606091505b506000815103612640576040517f08c379a000000000000000000000000000000000000000000000000000000000815260040161263790613ebc565b60405180910390fd5b805181602001fd5b63150b7a0260e01b7bffffffffffffffffffffffffffffffffffffffffffffffffffffffff1916817bffffffffffffffffffffffffffffffffffffffffffffffffffffffff19161491505061269d565b600190505b949350505050565b6060600060016126b484612796565b01905060008167ffffffffffffffff8111156126d3576126d2612e0c565b5b6040519080825280601f01601f1916602001820160405280156127055781602001600182028036833780820191505090505b509050600082602001820190505b600115612768578080600190039150507f3031323334353637383961626364656600000000000000000000000000000000600a86061a8153600a858161275c5761275b6137f7565b5b04945060008503612713575b819350505050919050565b6000808273ffffffffffffffffffffffffffffffffffffffff163b119050919050565b600080600090507a184f03e93ff9f4daa797ed6e38ed64bf6a1f01000000000000000083106127f4577a184f03e93ff9f4daa797ed6e38ed64bf6a1f01000000000000000083816127ea576127e96137f7565b5b0492506040810190505b6d04ee2d6d415b85acef81000000008310612831576d04ee2d6d415b85acef81000000008381612827576128266137f7565b5b0492506020810190505b662386f26fc10000831061286057662386f26fc100008381612856576128556137f7565b5b0492506010810190505b6305f5e1008310612889576305f5e100838161287f5761287e6137f7565b5b0492506008810190505b61271083106128ae5761271083816128a4576128a36137f7565b5b0492506004810190505b606483106128d157606483816128c7576128c66137f7565b5b0492506002810190505b600a83106128e0576001810190505b80915050919050565b6000604051905090565b600080fd5b600080fd5b60007fffffffff0000000000000000000000000000000000000000000000000000000082169050919050565b612932816128fd565b811461293d57600080fd5b50565b60008135905061294f81612929565b92915050565b60006020828403121561296b5761296a6128f3565b5b600061297984828501612940565b91505092915050565b60008115159050919050565b61299781612982565b82525050565b60006020820190506129b2600083018461298e565b92915050565b6000819050919050565b6129cb816129b8565b82525050565b60006020820190506129e660008301846129c2565b92915050565b600081519050919050565b600082825260208201905092915050565b60005b83811015612a26578082015181840152602081019050612a0b565b60008484015250505050565b6000601f19601f8301169050919050565b6000612a4e826129ec565b612a5881856129f7565b9350612a68818560208601612a08565b612a7181612a32565b840191505092915050565b60006020820190508181036000830152612a968184612a43565b905092915050565b612aa7816129b8565b8114612ab257600080fd5b50565b600081359050612ac481612a9e565b92915050565b600060208284031215612ae057612adf6128f3565b5b6000612aee84828501612ab5565b91505092915050565b600073ffffffffffffffffffffffffffffffffffffffff82169050919050565b6000612b2282612af7565b9050919050565b612b3281612b17565b82525050565b6000602082019050612b4d6000830184612b29565b92915050565b612b5c81612b17565b8114612b6757600080fd5b50565b600081359050612b7981612b53565b92915050565b60008060408385031215612b9657612b956128f3565b5b6000612ba485828601612b6a565b9250506020612bb585828601612ab5565b9150509250929050565b600080600060608486031215612bd857612bd76128f3565b5b6000612be686828701612b6a565b9350506020612bf786828701612b6a565b9250506040612c0886828701612ab5565b9150509250925092565b6000606082019050612c2760008301866129c2565b612c3460208301856129c2565b612c41604083018461298e565b949350505050565b600081519050919050565b600082825260208201905092915050565b6000819050602082019050919050565b612c7e816129b8565b82525050565b6000612c908383612c75565b60208301905092915050565b6000602082019050919050565b6000612cb482612c49565b612cbe8185612c54565b9350612cc983612c65565b8060005b83811015612cfa578151612ce18882612c84565b9750612cec83612c9c565b925050600181019050612ccd565b5085935050505092915050565b60006020820190508181036000830152612d218184612ca9565b905092915050565b600060208284031215612d3f57612d3e6128f3565b5b6000612d4d84828501612b6a565b91505092915050565b60008060408385031215612d6d57612d6c6128f3565b5b6000612d7b85828601612ab5565b9250506020612d8c85828601612b6a565b9150509250929050565b612d9f81612982565b8114612daa57600080fd5b50565b600081359050612dbc81612d96565b92915050565b60008060408385031215612dd957612dd86128f3565b5b6000612de785828601612b6a565b9250506020612df885828601612dad565b9150509250929050565b600080fd5b600080fd5b7f4e487b7100000000000000000000000000000000000000000000000000000000600052604160045260246000fd5b612e4482612a32565b810181811067ffffffffffffffff82111715612e6357612e62612e0c565b5b80604052505050565b6000612e766128e9565b9050612e828282612e3b565b919050565b600067ffffffffffffffff821115612ea257612ea1612e0c565b5b612eab82612a32565b9050602081019050919050565b82818337600083830152505050565b6000612eda612ed584612e87565b612e6c565b905082815260208101848484011115612ef657612ef5612e07565b5b612f01848285612eb8565b509392505050565b600082601f830112612f1e57612f1d612e02565b5b8135612f2e848260208601612ec7565b91505092915050565b60008060408385031215612f4e57612f4d6128f3565b5b6000612f5c85828601612b6a565b925050602083013567ffffffffffffffff811115612f7d57612f7c6128f8565b5b612f8985828601612f09565b9150509250929050565b600067ffffffffffffffff821115612fae57612fad612e0c565b5b612fb782612a32565b9050602081019050919050565b6000612fd7612fd284612f93565b612e6c565b905082815260208101848484011115612ff357612ff2612e07565b5b612ffe848285612eb8565b509392505050565b600082601f83011261301b5761301a612e02565b5b813561302b848260208601612fc4565b91505092915050565b6000806000806080858703121561304e5761304d6128f3565b5b600061305c87828801612b6a565b945050602061306d87828801612b6a565b935050604061307e87828801612ab5565b925050606085013567ffffffffffffffff81111561309f5761309e6128f8565b5b6130ab87828801613006565b91505092959194509250565b6000819050919050565b6130ca816130b7565b82525050565b60006020820190506130e560008301846130c1565b92915050565b60008060408385031215613102576131016128f3565b5b600061311085828601612b6a565b925050602061312185828601612b6a565b9150509250929050565b600080600060608486031215613144576131436128f3565b5b600061315286828701612b6a565b935050602061316386828701612ab5565b925050604084013567ffffffffffffffff811115613184576131836128f8565b5b61319086828701612f09565b9150509250925092565b7f4e487b7100000000000000000000000000000000000000000000000000000000600052602260045260246000fd5b600060028204905060018216806131e157607f821691505b6020821081036131f4576131f361319a565b5b50919050565b7f4552433732313a20617070726f76616c20746f2063757272656e74206f776e6560008201527f7200000000000000000000000000000000000000000000000000000000000000602082015250565b60006132566021836129f7565b9150613261826131fa565b604082019050919050565b6000602082019050818103600083015261328581613249565b9050919050565b7f4552433732313a20617070726f76652063616c6c6572206973206e6f7420746f60008201527f6b656e206f776e6572206f7220617070726f76656420666f7220616c6c000000602082015250565b60006132e8603d836129f7565b91506132f38261328c565b604082019050919050565b60006020820190508181036000830152613317816132db565b9050919050565b7f4552433732313a2063616c6c6572206973206e6f7420746f6b656e206f776e6560008201527f72206f7220617070726f76656400000000000000000000000000000000000000602082015250565b600061337a602d836129f7565b91506133858261331e565b604082019050919050565b600060208201905081810360008301526133a98161336d565b9050919050565b7f4552433732313a20696e76616c696420746f6b656e2049440000000000000000600082015250565b60006133e66018836129f7565b91506133f1826133b0565b602082019050919050565b60006020820190508181036000830152613415816133d9565b9050919050565b7f4552433732313a2061646472657373207a65726f206973206e6f74206120766160008201527f6c6964206f776e65720000000000000000000000000000000000000000000000602082015250565b60006134786029836129f7565b91506134838261341c565b604082019050919050565b600060208201905081810360008301526134a78161346b565b9050919050565b7f4d6178696d756d207469636b6574206c696d6974206578636565646564210000600082015250565b60006134e4601e836129f7565b91506134ef826134ae565b602082019050919050565b60006020820190508181036000830152613513816134d7565b9050919050565b7f4e487b7100000000000000000000000000000000000000000000000000000000600052601160045260246000fd5b6000613554826129b8565b915061355f836129b8565b92508282019050808211156135775761357661351a565b5b92915050565b7f4e756d626572206f66207469636b6574732065786365656473206d6178696d7560008201527f6d207469636b657420636f756e74000000000000000000000000000000000000602082015250565b60006135d9602e836129f7565b91506135e48261357d565b604082019050919050565b60006020820190508181036000830152613608816135cc565b9050919050565b600061361a826129b8565b91507fffffffffffffffffffffffffffffffffffffffffffffffffffffffffffffffff820361364c5761364b61351a565b5b600182019050919050565b7f4f6e6c7920696e697469616c20707572636861736520616c6c6f776564000000600082015250565b600061368d601d836129f7565b915061369882613657565b602082019050919050565b600060208201905081810360008301526136bc81613680565b9050919050565b600081905092915050565b60006136d9826129ec565b6136e381856136c3565b93506136f3818560208601612a08565b80840191505092915050565b600061370b82856136ce565b915061371782846136ce565b91508190509392505050565b7f46756e6374696f6e616c697479206f6e6c7920616c6c6f77656420666f72207360008201527f65636f6e64617279206d61726b65740000000000000000000000000000000000602082015250565b600061377f602f836129f7565b915061378a82613723565b604082019050919050565b600060208201905081810360008301526137ae81613772565b9050919050565b60006137c0826129b8565b91506137cb836129b8565b92508282026137d9816129b8565b915082820484148315176137f0576137ef61351a565b5b5092915050565b7f4e487b7100000000000000000000000000000000000000000000000000000000600052601260045260246000fd5b6000613831826129b8565b915061383c836129b8565b92508261384c5761384b6137f7565b5b828204905092915050565b7f52652d73656c6c696e67207072696365206973206d6f7265207468616e20313160008201527f3025000000000000000000000000000000000000000000000000000000000000602082015250565b60006138b36022836129f7565b91506138be82613857565b604082019050919050565b600060208201905081810360008301526138e2816138a6565b9050919050565b7f4552433732313a207472616e736665722066726f6d20696e636f72726563742060008201527f6f776e6572000000000000000000000000000000000000000000000000000000602082015250565b60006139456025836129f7565b9150613950826138e9565b604082019050919050565b6000602082019050818103600083015261397481613938565b9050919050565b7f4552433732313a207472616e7366657220746f20746865207a65726f2061646460008201527f7265737300000000000000000000000000000000000000000000000000000000602082015250565b60006139d76024836129f7565b91506139e28261397b565b604082019050919050565b60006020820190508181036000830152613a06816139ca565b9050919050565b7f55736572206d7573742068617665206d696e74657220726f6c6520746f206d6960008201527f6e74000000000000000000000000000000000000000000000000000000000000602082015250565b6000613a696022836129f7565b9150613a7482613a0d565b604082019050919050565b60006020820190508181036000830152613a9881613a5c565b9050919050565b7f4552433732313a20617070726f766520746f2063616c6c657200000000000000600082015250565b6000613ad56019836129f7565b9150613ae082613a9f565b602082019050919050565b60006020820190508181036000830152613b0481613ac8565b9050919050565b7f45524337323155524953746f726167653a2055524920736574206f66206e6f6e60008201527f6578697374656e7420746f6b656e000000000000000000000000000000000000602082015250565b6000613b67602e836129f7565b9150613b7282613b0b565b604082019050919050565b60006020820190508181036000830152613b9681613b5a565b9050919050565b60008190508160005260206000209050919050565b60006020601f8301049050919050565b600082821b905092915050565b600060088302613bff7fffffffffffffffffffffffffffffffffffffffffffffffffffffffffffffffff82613bc2565b613c098683613bc2565b95508019841693508086168417925050509392505050565b6000819050919050565b6000613c46613c41613c3c846129b8565b613c21565b6129b8565b9050919050565b6000819050919050565b613c6083613c2b565b613c74613c6c82613c4d565b848454613bcf565b825550505050565b600090565b613c89613c7c565b613c94818484613c57565b505050565b5b81811015613cb857613cad600082613c81565b600181019050613c9a565b5050565b601f821115613cfd57613cce81613b9d565b613cd784613bb2565b81016020851015613ce6578190505b613cfa613cf285613bb2565b830182613c99565b50505b505050565b600082821c905092915050565b6000613d2060001984600802613d02565b1980831691505092915050565b6000613d398383613d0f565b9150826002028217905092915050565b613d52826129ec565b67ffffffffffffffff811115613d6b57613d6a612e0c565b5b613d7582546131c9565b613d80828285613cbc565b600060209050601f831160018114613db35760008415613da1578287015190505b613dab8582613d2d565b865550613e13565b601f198416613dc186613b9d565b60005b82811015613de957848901518255600182019150602085019450602081019050613dc4565b86831015613e065784890151613e02601f891682613d0f565b8355505b6001600288020188555050505b505050505050565b7f4e487b7100000000000000000000000000000000000000000000000000000000600052603260045260246000fd5b7f4552433732313a207472616e7366657220746f206e6f6e20455243373231526560008201527f63656976657220696d706c656d656e7465720000000000000000000000000000602082015250565b6000613ea66032836129f7565b9150613eb182613e4a565b604082019050919050565b60006020820190508181036000830152613ed581613e99565b9050919050565b6000613ee7826129b8565b9150613ef2836129b8565b9250828203905081811115613f0a57613f0961351a565b5b92915050565b7f4e487b7100000000000000000000000000000000000000000000000000000000600052603160045260246000fd5b7f4552433732313a206d696e7420746f20746865207a65726f2061646472657373600082015250565b6000613f756020836129f7565b9150613f8082613f3f565b602082019050919050565b60006020820190508181036000830152613fa481613f68565b9050919050565b7f4552433732313a20746f6b656e20616c7265616479206d696e74656400000000600082015250565b6000613fe1601c836129f7565b9150613fec82613fab565b602082019050919050565b6000602082019050818103600083015261401081613fd4565b9050919050565b600081519050919050565b600082825260208201905092915050565b600061403e82614017565b6140488185614022565b9350614058818560208601612a08565b61406181612a32565b840191505092915050565b60006080820190506140816000830187612b29565b61408e6020830186612b29565b61409b60408301856129c2565b81810360608301526140ad8184614033565b905095945050505050565b6000815190506140c781612929565b92915050565b6000602082840312156140e3576140e26128f3565b5b60006140f1848285016140b8565b9150509291505056fea2646970667358221220041c90dfd66416eee87c46f96846ea9b71ddddc474a33c92901fd0b0ec5ba82664736f6c63430008110033",
  "linkReferences": {},
  "deployedLinkReferences": {}
}