{
  "_format": "hh-sol-artifact-1",
  "contractName": "EventMarketplace",
  "sourceName": "contracts/NFTTicket.sol",
  "abi": [
    {
      "inputs": [
        {
          "internalType": "contract EventToken",
          "name": "token",
          "type": "address"
        },
        {
          "internalType": "contract EventNFT",
          "name": "eventNFT",
          "type": "address"
        }
      ],
      "stateMutability": "nonpayable",
      "type": "constructor"
    },
    {
      "anonymous": false,
      "inputs": [
        {
          "indexed": true,
          "internalType": "address",
          "name": "buyer",
          "type": "address"
        },
        {
          "indexed": false,
          "internalType": "address",
          "name": "seller",
          "type": "address"
        },
        {
          "indexed": false,
          "internalType": "uint256",
          "name": "ticketId",
          "type": "uint256"
        }
      ],
      "name": "Purchase",
      "type": "event"
    },
    {
      "inputs": [
        {
          "internalType": "string",
          "name": "tokenURI",
          "type": "string"
        }
      ],
      "name": "purchaseTicket",
      "outputs": [],
      "stateMutability": "nonpayable",
      "type": "function"
    },
    {
      "inputs": [
        {
          "internalType": "uint256",
          "name": "ticketId",
          "type": "uint256"
        },
        {
          "internalType": "string",
          "name": "tokenURI",
          "type": "string"
        }
      ],
      "name": "secondaryPurchase",
      "outputs": [],
      "stateMutability": "nonpayable",
      "type": "function"
    }
  ],
  "bytecode": "0x60806040523480156200001157600080fd5b5060405162000d6038038062000d60833981810160405281019062000037919062000257565b816000806101000a81548173ffffffffffffffffffffffffffffffffffffffff021916908373ffffffffffffffffffffffffffffffffffffffff16021790555080600160006101000a81548173ffffffffffffffffffffffffffffffffffffffff021916908373ffffffffffffffffffffffffffffffffffffffff160217905550600160009054906101000a900473ffffffffffffffffffffffffffffffffffffffff1673ffffffffffffffffffffffffffffffffffffffff16630b7055786040518163ffffffff1660e01b8152600401602060405180830381865afa15801562000126573d6000803e3d6000fd5b505050506040513d601f19601f820116820180604052508101906200014c9190620002cf565b600260006101000a81548173ffffffffffffffffffffffffffffffffffffffff021916908373ffffffffffffffffffffffffffffffffffffffff160217905550505062000301565b600080fd5b600073ffffffffffffffffffffffffffffffffffffffff82169050919050565b6000620001c68262000199565b9050919050565b6000620001da82620001b9565b9050919050565b620001ec81620001cd565b8114620001f857600080fd5b50565b6000815190506200020c81620001e1565b92915050565b60006200021f82620001b9565b9050919050565b620002318162000212565b81146200023d57600080fd5b50565b600081519050620002518162000226565b92915050565b6000806040838503121562000271576200027062000194565b5b60006200028185828601620001fb565b9250506020620002948582860162000240565b9150509250929050565b620002a981620001b9565b8114620002b557600080fd5b50565b600081519050620002c9816200029e565b92915050565b600060208284031215620002e857620002e762000194565b5b6000620002f884828501620002b8565b91505092915050565b610a4f80620003116000396000f3fe608060405234801561001057600080fd5b50600436106100365760003560e01c8063a6b01b451461003b578063c143f5f714610057575b600080fd5b61005560048036038101906100509190610686565b610073565b005b610071600480360381019061006c9190610705565b61025e565b005b600033905060008054906101000a900473ffffffffffffffffffffffffffffffffffffffff1673ffffffffffffffffffffffffffffffffffffffff166323b872dd82600260009054906101000a900473ffffffffffffffffffffffffffffffffffffffff16600160009054906101000a900473ffffffffffffffffffffffffffffffffffffffff1673ffffffffffffffffffffffffffffffffffffffff166387bb7ae06040518163ffffffff1660e01b8152600401602060405180830381865afa158015610145573d6000803e3d6000fd5b505050506040513d601f19601f820116820180604052508101906101699190610776565b6040518463ffffffff1660e01b8152600401610187939291906107f3565b6020604051808303816000875af11580156101a6573d6000803e3d6000fd5b505050506040513d601f19601f820116820180604052508101906101ca9190610862565b50600160009054906101000a900473ffffffffffffffffffffffffffffffffffffffff1673ffffffffffffffffffffffffffffffffffffffff1663b10d2e2a82846040518363ffffffff1660e01b815260040161022892919061090e565b600060405180830381600087803b15801561024257600080fd5b505af1158015610256573d6000803e3d6000fd5b505050505050565b6000600160009054906101000a900473ffffffffffffffffffffffffffffffffffffffff1673ffffffffffffffffffffffffffffffffffffffff16636352211e846040518263ffffffff1660e01b81526004016102bb919061093e565b602060405180830381865afa1580156102d8573d6000803e3d6000fd5b505050506040513d601f19601f820116820180604052508101906102fc9190610985565b905060003390506000600160009054906101000a900473ffffffffffffffffffffffffffffffffffffffff1673ffffffffffffffffffffffffffffffffffffffff1663569e35db866040518263ffffffff1660e01b8152600401610360919061093e565b602060405180830381865afa15801561037d573d6000803e3d6000fd5b505050506040513d601f19601f820116820180604052508101906103a19190610776565b905060008054906101000a900473ffffffffffffffffffffffffffffffffffffffff1673ffffffffffffffffffffffffffffffffffffffff166323b872dd8385846040518463ffffffff1660e01b8152600401610400939291906107f3565b6020604051808303816000875af115801561041f573d6000803e3d6000fd5b505050506040513d601f19601f820116820180604052508101906104439190610862565b50600160009054906101000a900473ffffffffffffffffffffffffffffffffffffffff1673ffffffffffffffffffffffffffffffffffffffff1663f7dfbdbe8387876040518463ffffffff1660e01b81526004016104a3939291906109b2565b600060405180830381600087803b1580156104bd57600080fd5b505af11580156104d1573d6000803e3d6000fd5b505050508173ffffffffffffffffffffffffffffffffffffffff167f22e3ae3a20c49dce14046235895c7a3ffc0a6a5f3577c370177ad45fa619485d848760405161051d9291906109f0565b60405180910390a25050505050565b6000604051905090565b600080fd5b600080fd5b600080fd5b600080fd5b6000601f19601f8301169050919050565b7f4e487b7100000000000000000000000000000000000000000000000000000000600052604160045260246000fd5b6105938261054a565b810181811067ffffffffffffffff821117156105b2576105b161055b565b5b80604052505050565b60006105c561052c565b90506105d1828261058a565b919050565b600067ffffffffffffffff8211156105f1576105f061055b565b5b6105fa8261054a565b9050602081019050919050565b82818337600083830152505050565b6000610629610624846105d6565b6105bb565b90508281526020810184848401111561064557610644610545565b5b610650848285610607565b509392505050565b600082601f83011261066d5761066c610540565b5b813561067d848260208601610616565b91505092915050565b60006020828403121561069c5761069b610536565b5b600082013567ffffffffffffffff8111156106ba576106b961053b565b5b6106c684828501610658565b91505092915050565b6000819050919050565b6106e2816106cf565b81146106ed57600080fd5b50565b6000813590506106ff816106d9565b92915050565b6000806040838503121561071c5761071b610536565b5b600061072a858286016106f0565b925050602083013567ffffffffffffffff81111561074b5761074a61053b565b5b61075785828601610658565b9150509250929050565b600081519050610770816106d9565b92915050565b60006020828403121561078c5761078b610536565b5b600061079a84828501610761565b91505092915050565b600073ffffffffffffffffffffffffffffffffffffffff82169050919050565b60006107ce826107a3565b9050919050565b6107de816107c3565b82525050565b6107ed816106cf565b82525050565b600060608201905061080860008301866107d5565b61081560208301856107d5565b61082260408301846107e4565b949350505050565b60008115159050919050565b61083f8161082a565b811461084a57600080fd5b50565b60008151905061085c81610836565b92915050565b60006020828403121561087857610877610536565b5b60006108868482850161084d565b91505092915050565b600081519050919050565b600082825260208201905092915050565b60005b838110156108c95780820151818401526020810190506108ae565b60008484015250505050565b60006108e08261088f565b6108ea818561089a565b93506108fa8185602086016108ab565b6109038161054a565b840191505092915050565b600060408201905061092360008301856107d5565b818103602083015261093581846108d5565b90509392505050565b600060208201905061095360008301846107e4565b92915050565b610962816107c3565b811461096d57600080fd5b50565b60008151905061097f81610959565b92915050565b60006020828403121561099b5761099a610536565b5b60006109a984828501610970565b91505092915050565b60006060820190506109c760008301866107d5565b6109d460208301856107e4565b81810360408301526109e681846108d5565b9050949350505050565b6000604082019050610a0560008301856107d5565b610a1260208301846107e4565b939250505056fea2646970667358221220b00ba39059b5679fcf2187691cb802957ac8ff123b6a72d0428ab6889939128964736f6c63430008110033",
  "linkReferences": {},
  "deployedLinkReferences": {}
}