{
  "_format": "hh-sol-artifact-1",
  "contractName": "NFTTicket",
  "sourceName": "contracts/NFTTicket.sol",
  "abi": [
    {
      "inputs": [],
      "stateMutability": "nonpayable",
      "type": "constructor"
    },
    {
      "anonymous": false,
      "inputs": [
        {
          "indexed": true,
          "internalType": "address",
          "name": "owner",
          "type": "address"
        },
        {
          "indexed": true,
          "internalType": "address",
          "name": "approved",
          "type": "address"
        },
        {
          "indexed": true,
          "internalType": "uint256",
          "name": "tokenId",
          "type": "uint256"
        }
      ],
      "name": "Approval",
      "type": "event"
    },
    {
      "anonymous": false,
      "inputs": [
        {
          "indexed": true,
          "internalType": "address",
          "name": "owner",
          "type": "address"
        },
        {
          "indexed": true,
          "internalType": "address",
          "name": "operator",
          "type": "address"
        },
        {
          "indexed": false,
          "internalType": "bool",
          "name": "approved",
          "type": "bool"
        }
      ],
      "name": "ApprovalForAll",
      "type": "event"
    },
    {
      "anonymous": false,
      "inputs": [
        {
          "indexed": true,
          "internalType": "uint256",
          "name": "tokenId",
          "type": "uint256"
        },
        {
          "indexed": false,
          "internalType": "address",
          "name": "seller",
          "type": "address"
        },
        {
          "indexed": false,
          "internalType": "address",
          "name": "owner",
          "type": "address"
        },
        {
          "indexed": false,
          "internalType": "uint256",
          "name": "price",
          "type": "uint256"
        },
        {
          "indexed": false,
          "internalType": "bool",
          "name": "sold",
          "type": "bool"
        }
      ],
      "name": "TicketCreated",
      "type": "event"
    },
    {
      "anonymous": false,
      "inputs": [
        {
          "indexed": true,
          "internalType": "address",
          "name": "from",
          "type": "address"
        },
        {
          "indexed": true,
          "internalType": "address",
          "name": "to",
          "type": "address"
        },
        {
          "indexed": true,
          "internalType": "uint256",
          "name": "tokenId",
          "type": "uint256"
        }
      ],
      "name": "Transfer",
      "type": "event"
    },
    {
      "inputs": [
        {
          "internalType": "address",
          "name": "to",
          "type": "address"
        },
        {
          "internalType": "uint256",
          "name": "tokenId",
          "type": "uint256"
        }
      ],
      "name": "approve",
      "outputs": [],
      "stateMutability": "nonpayable",
      "type": "function"
    },
    {
      "inputs": [
        {
          "internalType": "address",
          "name": "owner",
          "type": "address"
        }
      ],
      "name": "balanceOf",
      "outputs": [
        {
          "internalType": "uint256",
          "name": "",
          "type": "uint256"
        }
      ],
      "stateMutability": "view",
      "type": "function"
    },
    {
      "inputs": [
        {
          "internalType": "uint256",
          "name": "tokenId",
          "type": "uint256"
        }
      ],
      "name": "createTicketSale",
      "outputs": [],
      "stateMutability": "payable",
      "type": "function"
    },
    {
      "inputs": [
        {
          "internalType": "string",
          "name": "tokenURI",
          "type": "string"
        },
        {
          "internalType": "uint256",
          "name": "price",
          "type": "uint256"
        }
      ],
      "name": "createToken",
      "outputs": [
        {
          "internalType": "uint256",
          "name": "",
          "type": "uint256"
        }
      ],
      "stateMutability": "payable",
      "type": "function"
    },
    {
      "inputs": [],
      "name": "fetchItemsListed",
      "outputs": [
        {
          "components": [
            {
              "internalType": "uint256",
              "name": "tokenId",
              "type": "uint256"
            },
            {
              "internalType": "address payable",
              "name": "seller",
              "type": "address"
            },
            {
              "internalType": "address payable",
              "name": "owner",
              "type": "address"
            },
            {
              "internalType": "uint256",
              "name": "price",
              "type": "uint256"
            },
            {
              "internalType": "bool",
              "name": "sold",
              "type": "bool"
            }
          ],
          "internalType": "struct NFTTicket.Ticket[]",
          "name": "",
          "type": "tuple[]"
        }
      ],
      "stateMutability": "view",
      "type": "function"
    },
    {
      "inputs": [],
      "name": "fetchMyNFTs",
      "outputs": [
        {
          "components": [
            {
              "internalType": "uint256",
              "name": "tokenId",
              "type": "uint256"
            },
            {
              "internalType": "address payable",
              "name": "seller",
              "type": "address"
            },
            {
              "internalType": "address payable",
              "name": "owner",
              "type": "address"
            },
            {
              "internalType": "uint256",
              "name": "price",
              "type": "uint256"
            },
            {
              "internalType": "bool",
              "name": "sold",
              "type": "bool"
            }
          ],
          "internalType": "struct NFTTicket.Ticket[]",
          "name": "",
          "type": "tuple[]"
        }
      ],
      "stateMutability": "view",
      "type": "function"
    },
    {
      "inputs": [],
      "name": "fetchTickets",
      "outputs": [
        {
          "components": [
            {
              "internalType": "uint256",
              "name": "tokenId",
              "type": "uint256"
            },
            {
              "internalType": "address payable",
              "name": "seller",
              "type": "address"
            },
            {
              "internalType": "address payable",
              "name": "owner",
              "type": "address"
            },
            {
              "internalType": "uint256",
              "name": "price",
              "type": "uint256"
            },
            {
              "internalType": "bool",
              "name": "sold",
              "type": "bool"
            }
          ],
          "internalType": "struct NFTTicket.Ticket[]",
          "name": "",
          "type": "tuple[]"
        }
      ],
      "stateMutability": "view",
      "type": "function"
    },
    {
      "inputs": [
        {
          "internalType": "uint256",
          "name": "tokenId",
          "type": "uint256"
        }
      ],
      "name": "getApproved",
      "outputs": [
        {
          "internalType": "address",
          "name": "",
          "type": "address"
        }
      ],
      "stateMutability": "view",
      "type": "function"
    },
    {
      "inputs": [],
      "name": "getListingPrice",
      "outputs": [
        {
          "internalType": "uint256",
          "name": "",
          "type": "uint256"
        }
      ],
      "stateMutability": "view",
      "type": "function"
    },
    {
      "inputs": [
        {
          "internalType": "address",
          "name": "owner",
          "type": "address"
        },
        {
          "internalType": "address",
          "name": "operator",
          "type": "address"
        }
      ],
      "name": "isApprovedForAll",
      "outputs": [
        {
          "internalType": "bool",
          "name": "",
          "type": "bool"
        }
      ],
      "stateMutability": "view",
      "type": "function"
    },
    {
      "inputs": [],
      "name": "name",
      "outputs": [
        {
          "internalType": "string",
          "name": "",
          "type": "string"
        }
      ],
      "stateMutability": "view",
      "type": "function"
    },
    {
      "inputs": [
        {
          "internalType": "uint256",
          "name": "tokenId",
          "type": "uint256"
        }
      ],
      "name": "ownerOf",
      "outputs": [
        {
          "internalType": "address",
          "name": "",
          "type": "address"
        }
      ],
      "stateMutability": "view",
      "type": "function"
    },
    {
      "inputs": [
        {
          "internalType": "uint256",
          "name": "tokenId",
          "type": "uint256"
        },
        {
          "internalType": "uint256",
          "name": "price",
          "type": "uint256"
        }
      ],
      "name": "resellToken",
      "outputs": [],
      "stateMutability": "payable",
      "type": "function"
    },
    {
      "inputs": [
        {
          "internalType": "address",
          "name": "from",
          "type": "address"
        },
        {
          "internalType": "address",
          "name": "to",
          "type": "address"
        },
        {
          "internalType": "uint256",
          "name": "tokenId",
          "type": "uint256"
        }
      ],
      "name": "safeTransferFrom",
      "outputs": [],
      "stateMutability": "nonpayable",
      "type": "function"
    },
    {
      "inputs": [
        {
          "internalType": "address",
          "name": "from",
          "type": "address"
        },
        {
          "internalType": "address",
          "name": "to",
          "type": "address"
        },
        {
          "internalType": "uint256",
          "name": "tokenId",
          "type": "uint256"
        },
        {
          "internalType": "bytes",
          "name": "data",
          "type": "bytes"
        }
      ],
      "name": "safeTransferFrom",
      "outputs": [],
      "stateMutability": "nonpayable",
      "type": "function"
    },
    {
      "inputs": [
        {
          "internalType": "address",
          "name": "operator",
          "type": "address"
        },
        {
          "internalType": "bool",
          "name": "approved",
          "type": "bool"
        }
      ],
      "name": "setApprovalForAll",
      "outputs": [],
      "stateMutability": "nonpayable",
      "type": "function"
    },
    {
      "inputs": [
        {
          "internalType": "bytes4",
          "name": "interfaceId",
          "type": "bytes4"
        }
      ],
      "name": "supportsInterface",
      "outputs": [
        {
          "internalType": "bool",
          "name": "",
          "type": "bool"
        }
      ],
      "stateMutability": "view",
      "type": "function"
    },
    {
      "inputs": [],
      "name": "symbol",
      "outputs": [
        {
          "internalType": "string",
          "name": "",
          "type": "string"
        }
      ],
      "stateMutability": "view",
      "type": "function"
    },
    {
      "inputs": [
        {
          "internalType": "uint256",
          "name": "tokenId",
          "type": "uint256"
        }
      ],
      "name": "tokenURI",
      "outputs": [
        {
          "internalType": "string",
          "name": "",
          "type": "string"
        }
      ],
      "stateMutability": "view",
      "type": "function"
    },
    {
      "inputs": [
        {
          "internalType": "address",
          "name": "from",
          "type": "address"
        },
        {
          "internalType": "address",
          "name": "to",
          "type": "address"
        },
        {
          "internalType": "uint256",
          "name": "tokenId",
          "type": "uint256"
        }
      ],
      "name": "transferFrom",
      "outputs": [],
      "stateMutability": "nonpayable",
      "type": "function"
    },
    {
      "inputs": [
        {
          "internalType": "uint256",
          "name": "_listingPrice",
          "type": "uint256"
        }
      ],
      "name": "updateListingPrice",
      "outputs": [],
      "stateMutability": "payable",
      "type": "function"
    }
  ],
  "bytecode": "0x60806040526658d15e176280006009553480156200001c57600080fd5b506040518060400160405280601081526020017f4d657461766572736520546f6b656e73000000000000000000000000000000008152506040518060400160405280600481526020017f4d4554540000000000000000000000000000000000000000000000000000000081525081600090816200009a919062000370565b508060019081620000ac919062000370565b50505033600a60006101000a81548173ffffffffffffffffffffffffffffffffffffffff021916908373ffffffffffffffffffffffffffffffffffffffff16021790555062000457565b600081519050919050565b7f4e487b7100000000000000000000000000000000000000000000000000000000600052604160045260246000fd5b7f4e487b7100000000000000000000000000000000000000000000000000000000600052602260045260246000fd5b600060028204905060018216806200017857607f821691505b6020821081036200018e576200018d62000130565b5b50919050565b60008190508160005260206000209050919050565b60006020601f8301049050919050565b600082821b905092915050565b600060088302620001f87fffffffffffffffffffffffffffffffffffffffffffffffffffffffffffffffff82620001b9565b620002048683620001b9565b95508019841693508086168417925050509392505050565b6000819050919050565b6000819050919050565b6000620002516200024b62000245846200021c565b62000226565b6200021c565b9050919050565b6000819050919050565b6200026d8362000230565b620002856200027c8262000258565b848454620001c6565b825550505050565b600090565b6200029c6200028d565b620002a981848462000262565b505050565b5b81811015620002d157620002c560008262000292565b600181019050620002af565b5050565b601f8211156200032057620002ea8162000194565b620002f584620001a9565b8101602085101562000305578190505b6200031d6200031485620001a9565b830182620002ae565b50505b505050565b600082821c905092915050565b6000620003456000198460080262000325565b1980831691505092915050565b600062000360838362000332565b9150826002028217905092915050565b6200037b82620000f6565b67ffffffffffffffff81111562000397576200039662000101565b5b620003a382546200015f565b620003b0828285620002d5565b600060209050601f831160018114620003e85760008415620003d3578287015190505b620003df858262000352565b8655506200044f565b601f198416620003f88662000194565b60005b828110156200042257848901518255600182019150602085019450602081019050620003fb565b868310156200044257848901516200043e601f89168262000332565b8355505b6001600288020188555050505b505050505050565b61447580620004676000396000f3fe60806040526004361061012a5760003560e01c80636352211e116100ab578063ae677aa31161006f578063ae677aa3146103f9578063b544627014610415578063b88d4fde14610431578063c87b56dd1461045a578063e219fc7514610497578063e985e9c5146104b35761012a565b80636352211e146102fb57806370a082311461033857806372b3b6201461037557806395d89b41146103a5578063a22cb465146103d05761012a565b8063202e3740116100f2578063202e37401461022857806323b872dd1461025357806341c9eb0e1461027c57806342842e0e146102a757806345f8fa80146102d05761012a565b806301ffc9a71461012f57806306fdde031461016c578063081812fc14610197578063095ea7b3146101d457806312e85585146101fd575b600080fd5b34801561013b57600080fd5b5061015660048036038101906101519190612ca7565b6104f0565b6040516101639190612cef565b60405180910390f35b34801561017857600080fd5b506101816105d2565b60405161018e9190612d9a565b60405180910390f35b3480156101a357600080fd5b506101be60048036038101906101b99190612df2565b610664565b6040516101cb9190612e60565b60405180910390f35b3480156101e057600080fd5b506101fb60048036038101906101f69190612ea7565b6106aa565b005b34801561020957600080fd5b506102126107c1565b60405161021f9190612ef6565b60405180910390f35b34801561023457600080fd5b5061023d6107cb565b60405161024a9190613067565b60405180910390f35b34801561025f57600080fd5b5061027a60048036038101906102759190613089565b610ab7565b005b34801561028857600080fd5b50610291610b17565b60405161029e9190613067565b60405180910390f35b3480156102b357600080fd5b506102ce60048036038101906102c99190613089565b610d7f565b005b3480156102dc57600080fd5b506102e5610d9f565b6040516102f29190613067565b60405180910390f35b34801561030757600080fd5b50610322600480360381019061031d9190612df2565b61108b565b60405161032f9190612e60565b60405180910390f35b34801561034457600080fd5b5061035f600480360381019061035a91906130dc565b611111565b60405161036c9190612ef6565b60405180910390f35b61038f600480360381019061038a919061323e565b6111c8565b60405161039c9190612ef6565b60405180910390f35b3480156103b157600080fd5b506103ba61120a565b6040516103c79190612d9a565b60405180910390f35b3480156103dc57600080fd5b506103f760048036038101906103f291906132c6565b61129c565b005b610413600480360381019061040e9190612df2565b6112b2565b005b61042f600480360381019061042a9190612df2565b6113dc565b005b34801561043d57600080fd5b50610458600480360381019061045391906133a7565b611614565b005b34801561046657600080fd5b50610481600480360381019061047c9190612df2565b611676565b60405161048e9190612d9a565b60405180910390f35b6104b160048036038101906104ac919061342a565b611788565b005b3480156104bf57600080fd5b506104da60048036038101906104d5919061346a565b61197d565b6040516104e79190612cef565b60405180910390f35b60007f80ac58cd000000000000000000000000000000000000000000000000000000007bffffffffffffffffffffffffffffffffffffffffffffffffffffffff1916827bffffffffffffffffffffffffffffffffffffffffffffffffffffffff191614806105bb57507f5b5e139f000000000000000000000000000000000000000000000000000000007bffffffffffffffffffffffffffffffffffffffffffffffffffffffff1916827bffffffffffffffffffffffffffffffffffffffffffffffffffffffff1916145b806105cb57506105ca82611a11565b5b9050919050565b6060600080546105e1906134d9565b80601f016020809104026020016040519081016040528092919081815260200182805461060d906134d9565b801561065a5780601f1061062f5761010080835404028352916020019161065a565b820191906000526020600020905b81548152906001019060200180831161063d57829003601f168201915b5050505050905090565b600061066f82611a7b565b6004600083815260200190815260200160002060009054906101000a900473ffffffffffffffffffffffffffffffffffffffff169050919050565b60006106b58261108b565b90508073ffffffffffffffffffffffffffffffffffffffff168373ffffffffffffffffffffffffffffffffffffffff1603610725576040517f08c379a000000000000000000000000000000000000000000000000000000000815260040161071c9061357c565b60405180910390fd5b8073ffffffffffffffffffffffffffffffffffffffff16610744611ac6565b73ffffffffffffffffffffffffffffffffffffffff16148061077357506107728161076d611ac6565b61197d565b5b6107b2576040517f08c379a00000000000000000000000000000000000000000000000000000000081526004016107a99061360e565b60405180910390fd5b6107bc8383611ace565b505050565b6000600954905090565b606060006107d96007611b87565b905060008060005b83811015610881573373ffffffffffffffffffffffffffffffffffffffff16600b6000600184610811919061365d565b815260200190815260200160002060020160009054906101000a900473ffffffffffffffffffffffffffffffffffffffff1673ffffffffffffffffffffffffffffffffffffffff160361086e5760018361086b919061365d565b92505b808061087990613691565b9150506107e1565b5060008267ffffffffffffffff81111561089e5761089d613113565b5b6040519080825280602002602001820160405280156108d757816020015b6108c4612bde565b8152602001906001900390816108bc5790505b50905060005b84811015610aac573373ffffffffffffffffffffffffffffffffffffffff16600b600060018461090d919061365d565b815260200190815260200160002060020160009054906101000a900473ffffffffffffffffffffffffffffffffffffffff1673ffffffffffffffffffffffffffffffffffffffff1603610a99576000600182610969919061365d565b90506000600b60008381526020019081526020016000209050806040518060a0016040529081600082015481526020016001820160009054906101000a900473ffffffffffffffffffffffffffffffffffffffff1673ffffffffffffffffffffffffffffffffffffffff1673ffffffffffffffffffffffffffffffffffffffff1681526020016002820160009054906101000a900473ffffffffffffffffffffffffffffffffffffffff1673ffffffffffffffffffffffffffffffffffffffff1673ffffffffffffffffffffffffffffffffffffffff168152602001600382015481526020016004820160009054906101000a900460ff161515151581525050848681518110610a7c57610a7b6136d9565b5b6020026020010181905250600185610a94919061365d565b945050505b8080610aa490613691565b9150506108dd565b508094505050505090565b610ac8610ac2611ac6565b82611b95565b610b07576040517f08c379a0000000000000000000000000000000000000000000000000000000008152600401610afe9061377a565b60405180910390fd5b610b12838383611c2a565b505050565b60606000610b256007611b87565b90506000610b336008611b87565b610b3d6007611b87565b610b47919061379a565b90506000808267ffffffffffffffff811115610b6657610b65613113565b5b604051908082528060200260200182016040528015610b9f57816020015b610b8c612bde565b815260200190600190039081610b845790505b50905060005b84811015610d74573073ffffffffffffffffffffffffffffffffffffffff16600b6000600184610bd5919061365d565b815260200190815260200160002060020160009054906101000a900473ffffffffffffffffffffffffffffffffffffffff1673ffffffffffffffffffffffffffffffffffffffff1603610d61576000600182610c31919061365d565b90506000600b60008381526020019081526020016000209050806040518060a0016040529081600082015481526020016001820160009054906101000a900473ffffffffffffffffffffffffffffffffffffffff1673ffffffffffffffffffffffffffffffffffffffff1673ffffffffffffffffffffffffffffffffffffffff1681526020016002820160009054906101000a900473ffffffffffffffffffffffffffffffffffffffff1673ffffffffffffffffffffffffffffffffffffffff1673ffffffffffffffffffffffffffffffffffffffff168152602001600382015481526020016004820160009054906101000a900460ff161515151581525050848681518110610d4457610d436136d9565b5b6020026020010181905250600185610d5c919061365d565b945050505b8080610d6c90613691565b915050610ba5565b508094505050505090565b610d9a83838360405180602001604052806000815250611614565b505050565b60606000610dad6007611b87565b905060008060005b83811015610e55573373ffffffffffffffffffffffffffffffffffffffff16600b6000600184610de5919061365d565b815260200190815260200160002060010160009054906101000a900473ffffffffffffffffffffffffffffffffffffffff1673ffffffffffffffffffffffffffffffffffffffff1603610e4257600183610e3f919061365d565b92505b8080610e4d90613691565b915050610db5565b5060008267ffffffffffffffff811115610e7257610e71613113565b5b604051908082528060200260200182016040528015610eab57816020015b610e98612bde565b815260200190600190039081610e905790505b50905060005b84811015611080573373ffffffffffffffffffffffffffffffffffffffff16600b6000600184610ee1919061365d565b815260200190815260200160002060010160009054906101000a900473ffffffffffffffffffffffffffffffffffffffff1673ffffffffffffffffffffffffffffffffffffffff160361106d576000600182610f3d919061365d565b90506000600b60008381526020019081526020016000209050806040518060a0016040529081600082015481526020016001820160009054906101000a900473ffffffffffffffffffffffffffffffffffffffff1673ffffffffffffffffffffffffffffffffffffffff1673ffffffffffffffffffffffffffffffffffffffff1681526020016002820160009054906101000a900473ffffffffffffffffffffffffffffffffffffffff1673ffffffffffffffffffffffffffffffffffffffff1673ffffffffffffffffffffffffffffffffffffffff168152602001600382015481526020016004820160009054906101000a900460ff1615151515815250508486815181106110505761104f6136d9565b5b6020026020010181905250600185611068919061365d565b945050505b808061107890613691565b915050610eb1565b508094505050505090565b60008061109783611f23565b9050600073ffffffffffffffffffffffffffffffffffffffff168173ffffffffffffffffffffffffffffffffffffffff1603611108576040517f08c379a00000000000000000000000000000000000000000000000000000000081526004016110ff9061381a565b60405180910390fd5b80915050919050565b60008073ffffffffffffffffffffffffffffffffffffffff168273ffffffffffffffffffffffffffffffffffffffff1603611181576040517f08c379a0000000000000000000000000000000000000000000000000000000008152600401611178906138ac565b60405180910390fd5b600360008373ffffffffffffffffffffffffffffffffffffffff1673ffffffffffffffffffffffffffffffffffffffff168152602001908152602001600020549050919050565b60006111d46007611f60565b60006111e06007611b87565b90506111ec3382611f76565b6111f68185612193565b6112008184612200565b8091505092915050565b606060018054611219906134d9565b80601f0160208091040260200160405190810160405280929190818152602001828054611245906134d9565b80156112925780601f1061126757610100808354040283529160200191611292565b820191906000526020600020905b81548152906001019060200180831161127557829003601f168201915b5050505050905090565b6112ae6112a7611ac6565b8383612403565b5050565b600a60009054906101000a900473ffffffffffffffffffffffffffffffffffffffff1673ffffffffffffffffffffffffffffffffffffffff163373ffffffffffffffffffffffffffffffffffffffff1614611342576040517f08c379a00000000000000000000000000000000000000000000000000000000081526004016113399061393e565b60405180910390fd5b3373ffffffffffffffffffffffffffffffffffffffff16600a60009054906101000a900473ffffffffffffffffffffffffffffffffffffffff1673ffffffffffffffffffffffffffffffffffffffff16146113d2576040517f08c379a00000000000000000000000000000000000000000000000000000000081526004016113c9906139d0565b60405180910390fd5b8060098190555050565b6000600b6000838152602001908152602001600020600301549050803414611439576040517f08c379a000000000000000000000000000000000000000000000000000000000815260040161143090613a62565b60405180910390fd5b33600b600084815260200190815260200160002060020160006101000a81548173ffffffffffffffffffffffffffffffffffffffff021916908373ffffffffffffffffffffffffffffffffffffffff1602179055506001600b600084815260200190815260200160002060040160006101000a81548160ff0219169083151502179055506000600b600084815260200190815260200160002060010160006101000a81548173ffffffffffffffffffffffffffffffffffffffff021916908373ffffffffffffffffffffffffffffffffffffffff16021790555061151d6008611f60565b611528303384611c2a565b600a60009054906101000a900473ffffffffffffffffffffffffffffffffffffffff1673ffffffffffffffffffffffffffffffffffffffff166108fc6009549081150290604051600060405180830381858888f19350505050158015611592573d6000803e3d6000fd5b50600b600083815260200190815260200160002060010160009054906101000a900473ffffffffffffffffffffffffffffffffffffffff1673ffffffffffffffffffffffffffffffffffffffff166108fc349081150290604051600060405180830381858888f1935050505015801561160f573d6000803e3d6000fd5b505050565b61162561161f611ac6565b83611b95565b611664576040517f08c379a000000000000000000000000000000000000000000000000000000000815260040161165b9061377a565b60405180910390fd5b6116708484848461256f565b50505050565b606061168182611a7b565b60006006600084815260200190815260200160002080546116a1906134d9565b80601f01602080910402602001604051908101604052809291908181526020018280546116cd906134d9565b801561171a5780601f106116ef5761010080835404028352916020019161171a565b820191906000526020600020905b8154815290600101906020018083116116fd57829003601f168201915b50505050509050600061172b6125cb565b90506000815103611740578192505050611783565b60008251111561177557808260405160200161175d929190613abe565b60405160208183030381529060405292505050611783565b61177e846125e2565b925050505b919050565b3373ffffffffffffffffffffffffffffffffffffffff16600b600084815260200190815260200160002060020160009054906101000a900473ffffffffffffffffffffffffffffffffffffffff1673ffffffffffffffffffffffffffffffffffffffff161461182c576040517f08c379a000000000000000000000000000000000000000000000000000000000815260040161182390613b54565b60405180910390fd5b6009543414611870576040517f08c379a000000000000000000000000000000000000000000000000000000000815260040161186790613be6565b60405180910390fd5b6000600b600084815260200190815260200160002060040160006101000a81548160ff02191690831515021790555080600b60008481526020019081526020016000206003018190555033600b600084815260200190815260200160002060010160006101000a81548173ffffffffffffffffffffffffffffffffffffffff021916908373ffffffffffffffffffffffffffffffffffffffff16021790555030600b600084815260200190815260200160002060020160006101000a81548173ffffffffffffffffffffffffffffffffffffffff021916908373ffffffffffffffffffffffffffffffffffffffff16021790555061196e600861264a565b611979333084611c2a565b5050565b6000600560008473ffffffffffffffffffffffffffffffffffffffff1673ffffffffffffffffffffffffffffffffffffffff16815260200190815260200160002060008373ffffffffffffffffffffffffffffffffffffffff1673ffffffffffffffffffffffffffffffffffffffff16815260200190815260200160002060009054906101000a900460ff16905092915050565b60007f01ffc9a7000000000000000000000000000000000000000000000000000000007bffffffffffffffffffffffffffffffffffffffffffffffffffffffff1916827bffffffffffffffffffffffffffffffffffffffffffffffffffffffff1916149050919050565b611a84816126a6565b611ac3576040517f08c379a0000000000000000000000000000000000000000000000000000000008152600401611aba9061381a565b60405180910390fd5b50565b600033905090565b816004600083815260200190815260200160002060006101000a81548173ffffffffffffffffffffffffffffffffffffffff021916908373ffffffffffffffffffffffffffffffffffffffff160217905550808273ffffffffffffffffffffffffffffffffffffffff16611b418361108b565b73ffffffffffffffffffffffffffffffffffffffff167f8c5be1e5ebec7d5bd14f71427d1e84f3dd0314c0f7b2291e5b200ac8c7c3b92560405160405180910390a45050565b600081600001549050919050565b600080611ba18361108b565b90508073ffffffffffffffffffffffffffffffffffffffff168473ffffffffffffffffffffffffffffffffffffffff161480611be35750611be2818561197d565b5b80611c2157508373ffffffffffffffffffffffffffffffffffffffff16611c0984610664565b73ffffffffffffffffffffffffffffffffffffffff16145b91505092915050565b8273ffffffffffffffffffffffffffffffffffffffff16611c4a8261108b565b73ffffffffffffffffffffffffffffffffffffffff1614611ca0576040517f08c379a0000000000000000000000000000000000000000000000000000000008152600401611c9790613c78565b60405180910390fd5b600073ffffffffffffffffffffffffffffffffffffffff168273ffffffffffffffffffffffffffffffffffffffff1603611d0f576040517f08c379a0000000000000000000000000000000000000000000000000000000008152600401611d0690613d0a565b60405180910390fd5b611d1c83838360016126e7565b8273ffffffffffffffffffffffffffffffffffffffff16611d3c8261108b565b73ffffffffffffffffffffffffffffffffffffffff1614611d92576040517f08c379a0000000000000000000000000000000000000000000000000000000008152600401611d8990613c78565b60405180910390fd5b6004600082815260200190815260200160002060006101000a81549073ffffffffffffffffffffffffffffffffffffffff02191690556001600360008573ffffffffffffffffffffffffffffffffffffffff1673ffffffffffffffffffffffffffffffffffffffff168152602001908152602001600020600082825403925050819055506001600360008473ffffffffffffffffffffffffffffffffffffffff1673ffffffffffffffffffffffffffffffffffffffff16815260200190815260200160002060008282540192505081905550816002600083815260200190815260200160002060006101000a81548173ffffffffffffffffffffffffffffffffffffffff021916908373ffffffffffffffffffffffffffffffffffffffff160217905550808273ffffffffffffffffffffffffffffffffffffffff168473ffffffffffffffffffffffffffffffffffffffff167fddf252ad1be2c89b69c2b068fc378daa952ba7f163c4a11628f55a4df523b3ef60405160405180910390a4611f1e838383600161280d565b505050565b60006002600083815260200190815260200160002060009054906101000a900473ffffffffffffffffffffffffffffffffffffffff169050919050565b6001816000016000828254019250508190555050565b600073ffffffffffffffffffffffffffffffffffffffff168273ffffffffffffffffffffffffffffffffffffffff1603611fe5576040517f08c379a0000000000000000000000000000000000000000000000000000000008152600401611fdc90613d76565b60405180910390fd5b611fee816126a6565b1561202e576040517f08c379a000000000000000000000000000000000000000000000000000000000815260040161202590613de2565b60405180910390fd5b61203c6000838360016126e7565b612045816126a6565b15612085576040517f08c379a000000000000000000000000000000000000000000000000000000000815260040161207c90613de2565b60405180910390fd5b6001600360008473ffffffffffffffffffffffffffffffffffffffff1673ffffffffffffffffffffffffffffffffffffffff16815260200190815260200160002060008282540192505081905550816002600083815260200190815260200160002060006101000a81548173ffffffffffffffffffffffffffffffffffffffff021916908373ffffffffffffffffffffffffffffffffffffffff160217905550808273ffffffffffffffffffffffffffffffffffffffff16600073ffffffffffffffffffffffffffffffffffffffff167fddf252ad1be2c89b69c2b068fc378daa952ba7f163c4a11628f55a4df523b3ef60405160405180910390a461218f60008383600161280d565b5050565b61219c826126a6565b6121db576040517f08c379a00000000000000000000000000000000000000000000000000000000081526004016121d290613e74565b60405180910390fd5b806006600084815260200190815260200160002090816121fb9190614040565b505050565b60008111612243576040517f08c379a000000000000000000000000000000000000000000000000000000000815260040161223a9061415e565b60405180910390fd5b6009543414612287576040517f08c379a000000000000000000000000000000000000000000000000000000000815260040161227e90613be6565b60405180910390fd5b6040518060a001604052808381526020013373ffffffffffffffffffffffffffffffffffffffff1681526020013073ffffffffffffffffffffffffffffffffffffffff16815260200182815260200160001515815250600b60008481526020019081526020016000206000820151816000015560208201518160010160006101000a81548173ffffffffffffffffffffffffffffffffffffffff021916908373ffffffffffffffffffffffffffffffffffffffff16021790555060408201518160020160006101000a81548173ffffffffffffffffffffffffffffffffffffffff021916908373ffffffffffffffffffffffffffffffffffffffff1602179055506060820151816003015560808201518160040160006101000a81548160ff0219169083151502179055509050506123c0333084611c2a565b817ff8e628343cdd4828a05207e4919416cafb629ff3ab1c6f524ac0110e3ef4700633308460006040516123f7949392919061417e565b60405180910390a25050565b8173ffffffffffffffffffffffffffffffffffffffff168373ffffffffffffffffffffffffffffffffffffffff1603612471576040517f08c379a00000000000000000000000000000000000000000000000000000000081526004016124689061420f565b60405180910390fd5b80600560008573ffffffffffffffffffffffffffffffffffffffff1673ffffffffffffffffffffffffffffffffffffffff16815260200190815260200160002060008473ffffffffffffffffffffffffffffffffffffffff1673ffffffffffffffffffffffffffffffffffffffff16815260200190815260200160002060006101000a81548160ff0219169083151502179055508173ffffffffffffffffffffffffffffffffffffffff168373ffffffffffffffffffffffffffffffffffffffff167f17307eab39ab6107e8899845ad3d59bd9653f200f220920489ca2b5937696c31836040516125629190612cef565b60405180910390a3505050565b61257a848484611c2a565b61258684848484612813565b6125c5576040517f08c379a00000000000000000000000000000000000000000000000000000000081526004016125bc906142a1565b60405180910390fd5b50505050565b606060405180602001604052806000815250905090565b60606125ed82611a7b565b60006125f76125cb565b905060008151116126175760405180602001604052806000815250612642565b806126218461299a565b604051602001612632929190613abe565b6040516020818303038152906040525b915050919050565b60008160000154905060008111612696576040517f08c379a000000000000000000000000000000000000000000000000000000000815260040161268d9061430d565b60405180910390fd5b6001810382600001819055505050565b60008073ffffffffffffffffffffffffffffffffffffffff166126c883611f23565b73ffffffffffffffffffffffffffffffffffffffff1614159050919050565b600181111561280757600073ffffffffffffffffffffffffffffffffffffffff168473ffffffffffffffffffffffffffffffffffffffff161461277b5780600360008673ffffffffffffffffffffffffffffffffffffffff1673ffffffffffffffffffffffffffffffffffffffff1681526020019081526020016000206000828254612773919061379a565b925050819055505b600073ffffffffffffffffffffffffffffffffffffffff168373ffffffffffffffffffffffffffffffffffffffff16146128065780600360008573ffffffffffffffffffffffffffffffffffffffff1673ffffffffffffffffffffffffffffffffffffffff16815260200190815260200160002060008282546127fe919061365d565b925050819055505b5b50505050565b50505050565b60006128348473ffffffffffffffffffffffffffffffffffffffff16612a68565b1561298d578373ffffffffffffffffffffffffffffffffffffffff1663150b7a0261285d611ac6565b8786866040518563ffffffff1660e01b815260040161287f9493929190614382565b6020604051808303816000875af19250505080156128bb57506040513d601f19601f820116820180604052508101906128b891906143e3565b60015b61293d573d80600081146128eb576040519150601f19603f3d011682016040523d82523d6000602084013e6128f0565b606091505b506000815103612935576040517f08c379a000000000000000000000000000000000000000000000000000000000815260040161292c906142a1565b60405180910390fd5b805181602001fd5b63150b7a0260e01b7bffffffffffffffffffffffffffffffffffffffffffffffffffffffff1916817bffffffffffffffffffffffffffffffffffffffffffffffffffffffff191614915050612992565b600190505b949350505050565b6060600060016129a984612a8b565b01905060008167ffffffffffffffff8111156129c8576129c7613113565b5b6040519080825280601f01601f1916602001820160405280156129fa5781602001600182028036833780820191505090505b509050600082602001820190505b600115612a5d578080600190039150507f3031323334353637383961626364656600000000000000000000000000000000600a86061a8153600a8581612a5157612a50614410565b5b04945060008503612a08575b819350505050919050565b6000808273ffffffffffffffffffffffffffffffffffffffff163b119050919050565b600080600090507a184f03e93ff9f4daa797ed6e38ed64bf6a1f0100000000000000008310612ae9577a184f03e93ff9f4daa797ed6e38ed64bf6a1f0100000000000000008381612adf57612ade614410565b5b0492506040810190505b6d04ee2d6d415b85acef81000000008310612b26576d04ee2d6d415b85acef81000000008381612b1c57612b1b614410565b5b0492506020810190505b662386f26fc100008310612b5557662386f26fc100008381612b4b57612b4a614410565b5b0492506010810190505b6305f5e1008310612b7e576305f5e1008381612b7457612b73614410565b5b0492506008810190505b6127108310612ba3576127108381612b9957612b98614410565b5b0492506004810190505b60648310612bc65760648381612bbc57612bbb614410565b5b0492506002810190505b600a8310612bd5576001810190505b80915050919050565b6040518060a0016040528060008152602001600073ffffffffffffffffffffffffffffffffffffffff168152602001600073ffffffffffffffffffffffffffffffffffffffff168152602001600081526020016000151581525090565b6000604051905090565b600080fd5b600080fd5b60007fffffffff0000000000000000000000000000000000000000000000000000000082169050919050565b612c8481612c4f565b8114612c8f57600080fd5b50565b600081359050612ca181612c7b565b92915050565b600060208284031215612cbd57612cbc612c45565b5b6000612ccb84828501612c92565b91505092915050565b60008115159050919050565b612ce981612cd4565b82525050565b6000602082019050612d046000830184612ce0565b92915050565b600081519050919050565b600082825260208201905092915050565b60005b83811015612d44578082015181840152602081019050612d29565b60008484015250505050565b6000601f19601f8301169050919050565b6000612d6c82612d0a565b612d768185612d15565b9350612d86818560208601612d26565b612d8f81612d50565b840191505092915050565b60006020820190508181036000830152612db48184612d61565b905092915050565b6000819050919050565b612dcf81612dbc565b8114612dda57600080fd5b50565b600081359050612dec81612dc6565b92915050565b600060208284031215612e0857612e07612c45565b5b6000612e1684828501612ddd565b91505092915050565b600073ffffffffffffffffffffffffffffffffffffffff82169050919050565b6000612e4a82612e1f565b9050919050565b612e5a81612e3f565b82525050565b6000602082019050612e756000830184612e51565b92915050565b612e8481612e3f565b8114612e8f57600080fd5b50565b600081359050612ea181612e7b565b92915050565b60008060408385031215612ebe57612ebd612c45565b5b6000612ecc85828601612e92565b9250506020612edd85828601612ddd565b9150509250929050565b612ef081612dbc565b82525050565b6000602082019050612f0b6000830184612ee7565b92915050565b600081519050919050565b600082825260208201905092915050565b6000819050602082019050919050565b612f4681612dbc565b82525050565b6000612f5782612e1f565b9050919050565b612f6781612f4c565b82525050565b612f7681612cd4565b82525050565b60a082016000820151612f926000850182612f3d565b506020820151612fa56020850182612f5e565b506040820151612fb86040850182612f5e565b506060820151612fcb6060850182612f3d565b506080820151612fde6080850182612f6d565b50505050565b6000612ff08383612f7c565b60a08301905092915050565b6000602082019050919050565b600061301482612f11565b61301e8185612f1c565b935061302983612f2d565b8060005b8381101561305a5781516130418882612fe4565b975061304c83612ffc565b92505060018101905061302d565b5085935050505092915050565b600060208201905081810360008301526130818184613009565b905092915050565b6000806000606084860312156130a2576130a1612c45565b5b60006130b086828701612e92565b93505060206130c186828701612e92565b92505060406130d286828701612ddd565b9150509250925092565b6000602082840312156130f2576130f1612c45565b5b600061310084828501612e92565b91505092915050565b600080fd5b600080fd5b7f4e487b7100000000000000000000000000000000000000000000000000000000600052604160045260246000fd5b61314b82612d50565b810181811067ffffffffffffffff8211171561316a57613169613113565b5b80604052505050565b600061317d612c3b565b90506131898282613142565b919050565b600067ffffffffffffffff8211156131a9576131a8613113565b5b6131b282612d50565b9050602081019050919050565b82818337600083830152505050565b60006131e16131dc8461318e565b613173565b9050828152602081018484840111156131fd576131fc61310e565b5b6132088482856131bf565b509392505050565b600082601f83011261322557613224613109565b5b81356132358482602086016131ce565b91505092915050565b6000806040838503121561325557613254612c45565b5b600083013567ffffffffffffffff81111561327357613272612c4a565b5b61327f85828601613210565b925050602061329085828601612ddd565b9150509250929050565b6132a381612cd4565b81146132ae57600080fd5b50565b6000813590506132c08161329a565b92915050565b600080604083850312156132dd576132dc612c45565b5b60006132eb85828601612e92565b92505060206132fc858286016132b1565b9150509250929050565b600067ffffffffffffffff82111561332157613320613113565b5b61332a82612d50565b9050602081019050919050565b600061334a61334584613306565b613173565b9050828152602081018484840111156133665761336561310e565b5b6133718482856131bf565b509392505050565b600082601f83011261338e5761338d613109565b5b813561339e848260208601613337565b91505092915050565b600080600080608085870312156133c1576133c0612c45565b5b60006133cf87828801612e92565b94505060206133e087828801612e92565b93505060406133f187828801612ddd565b925050606085013567ffffffffffffffff81111561341257613411612c4a565b5b61341e87828801613379565b91505092959194509250565b6000806040838503121561344157613440612c45565b5b600061344f85828601612ddd565b925050602061346085828601612ddd565b9150509250929050565b6000806040838503121561348157613480612c45565b5b600061348f85828601612e92565b92505060206134a085828601612e92565b9150509250929050565b7f4e487b7100000000000000000000000000000000000000000000000000000000600052602260045260246000fd5b600060028204905060018216806134f157607f821691505b602082108103613504576135036134aa565b5b50919050565b7f4552433732313a20617070726f76616c20746f2063757272656e74206f776e6560008201527f7200000000000000000000000000000000000000000000000000000000000000602082015250565b6000613566602183612d15565b91506135718261350a565b604082019050919050565b6000602082019050818103600083015261359581613559565b9050919050565b7f4552433732313a20617070726f76652063616c6c6572206973206e6f7420746f60008201527f6b656e206f776e6572206f7220617070726f76656420666f7220616c6c000000602082015250565b60006135f8603d83612d15565b91506136038261359c565b604082019050919050565b60006020820190508181036000830152613627816135eb565b9050919050565b7f4e487b7100000000000000000000000000000000000000000000000000000000600052601160045260246000fd5b600061366882612dbc565b915061367383612dbc565b925082820190508082111561368b5761368a61362e565b5b92915050565b600061369c82612dbc565b91507fffffffffffffffffffffffffffffffffffffffffffffffffffffffffffffffff82036136ce576136cd61362e565b5b600182019050919050565b7f4e487b7100000000000000000000000000000000000000000000000000000000600052603260045260246000fd5b7f4552433732313a2063616c6c6572206973206e6f7420746f6b656e206f776e6560008201527f72206f7220617070726f76656400000000000000000000000000000000000000602082015250565b6000613764602d83612d15565b915061376f82613708565b604082019050919050565b6000602082019050818103600083015261379381613757565b9050919050565b60006137a582612dbc565b91506137b083612dbc565b92508282039050818111156137c8576137c761362e565b5b92915050565b7f4552433732313a20696e76616c696420746f6b656e2049440000000000000000600082015250565b6000613804601883612d15565b915061380f826137ce565b602082019050919050565b60006020820190508181036000830152613833816137f7565b9050919050565b7f4552433732313a2061646472657373207a65726f206973206e6f74206120766160008201527f6c6964206f776e65720000000000000000000000000000000000000000000000602082015250565b6000613896602983612d15565b91506138a18261383a565b604082019050919050565b600060208201905081810360008301526138c581613889565b9050919050565b7f6f6e6c79206f776e6572206f6620746865205469636b65742063616e2063686160008201527f6e676520746865206c697374696e672070726963650000000000000000000000602082015250565b6000613928603583612d15565b9150613933826138cc565b604082019050919050565b600060208201905081810360008301526139578161391b565b9050919050565b7f4f6e6c79207469636b6574206f776e65722063616e20757064617465206c697360008201527f74696e672070726963652e000000000000000000000000000000000000000000602082015250565b60006139ba602b83612d15565b91506139c58261395e565b604082019050919050565b600060208201905081810360008301526139e9816139ad565b9050919050565b7f506c65617365207375626d6974207468652061736b696e67207072696365206960008201527f6e206f7264657220746f20636f6d706c65746520746865207075726368617365602082015250565b6000613a4c604083612d15565b9150613a57826139f0565b604082019050919050565b60006020820190508181036000830152613a7b81613a3f565b9050919050565b600081905092915050565b6000613a9882612d0a565b613aa28185613a82565b9350613ab2818560208601612d26565b80840191505092915050565b6000613aca8285613a8d565b9150613ad68284613a8d565b91508190509392505050565b7f4f6e6c79206974656d206f776e65722063616e20706572666f726d207468697360008201527f206f7065726174696f6e00000000000000000000000000000000000000000000602082015250565b6000613b3e602a83612d15565b9150613b4982613ae2565b604082019050919050565b60006020820190508181036000830152613b6d81613b31565b9050919050565b7f5072696365206d75737420626520657175616c20746f206c697374696e67207060008201527f7269636500000000000000000000000000000000000000000000000000000000602082015250565b6000613bd0602483612d15565b9150613bdb82613b74565b604082019050919050565b60006020820190508181036000830152613bff81613bc3565b9050919050565b7f4552433732313a207472616e736665722066726f6d20696e636f72726563742060008201527f6f776e6572000000000000000000000000000000000000000000000000000000602082015250565b6000613c62602583612d15565b9150613c6d82613c06565b604082019050919050565b60006020820190508181036000830152613c9181613c55565b9050919050565b7f4552433732313a207472616e7366657220746f20746865207a65726f2061646460008201527f7265737300000000000000000000000000000000000000000000000000000000602082015250565b6000613cf4602483612d15565b9150613cff82613c98565b604082019050919050565b60006020820190508181036000830152613d2381613ce7565b9050919050565b7f4552433732313a206d696e7420746f20746865207a65726f2061646472657373600082015250565b6000613d60602083612d15565b9150613d6b82613d2a565b602082019050919050565b60006020820190508181036000830152613d8f81613d53565b9050919050565b7f4552433732313a20746f6b656e20616c7265616479206d696e74656400000000600082015250565b6000613dcc601c83612d15565b9150613dd782613d96565b602082019050919050565b60006020820190508181036000830152613dfb81613dbf565b9050919050565b7f45524337323155524953746f726167653a2055524920736574206f66206e6f6e60008201527f6578697374656e7420746f6b656e000000000000000000000000000000000000602082015250565b6000613e5e602e83612d15565b9150613e6982613e02565b604082019050919050565b60006020820190508181036000830152613e8d81613e51565b9050919050565b60008190508160005260206000209050919050565b60006020601f8301049050919050565b600082821b905092915050565b600060088302613ef67fffffffffffffffffffffffffffffffffffffffffffffffffffffffffffffffff82613eb9565b613f008683613eb9565b95508019841693508086168417925050509392505050565b6000819050919050565b6000613f3d613f38613f3384612dbc565b613f18565b612dbc565b9050919050565b6000819050919050565b613f5783613f22565b613f6b613f6382613f44565b848454613ec6565b825550505050565b600090565b613f80613f73565b613f8b818484613f4e565b505050565b5b81811015613faf57613fa4600082613f78565b600181019050613f91565b5050565b601f821115613ff457613fc581613e94565b613fce84613ea9565b81016020851015613fdd578190505b613ff1613fe985613ea9565b830182613f90565b50505b505050565b600082821c905092915050565b600061401760001984600802613ff9565b1980831691505092915050565b60006140308383614006565b9150826002028217905092915050565b61404982612d0a565b67ffffffffffffffff81111561406257614061613113565b5b61406c82546134d9565b614077828285613fb3565b600060209050601f8311600181146140aa5760008415614098578287015190505b6140a28582614024565b86555061410a565b601f1984166140b886613e94565b60005b828110156140e0578489015182556001820191506020850194506020810190506140bb565b868310156140fd57848901516140f9601f891682614006565b8355505b6001600288020188555050505b505050505050565b7f5072696365206d757374206265206174206c6561737420312077656900000000600082015250565b6000614148601c83612d15565b915061415382614112565b602082019050919050565b600060208201905081810360008301526141778161413b565b9050919050565b60006080820190506141936000830187612e51565b6141a06020830186612e51565b6141ad6040830185612ee7565b6141ba6060830184612ce0565b95945050505050565b7f4552433732313a20617070726f766520746f2063616c6c657200000000000000600082015250565b60006141f9601983612d15565b9150614204826141c3565b602082019050919050565b60006020820190508181036000830152614228816141ec565b9050919050565b7f4552433732313a207472616e7366657220746f206e6f6e20455243373231526560008201527f63656976657220696d706c656d656e7465720000000000000000000000000000602082015250565b600061428b603283612d15565b91506142968261422f565b604082019050919050565b600060208201905081810360008301526142ba8161427e565b9050919050565b7f436f756e7465723a2064656372656d656e74206f766572666c6f770000000000600082015250565b60006142f7601b83612d15565b9150614302826142c1565b602082019050919050565b60006020820190508181036000830152614326816142ea565b9050919050565b600081519050919050565b600082825260208201905092915050565b60006143548261432d565b61435e8185614338565b935061436e818560208601612d26565b61437781612d50565b840191505092915050565b60006080820190506143976000830187612e51565b6143a46020830186612e51565b6143b16040830185612ee7565b81810360608301526143c38184614349565b905095945050505050565b6000815190506143dd81612c7b565b92915050565b6000602082840312156143f9576143f8612c45565b5b6000614407848285016143ce565b91505092915050565b7f4e487b7100000000000000000000000000000000000000000000000000000000600052601260045260246000fdfea26469706673582212202d4d7ad82965337720732f1c51a3d57d5e8a841092b68e98ea76281f0bfbd70664736f6c63430008110033",
  "linkReferences": {},
  "deployedLinkReferences": {}
}